:100000000C9461000C9473000C9473000C947300B6
:100010000C9473000C9473000C9473000C94730094
:100020000C9473000C9473000C9473000C94730084
:100030000C9473000C9473000C9473000C94730074
:100040000C9483010C9473000C9473000C94730053
:100050000C9473000C9473000C9473000C94730054
:100060000C9473000C94730000000000240027001F
:100070002A0000000000250028002B0000000000DE
:1000800023002600290004040404040404040202DA
:100090000202020203030303030301020408102007
:1000A0004080010204081020010204081020000012
:1000B0000008000201000003040700000000000027
:1000C000000011241FBECFEFD8E0DEBFCDBF21E07E
:1000D000A0E0B1E001C01D92AE30B207E1F70E948E
:1000E00012020C9433030C940000833081F028F446
:1000F000813099F08230A9F008958730A9F08830D6
:10010000C9F08430B1F4809180008F7D03C080916C
:1001100080008F7780938000089584B58F7784BDA9
:10012000089584B58F7DFBCF8091B0008F77809349
:10013000B00008958091B0008F7DF9CFCF93DF9309
:10014000E4EBF0E08491E0EAF0E0D491ECE8F0E058
:10015000C491CC23A1F081110E947500EC2FF0E036
:10016000EE0FFF1FE458FF4FA591B491EC91ED23E2
:1001700081E090E009F480E0DF91CF91089580E084
:1001800090E0FACF1F93CF93DF93282F30E0F9014F
:10019000E255FF4F8491F901E656FF4FD491F901E2
:1001A000EA57FF4FC491CC23A9F0162F81110E946A
:1001B0007500EC2FF0E0EE0FFF1FEE58FF4FA591FA
:1001C000B4918FB7F894EC91111108C0D095DE234B
:1001D000DC938FBFDF91CF911F910895DE2BF8CF75
:1001E000CF93DF9390E0FC01E656FF4F24918A57AE
:1001F0009F4FFC0184918823C9F090E0880F991FDC
:10020000FC01E859FF4FA591B491FC01EE58FF4F56
:10021000C591D49161110DC09FB7F8948C91209530
:1002200082238C938881282328839FBFDF91CF91DD
:100230000895623051F49FB7F8943C91822F8095D5
:1002400083238C93E8812E2BEFCF8FB7F894EC911A
:100250002E2B2C938FBFEACF3FB7F89480910501E6
:1002600090910601A0910701B091080126B5A89BC5
:1002700005C02F3F19F00196A11DB11D3FBFBA2F38
:10028000A92F982F8827BC01CD01620F711D811DF8
:10029000911D42E0660F771F881F991F4A95D1F77D
:1002A00008958F929F92AF92BF92CF92DF92EF927A
:1002B000FF924B015C010E942C016B017C010E94AA
:1002C0002C016C197D098E099F09683E73408105D8
:1002D0009105A8F321E0821A9108A108B10888EEDF
:1002E000C80E83E0D81EE11CF11C81149104A10406
:1002F000B10429F7FF90EF90DF90CF90BF90AF90BF
:100300009F908F9008951F920F920FB60F92112415
:100310002F933F938F939F93AF93BF93809101014E
:1003200090910201A0910301B0910401309100016C
:1003300023E0230F2D3758F50196A11DB11D209301
:1003400000018093010190930201A0930301B093F7
:1003500004018091050190910601A0910701B091DF
:1003600008010196A11DB11D80930501909306011E
:10037000A0930701B0930801BF91AF919F918F9116
:100380003F912F910F900FBE0F901F90189526E868
:10039000230F0296A11DB11DD2CFCF92DF92EF9213
:1003A000FF920F931F93E82FF92F05C001501109F9
:1003B0002109310961F1908196239417B9F305C0A1
:1003C000015011092109310911F1908196239413EB
:1003D000F7CFC12CD12CE12CF12C0AC08FEFC81A19
:1003E000D80AE80AF80A0C151D052E053F0579F014
:1003F00080818623841791F36C2D7D2D8E2D9F2D6A
:100400001F910F91FF90EF90DF90CF90089560E0E3
:1004100070E080E090E01F910F91FF90EF90DF90EF
:10042000CF900895789484B5826084BD84B581604E
:1004300084BD85B5826085BD85B5816085BD8091AF
:100440006E00816080936E00109281008091810027
:10045000826080938100809181008160809381001F
:10046000809180008160809380008091B1008460E1
:100470008093B1008091B00081608093B000809142
:100480007A00846080937A0080917A008260809301
:100490007A0080917A00816080937A0080917A005E
:1004A000806880937A001092C10061E083E00E942E
:1004B000F00060E082E00E94F00061E085E00E94D0
:1004C000F00062E086E00E94F00060E085E00E94BB
:1004D000C200C3E0D0E09FE0A92EB12C28E8222E74
:1004E00020E0322E3AE3432E512C612C712C40E057
:1004F000842E40E0942E61E083E00E94F00060E0F2
:1005000083E00E94C200CE010197F1F761E083E031
:100510000E94C200C5010197F1F760E083E00E94EC
:10052000C20060E083E00E94F000ECE9F0E064913A
:10053000F1018491E82FF0E0EE0FFF1FE458FF4F28
:100540008591949100E412E42FE030E0462F0E9460
:10055000CD01611571058105910529F06F5F7F4F10
:100560008F4F9F4F9F70A30192010E94F202690179
:100570007A01C0920A01D0920B01E0920C01F09234
:100580000D0164E670E080E090E00E9451010E945D
:100590009E00892B81F40E949E00892BE1F36CE27E
:1005A00071E080E090E00E9451018091090191E0AA
:1005B0008927809309018091090181110BC060E0B6
:1005C00085E00E94C2008114910409F494CF0E9436
:1005D000000091CFF0E1CF16D104E104F1047CF3E7
:1005E00061E0EECF052E97FB1EF400940E940903F4
:1005F00057FD07D00E94110307FC03D04EF40C9462
:10060000090350954095309521953F4F4F4F5F4FCF
:10061000089590958095709561957F4F8F4F9F4F6E
:100620000895A1E21A2EAA1BBB1BFD010DC0AA1F33
:10063000BB1FEE1FFF1FA217B307E407F50720F04B
:10064000A21BB30BE40BF50B661F771F881F991FC6
:100650001A9469F760957095809590959B01AC010F
:0A066000BD01CF010895F894FFCF0B
:00000001FF
