:100000000C94E0000C9408010C9408010C94080175
:100010000C9408010C9408010C9408010C9408013C
:100020000C9408010C9408010C9408010C9408012C
:100030000C9408010C9408010C9408010C9408011C
:100040000C9420090C9408010C94EE080C94C80838
:100050000C9408010C9408010C9408010C940801FC
:100060000C946A090C94080100407A10F35A00A01D
:10007000724E18090010A5D4E80000E87648170071
:1000800000E40B54020000CA9A3B000000E1F505B1
:10009000000080969800000040420F000000A086FB
:1000A00001000000102700000000E803000000002D
:1000B0006400000000000A000000000001000000D1
:1000C00000002C76D888DC674F0823DFC1DFAE59EB
:1000D000E1B1B796E5E3E453C63AE651997696E87E
:1000E000E6C28426EB898C9B62ED407C6FFCEFBC02
:1000F0009C9F40F2BAA56FA5F490055A2AF75C932D
:100100006B6CF9676DC11BFCE0E40D47FEF520E662
:10011000B500D0ED902E0300943577050080841E45
:10012000080000204E0A000000C80C333333330FA0
:10013000986E12831141EF8D2114893BE65516CF3D
:10014000FEE6DB18D1844B381BF77C1D901DA4BB49
:10015000E424203284725E228100C9F124ECA1E5FE
:100160003D2700000000240027002A0000000000B6
:10017000250028002B000000000023002600290095
:10018000040404040404040402020202020203033D
:100190000303030301020408102040800102040845
:1001A00010200102040810200000000800020100D5
:1001B000000304070000000000000000890ABE0FD1
:1001C00011241FBECFEFD8E0DEBFCDBF22E0A0E4F8
:1001D000B1E001C01D92AB3DB207E1F711E0A0E034
:1001E000B1E0EAE1FCE202C005900D92A034B10753
:1001F000D9F710E0CFEDD0E004C02197FE010E94B6
:10020000FF13CE3DD107C9F70E94D30A0C94001604
:100210000C94000091E09093F601809318021092E4
:10022000F7011092190208958091A8019091A901F7
:10023000891B990B089508950895FC012481358147
:100240006217730720F480819181009729F410923E
:10025000890189E891E00895860F971F0895089510
:10026000AF92BF92CF92DF92EF92FF920F931F93C4
:10027000CF93DF936C017B018B01040F151FEB0102
:100280005E01AE18BF08C017D10759F06991D601B9
:10029000ED91FC910190F081E02DC6010995892B2B
:1002A00079F7C501DF91CF911F910F91FF90EF90EA
:1002B000DF90CF90BF90AF900895FC01538D448D97
:1002C000252F30E0842F90E0821B930B541710F001
:1002D000CF96089501970895FC01918D828D98170E
:1002E00061F0A28DAE0FBF2FB11D5D968C91928DE6
:1002F0009F5F9F73928F90E008958FEF9FEF089517
:10030000FC01918D828D981731F0828DE80FF11DDF
:10031000858D90E008958FEF9FEF0895FC01918DFA
:10032000228D892F90E0805C9F4F821B91098F73F3
:10033000992708958CE192E00E948E0121E0892B9B
:1003400009F420E0822F089580E090E0892B29F0C5
:100350000E949A0181110C9400000895FC01A48D63
:10036000A80FB92FB11DA35ABF4F2C91848D90E0D7
:1003700001968F739927848FA689B7892C93A089BA
:10038000B1898C91837080648C93938D848D981344
:1003900006C00288F389E02D80818F7D80830895D7
:1003A000EF92FF920F931F93CF93DF93EC0181E0C5
:1003B000888F9B8D8C8D98131AC0E889F98980816C
:1003C00085FF15C09FB7F894EE89FF896083E8899F
:1003D000F98980818370806480839FBF81E090E091
:1003E000DF91CF911F910F91FF90EF900895F62E1E
:1003F0000B8D10E00F5F1F4F0F731127E02E8C8DB8
:100400008E110CC00FB607FCFACFE889F9898081FC
:1004100085FFF5CFCE010E94AE01F1CFEB8DEC0F41
:10042000FD2FF11DE35AFF4FF0829FB7F8940B8F19
:10043000EA89FB8980818062CFCFCF93DF93EC0183
:10044000888D8823B9F0AA89BB89E889F9898C91BC
:1004500085FD03C0808186FD0DC00FB607FCF7CF78
:100460008C9185FFF2CF808185FFEDCFCE010E9478
:10047000AE01E9CFDF91CF910895833081F028F468
:10048000813099F08230A9F008958730A9F0883042
:10049000C9F08430B1F4809180008F7D03C08091D9
:1004A00080008F7780938000089584B58F7784BD16
:1004B000089584B58F7DFBCF8091B0008F778093B6
:1004C000B00008958091B0008F7DF9CFCF93DF9376
:1004D000282F30E0F901E855FE4F8491F901EC56E0
:1004E000FE4FD491F901E058FE4FC491CC23A1F006
:1004F00081110E943D02EC2FF0E0EE0FFF1FEA5841
:10050000FE4FA591B491EC91ED2381E090E009F4C8
:1005100080E0DF91CF91089580E090E0FACF1F93C3
:10052000CF93DF93282F30E0F901E855FE4F8491F7
:10053000F901EC56FE4FD491F901E058FE4FC491F9
:10054000CC23A9F0162F81110E943D02EC2FF0E080
:10055000EE0FFF1FE459FE4FA591B4918FB7F894A9
:10056000EC91111108C0D095DE23DC938FBFDF9191
:10057000CF911F910895DE2BF8CFCF93DF9390E0BA
:10058000FC01EC56FE4F249180589E4FFC01849153
:100590008823D1F090E0880F991FFC01EE59FE4F9F
:1005A000A591B491FC01E459FE4FC591D49161111C
:1005B0000EC09FB7F8948C91E22FE0958E238C9318
:1005C0002881E223E8839FBFDF91CF9108958FB701
:1005D000F894EC91E22BEC938FBFF6CF3FB7F894F1
:1005E0008091850190918601A0918701B091880149
:1005F00026B5A89B05C02F3F19F00196A11DB11D7E
:100600003FBFBA2FA92F982F8827BC01CD01620FB9
:10061000711D811D911D42E0660F771F881F991F74
:100620004A95D1F7089520916101260F3327331F92
:1006300021323105ECF42091F001FC0190E080E0E2
:10064000243069F082E00895A09161012191AC010C
:100650004F5B5E4FA40FB52FB11D2C9301968617EB
:1006600098F380916101680F6093610180E00895C3
:1006700081E008951092F00181E08093EF011092E3
:10068000CA0161E082E10E948F0261E083E10E9481
:100690008F02E9EBF0E080818E7F808380818D7F07
:1006A000808388E48093B80085E48093BC0008953B
:1006B000CF93DF9391E0909340018823B9F0C091EC
:1006C000B800D091BA008091BC008A7B8093BC00B6
:1006D00060E082E10E948F0260E083E10E948F026D
:1006E0000E943A03D093BA00C093B800DF91CF9133
:1006F0000895CF92DF92EF92FF920F931F93CF93C3
:10070000DF93D091190281E0D13208F09CC0C091F2
:1007100018020E94EE026B017C018091F0018111B0
:100720006CC082E08093F00181E08093EF018FEF55
:100730008093EE011092ED01D093EC01A8EFB1E0AF
:10074000ECECF1E080E0D8138DC01092CB018091E9
:10075000CB01CC0FC82BC093CB018091CA01813053
:1007600009F084C01092CA010E94EE026B017C0164
:100770008091CB018093BB008091F2019091F301B5
:10078000A091F401B091F501892B8A2B8B2BA1F05C
:100790000E94EE020091F2011091F3012091F40108
:1007A0003091F5016C197D098E099F09061717070D
:1007B0002807390708F442C08091BC0083FDD8CFD8
:1007C00085EC8093BC000E94EE026B017C0180915D
:1007D000F001823009F44CC08091EE018F3F09F4A2
:1007E00069C08091EE01803209F466C08091EE010B
:1007F000803309F463C084E026C08091F2019091B7
:10080000F301A091F401B091F501892B8A2B8B2B78
:1008100009F483CF0E94EE020091F2011091F301DE
:100820002091F4013091F5016C197D098E099F0921
:10083000061717072807390708F06FCF8091F101D5
:100840000E94580385E01092F7011092190210924D
:10085000F601DF91CF911F910F91FF90EF90DF9004
:10086000CF9008959D9191938F5F6DCF85EEA9CF25
:100870008091F2019091F301A091F401B091F50102
:10088000892B8A2B8B2B09F4A2CF0E94EE020091B8
:10089000F2011091F3012091F4013091F5016C19EE
:1008A0007D098E099F09061717072807390708F0E1
:1008B0008ECFC4CF80E0C7CF82E0C5CF83E0C3CF67
:1008C0000895E091A9018091A801E81730F4F0E0C3
:1008D000E655FE4F808190E008958FEF9FEF0895D9
:1008E0009091A9018091A8012FEF3FEF981748F44C
:1008F000E92FF0E0E655FE4F208130E09F5F9093B6
:10090000A901C9010895CF92DF92EF92FF920F9350
:100910001F93CF93DF937C01CB018A012091F601D5
:10092000222389F0EB016B01C40ED51ECC15DD0529
:1009300069F06991D701ED91FC910190F081E02D72
:10094000C7010995F3CF642F0E941303C801DF91FB
:10095000CF911F910F91FF90EF90DF90CF9008956E
:10096000CF93DF931F92CDB7DEB769832091F60155
:100970002223F9F020911902203258F021E030E0D2
:10098000FC013383228390E080E00F90DF91CF91D0
:1009900008958091F701E82FF0E0E850FE4F99812B
:1009A00090838F5F8093F7018093190281E090E03C
:1009B000ECCF61E0CE0101960E941303F7CF682FC0
:1009C00089EB92E00C94B00490E080E00895CF921F
:1009D000DF92EF92FF920F931F93CF93DF93D82F65
:1009E0000E94EE026B017C018091F001811165C0D3
:1009F000CD2F81E08093F0018093EF019FEF9093E2
:100A0000EE011092ED019D0F9093EC018093CB01CC
:100A10008091CB01806D8093CB018091CA018130A0
:100A200009F07FC01092CA010E94EE026B017C01A6
:100A30008091CB018093BB008091F2019091F301F2
:100A4000A091F401B091F501892B8A2B8B2BA1F099
:100A50000E94EE020091F2011091F3012091F40145
:100A60003091F5016C197D098E099F09061717074A
:100A70002807390708F442C08091BC0083FDD8CF15
:100A800085EC8093BC000E94EE026B017C0180919A
:100A9000F001813009F447C08091ED018D1710F409
:100AA000C091ED01ACECB1E0EAEAF1E080E08C1736
:100AB00051F19D9191938F5FFACF8091F2019091C6
:100AC000F301A091F401B091F501892B8A2B8B2BB6
:100AD00009F48ACF0E94EE020091F2011091F30115
:100AE0002091F4013091F5016C197D098E099F095F
:100AF000061717072807390708F076CF8091F1010C
:100B00000E945803C0E01092A901C093A8018C2F45
:100B1000DF91CF911F910F91FF90EF90DF90CF90D9
:100B2000089585EEAECF8091F2019091F301A091EE
:100B3000F401B091F501892B8A2B8B2B09F4A7CFF7
:100B40000E94EE020091F2011091F3012091F40154
:100B50003091F5016C197D098E099F090617170759
:100B60002807390708F093CFC9CFFC0124813581CC
:100B7000232B49F06AE371E0808191810E94F01596
:100B800021E0892B09F020E0822F0895FC0180816B
:100B90009181009711F00C94E80F60E070E0CB01B8
:100BA00008950F931F93CF93DF938C01EB01FC010A
:100BB000808191810097E1F06881798161157105EB
:100BC000A9F0428153812C813D814217530770F077
:100BD0000E94F9158C819D81F801958384831D8283
:100BE0001C82DF91CF911F910F9108950E94A11453
:100BF00088819981F801918380838A819B81938385
:100C000082838C819D8195838483198218821B82C3
:100C10001A82E5CFCF93DF93EC0188819981009709
:100C200011F00E94A114198218821D821C821B825D
:100C30001A82DF91CF910895FC0180819181009704
:100C400011F00C94A11408950F931F93CF93DF9389
:100C5000EC0188819981009759F02A813B81261700
:100C6000370730F081E0DF91CF911F910F91089508
:100C70008B016F5F7F4F0E942A15009759F099836F
:100C800088831B830A832C813D81232B59F7FC0128
:100C90001082E8CF80E0E7CFEF92FF920F931F938F
:100CA000CF93DF93EC01FB01E080F180E114F104CC
:100CB00011F10481158101151105A9F08C819D8127
:100CC000080F191FB801CE010E942406882399F04D
:100CD000288139818C819D81B701820F931F0E94E9
:100CE000F9151D830C83CE01DF91CF911F910F91D8
:100CF000FF90EF900895CE010E940A06F4CFEF9284
:100D0000FF920F931F93CF93DF93EC017B018A0136
:100D1000BA010E94240681110BC0CE010E940A066E
:100D2000CE01DF91CF911F910F91FF90EF90089529
:100D30001D830C83B701888199810E94F915F0CF3A
:100D4000FB0101900020E9F73197AF01461B570BDB
:100D50000C947F060F931F93CF93DF93CDB7DEB72D
:100D600062970FB6F894DEBF0FBECDBF8C01FC01B9
:100D70001182108213821282158214824AE0BE010F
:100D80006F5F7F4F90E080E00E940F10BE016F5FA9
:100D90007F4FC8010E94A00662960FB6F894DEBF8E
:100DA0000FBECDBFDF91CF911F910F9108950F938B
:100DB0001F93CF93DF93CDB7DEB7A2970FB6F8940A
:100DC000DEBF0FBECDBF8C01CB01BA01F80111828D
:100DD000108213821282158214822AE0AE014F5FC4
:100DE0005F4F0E941A10BE016F5F7F4FC8010E94C3
:100DF000A006A2960FB6F894DEBF0FBECDBFDF915E
:100E0000CF911F910F9108950F931F93CF93DF936D
:100E1000CDB7DEB729970FB6F894DEBF0FBECDBFB2
:100E20008C01862FF80111821082138212821582A2
:100E300014824AE0BE016F5F7F4F90E00E94601015
:100E4000BE016F5F7F4FC8010E94A00629960FB6B2
:100E5000F894DEBF0FBECDBFDF91CF911F910F91F0
:100E60000895CF93DF93EC01FB018617970749F0B4
:100E7000608171816115710541F0448155810E9445
:100E80007F06CE01DF91CF9108950E940A06F9CF27
:100E9000FC01118210821382128215821482FB01DE
:100EA00001900020E9F73197AF01461B570B0C94D6
:100EB0007F06AF92BF92CF92DF92EF92FF920F9395
:100EC0001F93CF93DF936C015B017A018901241793
:100ED000350720F48F2D7901042F182F6EE371E070
:100EE000C6010E944807D5011496CD91DC91EC16FD
:100EF000FD06E0F40C171D0708F4E801D501ED919B
:100F0000FC911197EC0FFD1F108110826D917C9167
:100F10006E0D7F1DC60161157105A1F00E94A0062E
:100F2000F50180819181C80FD91F1883C601DF9117
:100F3000CF911F910F91FF90EF90DF90CF90BF90D6
:100F4000AF9008950E940A06EBCF0F931F93CF93A3
:100F5000DF9300D000D000D0CDB7DEB784E10E948F
:100F60006602019789F581ED92E00E94C605AB010A
:100F7000BC014F5F5F4F6F4F7F4FCE0101960E94C4
:100F8000D706BE016F5F7F4F81ED92E00E94D105D1
:100F9000CE0101960E941C0681ED92E00E94C605DA
:100FA00068317105810591057CF0CE0101960E94A2
:100FB000AA06BE016F5F7F4F81ED92E00E94D105CE
:100FC000CE0101960E941C0685E10E9466020197EF
:100FD00089F58BEC92E00E94C605AB01BC014F5F26
:100FE0005F4F6F4F7F4FCE0101960E94D706BE0123
:100FF0006F5F7F4F8BEC92E00E94D105CE0101968E
:101000000E941C068BEC92E00E94C6056C337105B1
:10101000810591057CF0CE0101960E94AA06BE01D1
:101020006F5F7F4F8BEC92E00E94D105CE0101965D
:101030000E941C0681ED92E00E94C6056A3071058F
:1010400081059105ACF46AE371E0CE0101960E943E
:10105000480761ED72E0CE0101960E944C06BC018A
:1010600081ED92E00E943107CE0101960E941C069C
:101070008BEC92E00E94C6056A30710581059105EE
:10108000ACF46AE371E0CE0101960E9448076BEC74
:1010900072E0CE0101960E944C06BC018BEC92E0FE
:1010A0000E943107CE0101960E941C0670E060E0AC
:1010B00081ED92E00E941D01FC01108161E070E071
:1010C00081ED92E00E941D01FC018081805310534C
:1010D0000AE0109F800D112480931B0270E060E0F5
:1010E0008BEC92E00E941D01FC01108161E070E038
:1010F0008BEC92E00E941D01FC0180818053105313
:10110000109F800D112480931A0226960FB6F89432
:10111000DEBF0FBECDBFDF91CF911F910F9108951C
:1011200085ED8093BC008091F2019091F301A09134
:10113000F401B091F5010796A11DB11D23E0B6950C
:10114000A795979587952A95D1F72091BC0024FD06
:1011500003C01092F00108954091F2015091F30103
:101160006091F4017091F501452B462B472B69F3F3
:101170000097A105B10541F025E32A95F1F700009C
:101180000197A109B109E1CF8091F1010C945803B5
:101190001F920F920FB60F9211242F933F934F93EC
:1011A0005F936F937F938F939F93AF93BF93EF93CF
:1011B000FF938CE192E00E94AE01FF91EF91BF910D
:1011C000AF919F918F917F916F915F914F913F91DF
:1011D0002F910F900FBE0F901F9018951F920F9296
:1011E0000FB60F9211242F938F939F93EF93FF933A
:1011F000E0912C02F0912D028081E0913202F09179
:10120000330282FD1BC09081809135028F5F8F7306
:1012100020913602821741F0E0913502F0E0E45E61
:10122000FD4F958F80933502FF91EF919F918F91A4
:101230002F910F900FBE0F901F9018958081F4CFC3
:101240001F920F920FB60F9211242F933F938F93FB
:101250009F93AF93BF938091A0019091A101A09122
:10126000A201B091A3013091840123E0230F2D3717
:1012700058F50196A11DB11D209384018093A00112
:101280009093A101A093A201B093A3018091850145
:1012900090918601A0918701B09188010196A11DCE
:1012A000B11D8093850190938601A0938701B0932F
:1012B0008801BF91AF919F918F913F912F910F9096
:1012C0000FBE0F901F90189526E8230F0296A11DC0
:1012D000B11DD2CF1F920F920FB60F9211242F93F0
:1012E0003F934F935F936F937F938F939F93AF93AE
:1012F000BF93EF93FF938091B900887F803609F404
:101300004AC0F0F5883209F4A7C018F5803109F415
:101310009BC0B8F4882309F4F9C0883009F494C05C
:10132000FF91EF91BF91AF919F918F917F916F91BD
:101330005F914F913F912F910F900FBE0F901F9093
:101340001895883109F488C0803251F78093EE01F6
:1013500014C0803409F49DC040F48033B9F388335D
:10136000F9F68093EE0185ECB0C0803509F485C0B4
:10137000883509F496C0883499F60E949008D0CF39
:10138000883909F48CC038F5883729F050F488364C
:1013900011F0803729F683E08093F00110928301E9
:1013A00057C0883809F47BC0803919F0803809F0BB
:1013B000B7CF80918301803208F071C0E091830142
:1013C00081E08E0F809383018091BB00F0E0ED59A6
:1013D000FE4F80833DC0803B39F0E0F4803A09F451
:1013E00079C0883A09F09CCF84E08093F001109294
:1013F000620110926101E0918C01F0918D010995DB
:101400008091610181110FC081E080936101109290
:10141000410109C0803C09F4A6CF883C09F4A3CF60
:10142000883B09F07DCFE091620181E08E0F8093CF
:101430006201F0E0EF5BFE4F80818093BB009091F2
:1014400062018091610129C08091CB018093BB0032
:1014500085EC8093BC0064CF9091ED018091EC010C
:10146000981758F5E091ED0181E08E0F8093ED0122
:10147000F0E0E453FE4F8081E9CFE091ED0181E09F
:101480008E0F8093ED018091BB00F0E0E453FE4F9E
:1014900080839091ED018091EC019817C8F285E866
:1014A000D8CFE091ED0181E08E0F8093ED01809126
:1014B000BB00F0E0E453FE4F80838091EF01811187
:1014C0005CCF81E08093CA0184EA8093BC001092D3
:1014D000F00126CF85EC8093BC001092F001809142
:1014E0008301803230F4E0918301F0E0ED59FE4F4A
:1014F00010826091830170E0E0918A01F0918B018C
:1015000083E691E00995109283010ACF1092EE01D3
:1015100034CFECE1F2E01382128288EE93E0A0E097
:10152000B0E084839583A683B78328E131E03183DB
:10153000208325EC30E03587248724EC30E03787A2
:10154000268720EC30E0318B208B21EC30E0338B90
:10155000228B22EC30E0358B248B26EC30E0378B6D
:10156000268B118E128E138E148EE9EBF2E013820D
:10157000128284839583A683B7838AE291E0918364
:1015800080836EE371E081ED92E00E9448076EE394
:1015900071E08BEC92E00E9448076EE371E085EC0D
:1015A00092E00C944807CF93DF93CDB7DEB7CF54CA
:1015B000D1090FB6F894DEBF0FBECDBF789484B5C5
:1015C000826084BD84B5816084BD85B5826085BD3F
:1015D00085B5816085BD80916E00816080936E00CD
:1015E00010928100809181008260809381008091BF
:1015F0008100816080938100809180008160809370
:1016000080008091B10084608093B1008091B0002F
:1016100081608093B00080917A00846080937A002A
:1016200080917A00826080937A0080917A00816054
:1016300080937A0080917A00806880937A0010927B
:10164000C1001092A9011092A8011092F701109206
:1016500019020E943A038BE191E090938D018093EF
:101660008C018CE191E090938B0180938A01E09151
:101670002C02F0912D0282E08083E0912802F0910B
:1016800029021082E0912A02F0912B028FEC8083D4
:1016900010923402E0913002F091310286E08083B2
:1016A000E0912E02F0912F02808180618083E09191
:1016B0002E02F0912F02808188608083E0912E02BB
:1016C000F0912F02808180688083E0912E02F0915A
:1016D0002F0280818F7D808361E089E00E94BD02BE
:1016E00061E08AE00E94BD0261E08BE00E94BD02E1
:1016F00061E08CE00E94BD0261E08DE00E94BD02CD
:1017000061E08EE00E94BD0261E08FE00E94BD02B8
:1017100061E082E00E94BD0261E083E00E94BD02C0
:1017200061E084E00E94BD0261E085E00E94BD02AC
:1017300061E086E00E94BD0261E087E00E94BD0298
:1017400061E088E00E94BD0260E084E10E94BD0289
:1017500060E085E10E94BD0288E60E940A0182E005
:1017600090E00E94DF040E94790381E090E00E94F3
:10177000E70489EB92E00E947004182F88E60E942B
:101780000A0182E090E00E94DF04612F6F7B89EB09
:1017900092E00E94B0040E94790306E011E0D801B3
:1017A0008C910E5F1F4F60E00E948F02B1E0043108
:1017B0001B07A9F73AE0F32E40E0242E40E0342E38
:1017C00088E60E940A0182E090E00E94DF040E9405
:1017D000790381E090E00E94E70489EB92E00E94A7
:1017E000700421E0AC014074552786FF20E020936F
:1017F0009F01282F22952F70682F6F70452B09F4B9
:10180000C4C185FB882780F980939E0121702F9D9C
:10181000600D1124CE0101960E940407BE016F5F86
:101820007F4F81ED92E00E94D105CE0101960E948A
:101830001C0688E60E940A0181E090E00E94DF0415
:101840000E94790381E090E00E94E70489EB92E036
:101850000E947004982F92959F708F70682F9F9DA3
:10186000600D1124CE0101960E940407BE016F5F36
:101870007F4F8BEC92E00E94D105CE0101960E9431
:101880001C0688E60E940A0181E190E00E94DF04C4
:101890000E94790382E090E00E94E7049091A80101
:1018A0008091A901981709F472C189EB92E00E9416
:1018B0007004182F89EB92E00E94700460961FAFAD
:1018C00060972F961FAE2F97BC01607C772760969C
:1018D000EEADFFAD60976E2B7F2B072E000C880BB3
:1018E000990B0E94C31220E030E040E85BE30E94C5
:1018F000FE121BA21AA21DA21CA21FA21EA28E01D2
:101900000F5F1F4F22E044E00E94CA0F009709F4C6
:1019100043C1BC01CE0182960E94A006BE016E5D4D
:101920007F4F85EC92E00E94D105CE0182960E9405
:101930001C0681ED92E00E94B505882309F431C1AF
:1019400069E371E081ED92E00E94A0068BEC92E0E9
:101950000E94B505882309F444C169E371E08BEC6A
:1019600092E00E94A00685EC92E00E94B5058823D3
:1019700009F457C168E371E085EC92E00E94A0068B
:101980001A8219821C821B821E821D8261ED72E006
:10199000CE0101960E9431076BEC72E0CE010196F8
:1019A0000E944C0665EC72E00E944C0628961FAE21
:1019B0001EAE28972A961FAE1EAE2A972C961FAEF3
:1019C0001EAE2C97BC01CE018A5B9F4F0E9431074F
:1019D000CE0101960E941C062C964EAD5FAD2C9751
:1019E00028966EAD7FAD28978CE192E00E94300181
:1019F00042E050E06CE371E08CE192E00E94300143
:101A000021E030E050E040E0BE016A5B7F4FCE0154
:101A1000805C9F4F0E945907CE01805C9F4F0E94BF
:101A2000C605709391016093900122E030E041E09F
:101A300050E0BE016A5B7F4FCE01CA960E945907F3
:101A4000CE01CA960E94C6057093930160939201DD
:101A500023E030E042E050E0BE016A5B7F4FCE0100
:101A6000C4960E945907CE01C4960E94C605709381
:101A700095016093940124E030E043E050E0BE0122
:101A80006A5B7F4FCE018E960E945907CE018E96DB
:101A90000E94C605709397016093960125E030E09F
:101AA00044E050E0BE016A5B7F4FCE0188960E9401
:101AB0005907CE0188960E94C605709399016093DC
:101AC000980126E030E045E050E0BE016A5B7F4FC0
:101AD000CE0182960E945907CE0182960E94C605C9
:101AE00070939B0160939A0127E030E046E050E05C
:101AF000BE016A5B7F4FCE0101960E945907CE015D
:101B000001960E94C60570939D0160939C0180E937
:101B100091E02E969FAF8EAF2E9726E0C22E21E049
:101B2000D22E10E000E060E08FE00115110519F001
:101B3000F601329780810E948F02D6018C91B2E02B
:101B4000CB0ED11C61E00E948F022E96AEADBFADD0
:101B50002E97ED91FD912E96BFAFAEAF2E97F093DD
:101B60008F01E0938E01EA30F10508F09EC0E55444
:101B7000F24F0C94FF13390E320F480F620F740F9F
:101B8000820F940FAA0FAC0FB20F237040CE60E00B
:101B90007CE38CE196ECADCECE0182960E940A06E3
:101BA000BDCE81ED92E00E94C6056A3071058105C7
:101BB00091050CF0CBCE6AE371E0CE0101960E9454
:101BC000480761ED72E0CE0101960E944C06BC010F
:101BD00081ED92E00E943107CE0101960E941C0621
:101BE000B5CE8BEC92E00E94C6056A307105810586
:101BF00091050CF0B8CE6AE371E0CE0101960E9427
:101C000048076BEC72E0CE0101960E944C06BC01C5
:101C10008BEC92E00E943107CE0101960E941C06D7
:101C2000A2CE85EC92E00E94C6056A30710581055E
:101C30009105B4F469E371E0CE0101960E94480772
:101C400065EC72E0CE0101960E944C06BC0185EC69
:101C500092E00E943107CE0101960E941C0690CEB0
:101C600064367105810591050CF08ACE6AE371E056
:101C7000E3CF61E082E00E948F0261E083E00E9496
:101C80008F0261E084E00E948F0261E085E00E94A3
:101C90008F0261E086E00E948F0261E087E00E948F
:101CA0008F0260E088E00E948F020E94EE024B01EA
:101CB0005C019AE0492E512C612C712C0E94EE029D
:101CC000681979098A099B09683E73408105910565
:101CD000A8F3B1E04B1A510861087108E8EE8E0EC6
:101CE000E3E09E1EA11CB11C411451046104710467
:101CF00029F70F5F1F4F0730110509F014CFCE01F0
:101D000001960E941C06CE0182960E941C06CE01FE
:101D100088960E941C06CE018E960E941C06CE015B
:101D2000C4960E941C06CE01CA960E941C06CE01D3
:101D3000805C9F4F0E941C06CE018A5B9F4F0E94D1
:101D40001C0684E10E946602019709F06FC02FB75C
:101D5000F8948091A0019091A101A091A201B0916D
:101D6000A3012FBF4091A4015091A5016091A6014C
:101D70007091A70184179507A607B70708F056C00A
:101D80002FB7F8948091A0019091A101A091A20198
:101D9000B091A3012FBF8C509E4FAF4FBF4F809388
:101DA000A4019093A501A093A601B093A7010E945E
:101DB000A50700911B0288E60E940A0182E090E0DC
:101DC0000E94DF040E94790381E090E00E94E70412
:101DD00089EB92E00E94700486FFC6C021E00C30BF
:101DE00008F420E00C3008F00C50011101C00CE0A8
:101DF000802F6F2D0E94F3138295807F980F30E023
:101E000085E0220F331F8A95E1F7122F1064192BFA
:101E100088E60E940A0182E090E00E94DF04612FC0
:101E200089EB92E00E94B0040E94790385E10E9450
:101E30006602019759F48FB7F8944091A001509130
:101E4000A1016091A2017091A3018FBF21143104FF
:101E500009F4B6CC0E949A01882309F4B1CC0E94FF
:101E60000000AECC60E082E00E948F0261E083E07F
:101E70000E948F0261E084E00E948F0260E085E0B2
:101E80000E948F0260E086E00E948F0260E006CF31
:101E900061E082E00E948F0261E083E00E948F0295
:101EA00060E084E00E948F0261E085E00E948F0282
:101EB00061E086E00E948F0260E087E00E948F026E
:101EC00061E0F0CE61E082E00E948F0261E083E099
:101ED0000E948F0261E084E00E948F0261E085E051
:101EE0000E948F0260E0E5CF60E082E00E948F02F6
:101EF00061E083E00E948F0261E084E00E948F0233
:101F000060E00DC061E082E00E948F0260E083E04B
:101F10000E948F0261E084E00E948F0261E085E010
:101F20000E948F0260E011C061E082E00E948F0297
:101F300060E083E00E948F0261E084E00E948F02F3
:101F400061E085E00E948F0261E086E00E948F02DE
:101F500061E0B3CF61E087CF61E082E00E948F0251
:101F600061E0E7CF61E0C1CF802F6F2D0E94F313B6
:101F7000182F1295107F190F1F7B4ACF85EC92E026
:101F80000E941C068BEC92E00E941C0681ED92E000
:101F90000C941C06EF920F931F93CF93DF93E801ED
:101FA00034E047FD34E1042E000C550B57FF03C00D
:101FB000519541955109E32E022F242FAE010E9425
:101FC0007A10CE01DF91CF911F910F91EF9008957C
:101FD0001F93FC0199278827BC01E89411911032C6
:101FE000E9F3193010F01E30C8F31B3251F01D32E6
:101FF00049F4689406C00E942910610F711D811D6B
:10200000911D119110531A30B0F33EF490958095C4
:10201000709561957F4F8F4F9F4F1F910895BB27FC
:102020004A3031F4992322F4BDE2909581959F4F77
:102030000C946110BB272A3051F4992342F4BDE27D
:1020400090958095709561957F4F8F4F9F4F0C9421
:102050003F10592F482F372F262F660F771F881FC5
:10206000991F660F771F881F991F620F731F841FA8
:10207000951F660F771F881F991F0895BB27FA01C8
:10208000A62F6217710581059105330B30FB66F0B1
:10209000AA27660F771F881F991FAA1FA21710F083
:1020A000A21B63953850A9F7A05DAA3308F0A95D7B
:1020B000A19336F7B111B1931082CA010C94B112F9
:1020C000BB27FB015527AA27880F991FAA1FA41712
:1020D00010F0A41B83955051B9F7A05DAA3308F006
:1020E000A95DA193009779F7B111B1931192CB013A
:1020F0000C94B112A9E0B0E0E0E8F0E10C94C21356
:102100006A01F22EB02E102FFBE3AF2EA01608F4BA
:102110001BE31F5F012F27E0AE014F5F5F4F0E945F
:10212000D911BC018981982F9970913009F43FC071
:102130009BE2E1FC04C09E2D9170E0FC3AC05E2D54
:102140005071E82FE87083FF46C084E0911101C010
:1021500083E0EF2DE81B8F1508F0E0E0D6018E2F0D
:1021600020E2552351F1992329F0D6019C93C60111
:1021700001966C0196012D5F3F4FE2FE24C08EE474
:10218000D6018C9391E411969C93119712968C939F
:10219000D9018E2F90E281111BC0E20FF32FF11DA8
:1021A00010828EEF9FEF2996ECE00C94DE139DE2F7
:1021B000C6CF90E2C4CF2D9381508111FCCFCE0EBB
:1021C000D11CE0E0D0CF8EE6D6018C9391E6DBCF38
:1021D0009D938150E0CF482F447082FF3DC084E042
:1021E000911101C083E08F1510F4EF2DE81BD6018B
:1021F0008E2F20E2552309F1992329F0D6019C93D3
:10220000C60101966C0196012D5F3F4FE2FE1BC097
:1022100089E4D6018C938EE411968C93119786E411
:1022200012968C93D9018E2F90E2882309F4B5CFB2
:102230009D938150FACF2D9381508111FCCFCE0E0A
:10224000D11CE0E0D9CF89E6D6018C938EE61196B9
:102250008C93119786E6E4CF9B0177FF02C030E0B4
:1022600020E0A1E0B0E0911102C0B0E0A0E0F901EF
:102270003196AE0FBF1F8B2C912CBB2009F461C08F
:102280005401EFEFAE1ABE0AAA0DBB1DFA161B06CB
:1022900019F014F04F2D4A1B511188C0E3FC59C0AE
:1022A0007601A42FB0E2A1114FC0C40ED11C992316
:1022B00009F45BC040E0D6011196F60190836D01F0
:1022C000552309F448C0012F060F9A81582F5071E9
:1022D00084FF03C0913309F4015010160CF047C07D
:1022E000093008F008E0EEE2FE2E5B01A01AB1080A
:1022F00085019194819491082F3F320729F4D601EA
:10230000FC92F60131966F016217730794F1021780
:1023100013077CF5DB01A21BB30BAA24A394B12CF9
:10232000AC0EBD1EAA0DBB1D11968C91215031091A
:10233000D601119628153905F4F0F60180836D0158
:10234000DBCFB12CA12CA0CFF701B1937F01A1501D
:10235000AACF9111B0CFD601942F50E302C05D9364
:1023600091509111FCCFC40ED11C40E0ACCF01E0E4
:10237000BACF80E3DBCF6217730731F4963388F46A
:10238000953311F4552369F0F6018083FD01842F04
:1023900090E2811108C0A40FB11D1C9290E080E072
:1023A00002CF81E3F1CF91938150F3CF911183CF8D
:1023B0008ACF283008F027E03327DA01990F311D42
:1023C00087FD916000966105710539F432602E5FDA
:1023D0003D9330E32A95E1F708959F3F30F0803830
:1023E0007105610509F03C5F3C5F3D93913008F059
:1023F0008068911DDF93CF931F930F93FF92EF920D
:10240000192F987F9695E92F96959695E90FFF27B6
:10241000EE53FF4F99273327EE24FF24A701E7014E
:1024200005900894079428F4360FE71EF81E491FFC
:10243000511D660F771F881F991F0694A1F70590FD
:10244000079428F4E70EF81E491F561FC11D770F89
:10245000881F991F661F0694A1F70590079428F41A
:10246000F80E491F561FC71FD11D880F991F661FE1
:10247000771F0694A1F70590079420F4490F561F83
:10248000C71FD81F990F661F771F881F0694A9F7CB
:1024900084911095177041F0D695C795579547953B
:1024A000F794E7941A95C1F7E8E6F0E06894159080
:1024B000159135916591959105907FE27395E1189D
:1024C000F10A430B560BC90BD009C0F7E10CF11E02
:1024D000431F561FC91FD01D7EF4703311F48A9517
:1024E000E6CFE894015030F0080F0AF400270217F5
:1024F00008F4202F2395022F7A3328F079E37D9377
:102500002A95E9F710C07D932A9589F60694979548
:102510006795379517951794E118F10A430B560BF9
:10252000C90BD00998F023957E9173957A3308F002
:1025300070E37C932013B8F77E9170617D9330F047
:10254000839571E37D9370E32A95E1F71124EF9071
:10255000FF900F911F91CF91DF91992787FD909563
:102560000895DC01FC01672F71917723E1F7329721
:1025700004C07C916D9370836291AE17BF07C8F35E
:102580000895E89409C097FB3EF490958095709566
:1025900061957F4F8F4F9F4F9923A9F0F92F96E9AF
:1025A000BB279395F695879577956795B795F11124
:1025B000F8CFFAF4BB0F11F460FF1BC06F5F7F4FC1
:1025C0008F4F9F4F16C0882311F096E911C07723D3
:1025D00021F09EE8872F762F05C0662371F096E8DC
:1025E000862F70E060E02AF09A95660F771F881FAB
:1025F000DAF7880F9695879597F908950E94111339
:102600000C9482130E94741338F00E947B1320F004
:10261000952311F00C946B130C94711311240C94EA
:10262000B6130E94931370F3959FC1F3950F50E07A
:10263000551F629FF001729FBB27F00DB11D639F74
:10264000AA27F00DB11DAA1F649F6627B00DA11D1A
:10265000661F829F2227B00DA11D621F739FB00DC0
:10266000A11D621F839FA00D611D221F749F332730
:10267000A00D611D231F849F600D211D822F762FC9
:102680006A2F11249F5750409AF0F1F088234AF0A6
:10269000EE0FFF1FBB1F661F771F881F9150504012
:1026A000A9F79E3F510580F00C946B130C94B61360
:1026B0005F3FE4F3983ED4F3869577956795B79599
:1026C000F795E7959F5FC1F7FE2B880F911D9695B3
:1026D000879597F9089597F99F6780E870E060E023
:1026E00008959FEF80EC089500240A9416161706AB
:1026F00018060906089500240A94121613061406F3
:1027000005060895092E0394000C11F4882352F055
:10271000BB0F40F4BF2B11F460FF04C06F5F7F4F0D
:102720008F4F9F4F089557FD9058440F551F59F0F4
:102730005F3F71F04795880F97FB991F61F09F3FAE
:1027400079F087950895121613061406551FF2CFD7
:102750004695F1DF08C0161617061806991FF1CF27
:1027600086957105610508940895E894BB2766274E
:102770007727CB0197F908952F923F924F925F925E
:102780006F927F928F929F92AF92BF92CF92DF9281
:10279000EF92FF920F931F93CF93DF93CDB7DEB7E6
:1027A000CA1BDB0B0FB6F894DEBF0FBECDBF09947A
:1027B0002A88398848885F846E847D848C849B84D1
:1027C000AA84B984C884DF80EE80FD800C811B81DF
:1027D000AA81B981CE0FD11D0FB6F894DEBF0FBE0E
:1027E000CDBFED010895991B79E004C0991F96179C
:1027F00008F0961B881F7A95C9F780950895EE0F0B
:10280000FF1F0590F491E02D09940F931F93CF9330
:10281000DF938230910510F482E090E0E091D902DC
:10282000F091DA0230E020E0B0E0A0E0309799F4D7
:102830002115310509F44AC0281B390B2430310514
:10284000D8F58A819B816115710589F1FB0193831C
:102850008283FE0111C0408151810281138148179A
:102860005907E0F04817590799F4109761F012964C
:102870000C93129713961C933296CF01DF91CF9150
:102880001F910F9108950093D9021093DA02F4CFAB
:102890002115310551F04217530738F0A901DB012A
:1028A0009A01BD01DF01F801C1CFEF01F9CF90938B
:1028B000DA028093D902CDCFFE01E20FF31F81939C
:1028C00091932250310939832883D7CF2091D702A1
:1028D0003091D802232B41F4209102013091030161
:1028E0003093D8022093D70220910001309101014A
:1028F0002115310541F42DB73EB7409104015091A7
:102900000501241B350BE091D702F091D802E217A4
:10291000F307A0F42E1B3F0B2817390778F0AC0102
:102920004E5F5F4F2417350748F04E0F5F1F5093DF
:10293000D8024093D702819391939FCFF0E0E0E0DB
:102940009CCFCF93DF930097E9F0FC01329713827D
:102950001282A091D902B091DA02ED0130E020E0BC
:102960001097A1F420813181820F931F2091D7020B
:102970003091D8022817390709F061C0F093D802C6
:10298000E093D702DF91CF910895EA01CE17DF07D8
:10299000E8F54A815B819E0141155105B1F7E901D6
:1029A000FB83EA8349915991C40FD51FEC17FD07AA
:1029B00061F4808191810296840F951FE9019983CA
:1029C0008883828193819B838A83F0E0E0E0129682
:1029D0008D919C9113970097B9F52D913C9111978A
:1029E000CD010296820F931F2091D7023091D80219
:1029F0002817390739F6309751F51092DA021092FC
:102A0000D902B093D802A093D702BCCFD383C2839C
:102A100040815181840F951FC817D90761F44E5F1B
:102A20005F4F88819981480F591F518340838A8164
:102A30009B81938382832115310509F0B0CFF093F8
:102A4000DA02E093D9029ECFFD01DC01C0CF1382F0
:102A50001282D7CFB0E0A0E0E0E3F5E10C94BE1322
:102A60008C01009751F4CB010E9405148C01C80120
:102A7000CDB7DEB7E0E10C94DA13FC01E60FF71FE7
:102A80009C0122503109E217F30708F49DC0D901D7
:102A9000CD91DC911197C617D70798F0C530D105B5
:102AA00030F3CE0104978617970708F3C61BD70BA0
:102AB0002297C193D1936D937C93CF010E94A1146F
:102AC000D6CF5B01AC1ABD0A4C018C0E9D1EA091A5
:102AD000D902B091DA02512C412CF12CE12C109743
:102AE00031F58091D7029091D8028815990509F0A7
:102AF0005CC04616570608F058C0809100019091BE
:102B00000101009741F48DB79EB7409104015091A7
:102B10000501841B950BE817F90708F055C0F093E1
:102B2000D802E093D702F90171836083A0CF8D9121
:102B30009C91119712966C90129713967C90139714
:102B4000A815B90559F56C0142E0C40ED11CCA1490
:102B5000DB0420F1AC014A195B09DA0112961597E2
:102B600080F06282738251834083D9016D937C939C
:102B7000E114F10471F0D7011396FC93EE931297D0
:102B800076CF22968C0F9D1FF90191838083F301EC
:102B9000EFCFF093DA02E093D90269CF48165906D5
:102BA00008F42C017D01D3019ACFCB010E940514BA
:102BB0007C01009749F0AE01B8010E94E715C801F9
:102BC0000E94A114870153CF10E000E050CFFB0119
:102BD000DC0102C001900D9241505040D8F7089599
:102BE000FB01DC018D91019080190110D9F3990B43
:102BF0000895FB01DC0101900D920020E1F708959A
:102C000010E0CFEDD0E004C0FE010E94FF1321963A
:0A2C1000C03ED107C9F7F894FFCFCA
:102C1A000000DB02800009000A000B000C000D0016
:102C2A000E000F0000000000D00130015D011D02FE
:102C3A008E016C01800100000000B0048304E404EA
:102C4A006004140170046104303030000D0A000081
:00000001FF
