:100000000C945D000C9485000C9485000C94850084
:100010000C9485000C9485000C9485000C9485004C
:100020000C9485000C9485000C9439040C94850084
:100030000C9485000C94A9040C9485000C94850004
:100040000C94EF030C9485000C94BD030C9497035F
:100050000C9485000C9485000C9485000C9485000C
:100060000C9485000C94850000000008000201003B
:100070000003040700000000000000000000000072
:10008000250028002B0000000000240027002A0083
:10009000040404040404040402020202020203032E
:1000A0000303030301020408102040800102040836
:1000B0001020010204081020C00411241FBECFEF3D
:1000C000D8E0DEBFCDBF11E0A0E0B1E0E6E6F2E1AE
:1000D00002C005900D92A833B107D9F722E0A8E33A
:1000E000B1E001C01D92A433B207E1F710E0CDE505
:1000F000D0E004C02197FE010E942B09CC35D10726
:10010000C9F70E940B050C9431090C94000090E093
:10011000FC01EC55FF4F249180579F4FFC018491C7
:10012000882399F090E0880F991FFC01EA57FF4F50
:10013000A591B491FC01E458FF4F859194918FB73C
:10014000F894EC91E22BEC938FBF0895AF92BF929D
:10015000CF92DF92EF92FF920F931F93CF93DF9393
:100160006C017B018B01040F151FEB015E01AE18C2
:10017000BF08C017D10759F06991D601ED91FC91E4
:100180000190F081E02DC6010995892B79F7C50111
:10019000DF91CF911F910F91FF90EF90DF90CF9063
:1001A000BF90AF900895FC01538D448D252F30E012
:1001B000842F90E0821B930B541710F0CF96089574
:1001C00001970895FC01918D828D981761F0A28DA1
:1001D000AE0FBF2FB11D5D968C91928D9F5F9F7367
:1001E000928F90E008958FEF9FEF0895FC01918D1D
:1001F000828D981731F0828DE80FF11D858D90E08A
:1002000008958FEF9FEF0895FC01918D228D892F26
:1002100090E0805C9F4F821B91098F73992708950E
:100220008FE791E00E94040121E0892B09F420E08E
:10023000822F089580E090E0892B29F00E94100120
:1002400081110C9400000895FC01A48DA80FB92F12
:10025000B11DA35ABF4F2C91848D90E001968F73EE
:100260009927848FA689B7892C93A089B1898C910D
:10027000837080648C93938D848D981306C002885C
:10028000F389E02D80818F7D80830895EF92FF9226
:100290000F931F93CF93DF93EC0181E0888F9B8DA9
:1002A0008C8D98131AC0E889F989808185FF15C063
:1002B0009FB7F894EE89FF896083E889F989808186
:1002C0008370806480839FBF81E090E0DF91CF9155
:1002D0001F910F91FF90EF900895F62E0B8D10E077
:1002E0000F5F1F4F0F731127E02E8C8D8E110CC0E6
:1002F0000FB607FCFACFE889F989808185FFF5CF31
:10030000CE010E942401F1CFEB8DEC0FFD2FF11DEA
:10031000E35AFF4FF0829FB7F8940B8FEA89FB896D
:1003200080818062CFCFCF93DF93EC01888D8823CB
:10033000B9F0AA89BB89E889F9898C9185FD03C048
:10034000808186FD0DC00FB607FCF7CF8C9185FF2D
:10035000F2CF808185FFEDCFCE010E942401E9CF4D
:10036000DF91CF91089590E0FC01E859FF4F24916F
:10037000FC01EC55FF4F3491FC01E057FF4FE49135
:10038000EE23C9F0222339F0233001F1A8F4213003
:1003900019F1223029F1F0E0EE0FFF1FE458FF4F72
:1003A000A591B4918FB7F894EC91611126C0309566
:1003B0003E233C938FBF08952730A9F02830C9F021
:1003C000243049F7809180008F7D03C080918000A8
:1003D0008F7780938000DFCF84B58F7784BDDBCFAC
:1003E00084B58F7DFBCF8091B0008F778093B00074
:1003F000D2CF8091B0008F7DF9CF3E2BDACF089518
:1004000090E080E00895FC0101900020E9F7319729
:10041000AF01481B590BBC018CE192E00C94A60083
:100420008F929F92AF92BF920F931F93CF93DF93C0
:10043000CDB7DEB7A1970FB6F894DEBF0FBECDBF24
:1004400019A2423008F44AE08E010F5D1F4F842E3E
:10045000912CB12CA12CA50194010E940909E62F31
:10046000B901CA01EA30F4F4E05DD801EE938D01E0
:10047000232B242B252B79F790E080E0109719F09F
:10048000CD010E940302A1960FB6F894DEBF0FBE05
:10049000CDBFDF91CF911F910F91BF90AF909F90F3
:1004A0008F900895E95CE1CFCF93DF93EC0160E09A
:1004B0008E810E94B30161E08E810E94B30160E0F1
:1004C0008E810E94B3018BE891E00197F1F7DF91F3
:1004D000CF910895CF92DF92EF92FF920F931F93E7
:1004E000CF93DF936C017C0187E0E80EF11CD0E034
:1004F000C0E0062F10E0B8010C2E02C0759567957C
:100500000A94E2F76170F70181917F010E94B301C3
:100510002196C430D10579F7C601DF91CF911F91A3
:100520000F91FF90EF90DF90CF900C945402CF92F8
:10053000DF92EF92FF920F931F93CF93DF93EC0123
:10054000F62E642F8C810E94B3018D818F3F19F0AC
:1005500060E00E94B3010F2D10E08F8584FF25C05D
:100560006E0187E0C80ED11CF12CE12CB8010E2CD5
:1005700002C0759567950A94E2F76170F601819162
:100580006F010E94B301FFEFEF1AFF0A88E0E8163F
:10059000F10461F7CE01DF91CF911F910F91FF9090
:1005A000EF90DF90CF900C945402B80184E07595E1
:1005B00067958A95E1F7CE010E946A026F2DCE0100
:1005C000DF91CF911F910F91FF90EF90DF90CF902F
:1005D0000C946A0240E0682F8CE192E00C94970240
:1005E000CF93DF93623029F490912B02986090931F
:1005F0002B0260932F021092300290E4909331020C
:1006000080933202805C80933302809120020E94AA
:100610008700809121028F3F11F00E948700809116
:1006200022020E948700CCE1D2E09E012C51324090
:1006300080912B0284FD0AC084E090E02196281767
:1006400039073CF48E810E948700EFCF88E090E06C
:10065000F5CF8BE39DE00197F1F760E080912002F8
:100660000E94B30160E0809122020E94B301809158
:1006700021028F3F19F060E00E94B30180912B02AC
:1006800084FD39C063E08CE192E00E946A02CBE411
:10069000D6E4CE010197F1F763E08CE192E00E948D
:1006A0006A022197F1F763E08CE192E00E946A020E
:1006B00083E592E00197F1F762E08CE192E00E941D
:1006C0006A0280912B0280620E94EA0284E0809399
:1006D0002C028CE00E94EA0281E00E94EA028BE395
:1006E0009FE10197F1F782E080932D0286E0DF9190
:1006F000CF910C94EA0280620E94EA028BE496E4B5
:100700000197F1F780912B0280620E94EA0283E553
:1007100092E00197F1F780912B0280620E94EA0239
:10072000D0CF41E00E94970281E090E008951F92AF
:100730000F920FB60F9211242F933F934F935F9315
:100740006F937F938F939F93AF93BF93EF93FF9399
:100750008FE791E00E942401FF91EF91BF91AF914B
:100760009F918F917F916F915F914F913F912F91C9
:100770000F900FBE0F901F9018951F920F920FB6FB
:100780000F9211242F938F939F93EF93FF93E091F8
:100790008F01F09190018081E0919501F091960197
:1007A00082FD1BC09081809198018F5F8F73209193
:1007B0009901821741F0E0919801F0E0E158FE4F75
:1007C000958F80939801FF91EF919F918F912F9139
:1007D0000F900FBE0F901F9018958081F4CF1F923D
:1007E0000F920FB60F9211242F933F938F939F93E5
:1007F000AF93BF9380913D0190913E01A0913F0145
:10080000B091400130913C0123E0230F2D3758F582
:100810000196A11DB11D20933C0180933D01909351
:100820003E01A0933F01B093400180913801909127
:100830003901A0913A01B0913B010196A11DB11D72
:100840008093380190933901A0933A01B0933B0112
:10085000BF91AF919F918F913F912F910F900FBEBC
:100860000F901F90189526E8230F0296A11DB11D29
:10087000D2CF1F920F920FB60F9211242F933F9356
:100880004F935F936F937F938F939F93AF93BF9398
:10089000EF93FF934091860050918700B09B0FC06B
:1008A00041153FEF530758F481E086BB8091450125
:1008B0009091460101969093460180934501809165
:1008C000450190914601B0E0A0E0DC01992788271E
:1008D00070E060E0842B952BA62BB72B4091410153
:1008E0005091420160914301709144018093410114
:1008F00090934201A0934301B09344012091780169
:100900002F5F2C3008F020E030917701321781F012
:10091000841B950BA60BB70B34E0239FF001112429
:10092000E95BFE4F80839183A283B3832093780198
:10093000FF91EF91BF91AF919F918F917F916F91B7
:100940005F914F913F912F910F900FBE0F901F908D
:1009500018951F920F920FB60F9211248F939F93A9
:1009600080914501909146010196909346018093B4
:1009700045019F918F910F900FBE0F901F9018957A
:10098000EFE7F1E01382128288EE93E0A0E0B0E09E
:1009900084839583A683B78384E091E091838083E9
:1009A00085EC90E09587848784EC90E09787868734
:1009B00080EC90E0918B808B81EC90E0938B828B2C
:1009C00082EC90E0958B848B86EC90E0978B868B05
:1009D000118E128E138E148EECE1F2E013821282CD
:1009E00086E191E09183808385E084838FEF858326
:1009F00089E086838AE087838BE080878CE081872B
:100A00008DE082871386148615861686178661E028
:100A100080E10C94F002789484B5826084BD84B542
:100A2000816084BD85B5826085BD85B5816085BDE9
:100A300080916E00816080936E00109281008091A1
:100A40008100826080938100809181008160809329
:100A50008100809180008160809380008091B1004E
:100A600084608093B1008091B00081608093B00079
:100A700080917A00846080937A0080917A0082600D
:100A800080937A0080917A00816080937A008091CF
:100A90007A00806880937A001092C100E0918F0103
:100AA000F091900182E08083E0918F01F0919001BC
:100AB0001082E0918B01F0918C011082E0918D0108
:100AC000F0918E0180E1808310929701E091930173
:100AD000F091940186E08083E0919101F091920180
:100AE000808180618083E0919101F0919201808109
:100AF00088608083E0919101F0919201808180680B
:100B00008083E0919101F091920180818F7D8083BB
:100B100062E088E00E94F0028EE191E00E94030210
:100B2000809180008091810010928100109280005D
:100B3000109285001092840081E286BB80936F0042
:100B4000109246011092450110924101109242010B
:100B50001092430110924401109278011092770193
:100B600081EC80938100C0E0D0E080917801909189
:100B70007701891708F48CC0891B09F47EC0909115
:100B8000780180917701981709F484C021E0280F3B
:100B90002C3008F020E084E0289FF0011124E95B6C
:100BA000FE4F6081718182819381209377010E9441
:100BB000E00720917B0130917C0140917D015091B3
:100BC0007E010E94CE066B017C01C0927B01D09217
:100BD0007C01E0927D01F0927E016091790170913B
:100BE0007A016F5F7F4F70937A01609379016F3163
:100BF00071050CF442C0072E000C880B990B0E9463
:100C0000E2079B01AC01C701B6010E943F070E94A9
:100C1000B1070E94E0079B01AC0160E074E284E749
:100C20009BE40E943F076B017C01E0912F02E230C0
:100C3000A8F5E150F0E0E45EFD4F848980680E94F1
:100C4000EA02A7019601C701B6010E9404098823A0
:100C500039F184E291E00E94030280E391E00E9476
:100C6000030210927B0110927C0110927D01109280
:100C70007E0110927A0110927901209709F475CFC4
:100C80000E941001882309F470CF0E9400006DCFEC
:100C9000845F72CF6FEF7FEFCB0189CFE1E0CACFE6
:100CA0002FEF3FEF4FE75FE7C701B6010E9404094E
:100CB00081110DC02FEF3FEF4FE75FE7C701B6018E
:100CC0000E943A0718161CF488E291E0C4CF2FEF77
:100CD0003FEF4FE75FE4C701B6010E949208181684
:100CE0001CF48CE291E0B7CF2FEF3FEF4FE75FECC2
:100CF000C701B6010E943A0787FDF3CF2AE037ED1E
:100D000043EA5BE3C701B6010E94CE064B015C01DA
:100D10000E94B1076B017C010E94E0079B01AC01BE
:100D2000C501B4010E94CD064B015C014AE0C70138
:100D3000B6010E94100241E06EE28CE192E00E9456
:100D4000970220E030E040E251E4C501B4010E9486
:100D500097084B015C010E94B1076B01F12CE12C5B
:100D60004AE0C701B6010E941002C701B6010E9405
:100D7000E0079B01AC01C501B4010E94CD0620E053
:100D800030E040E251E40E9497080E94B10790E0F1
:100D900080E04AE00E94100260CF5058BB27AA278B
:100DA0000E94E5060C9458080E944A0838F00E94F8
:100DB000510820F039F49F3F19F426F40C944708A9
:100DC0000EF4E095E7FB0C944108E92F0E946908B6
:100DD00058F3BA17620773078407950720F079F470
:100DE000A6F50C948B080EF4E0950B2EBA2FA02DCF
:100DF0000B01B90190010C01CA01A0011124FF27C8
:100E0000591B99F0593F50F4503E68F11A16F040C2
:100E1000A22F232F342F4427585FF3CF46953795C1
:100E20002795A795F0405395C9F77EF41F16BA0B86
:100E3000620B730B840BBAF09150A1F0FF0FBB1F34
:100E4000661F771F881FC2F70EC0BA0F621F731F7D
:100E5000841F48F4879577956795B795F7959E3FDA
:100E600008F0B0CF9395880F08F09927EE0F97956B
:100E7000879508950E941D0808F481E008950E9456
:100E800053070C9458080E94510858F00E944A08D1
:100E900040F029F45F3F29F00C94410851110C9463
:100EA0008C080C9447080E94690868F39923B1F3F1
:100EB000552391F3951B550BBB27AA276217730780
:100EC000840738F09F5F5F4F220F331F441FAA1F14
:100ED000A9F335D00E2E3AF0E0E832D091505040D0
:100EE000E695001CCAF72BD0FE2F29D0660F771F7E
:100EF000881FBB1F261737074807AB07B0E809F064
:100F0000BB0B802DBF01FF2793585F4F3AF09E3FE8
:100F1000510578F00C9441080C948C085F3FE4F381
:100F2000983ED4F3869577956795B795F7959F5F2B
:100F3000C9F7880F911D9695879597F90895E1E077
:100F4000660F771F881FBB1F621773078407BA07D6
:100F500020F0621B730B840BBA0BEE1F88F7E09531
:100F600008950E94710888F09F5798F0B92F99272B
:100F7000B751B0F0E1F0660F771F881F991F1AF084
:100F8000BA95C9F714C0B13091F00E948B08B1E056
:100F900008950C948B08672F782F8827B85F39F055
:100FA000B93FCCF3869577956795B395D9F73EF41D
:100FB00090958095709561957F4F8F4F9F4F0895C5
:100FC000E89409C097FB3EF49095809570956195E3
:100FD0007F4F8F4F9F4F9923A9F0F92F96E9BB2799
:100FE0009395F695879577956795B795F111F8CF15
:100FF000FAF4BB0F11F460FF1BC06F5F7F4F8F4F80
:101000009F4F16C0882311F096E911C0772321F075
:101010009EE8872F762F05C0662371F096E8862F0D
:1010200070E060E02AF09A95660F771F881FDAF764
:10103000880F9695879597F90895990F0008550F91
:10104000AA0BE0E8FEEF16161706E807F907C0F04E
:1010500012161306E407F50798F0621B730B840B56
:10106000950B39F40A2661F0232B242B252B21F430
:1010700008950A2609F4A140A6958FEF811D811DD0
:10108000089597F99F6780E870E060E008959FEF0A
:1010900080EC089500240A9416161706180609060F
:1010A000089500240A9412161306140605060895DE
:1010B000092E0394000C11F4882352F0BB0F40F466
:1010C000BF2B11F460FF04C06F5F7F4F8F4F9F4FA6
:1010D000089557FD9058440F551F59F05F3F71F028
:1010E0004795880F97FB991F61F09F3F79F087958F
:1010F0000895121613061406551FF2CF4695F1DF18
:1011000008C0161617061806991FF1CF86957105A7
:10111000610508940895E894BB2766277727CB01DB
:1011200097F908950E941D0808F48FEF08950E9412
:10113000AA080C9458080E944A0838F00E945108E6
:1011400020F0952311F00C9441080C9447081124C9
:101150000C948C080E94690870F3959FC1F3950F59
:1011600050E0551F629FF001729FBB27F00DB11D2B
:10117000639FAA27F00DB11DAA1F649F6627B00DBB
:10118000A11D661F829F2227B00DA11D621F739FA4
:10119000B00DA11D621F839FA00D611D221F749FB2
:1011A0003327A00D611D231F849F600D211D822FF9
:1011B000762F6A2F11249F5750409AF0F1F0882320
:1011C0004AF0EE0FFF1FBB1F661F771F881F91504D
:1011D0005040A9F79E3F510580F00C9441080C94B3
:1011E0008C085F3FE4F3983ED4F386957795679536
:1011F000B795F795E7959F5FC1F7FE2B880F911D77
:101200009695879597F908950E941D08880B990B6C
:101210000895A1E21A2EAA1BBB1BFD010DC0AA1F37
:10122000BB1FEE1FFF1FA217B307E407F50720F04F
:10123000A21BB30BE40BF50B661F771F881F991FCA
:101240001A9469F760957095809590959B01AC0113
:10125000BD01CF010895EE0FFF1F0590F491E02D21
:061260000994F894FFCF91
:10126600000000004601A600D30093010401E2003D
:10127600F600000000009103A6000002FF0146727E
:1012860065713A006E616E00696E66006F76660083
:08129600202020202020200070
:00000001FF
