:020000040000FA
:100000000C9463000C948B000C948B000C948B006C
:100010000C948B000C948B000C948B000C948B0034
:100020000C948B000C948B000C948B000C948B0024
:100030000C948B000C948B000C948B000C948B0014
:100040000C94B60C0C948B000C94840C0C945E0CE9
:100050000C948B000C948B000C948B000C948B00F4
:100060000C94000D0C948B0000000000240027006D
:100070002A0000000000250028002B0000000008D6
:10008000000201000003040700000000000000005F
:1000900000000000230026002900040404040404D6
:1000A0000404020202020202030303030303010227
:1000B00004081020408001020408102001020408F6
:1000C00010201F0E5E1111241FBECFEFD8E0DEBF3F
:1000D000CDBF11E0A0E0B1E0EAEBFBE202C0059089
:1000E0000D92AC36B107D9F723E0ACE6B1E001C020
:1000F0001D92AB34B207E1F710E0C2E6D0E004C0D5
:100100002197FE010E94C013C136D107C9F70E9492
:10011000AF0E0C94D0150C940000CF92DF92EF92AA
:10012000FF92CF93DF93B0911003A0E08111AB2F2A
:100130008091110390E0880F991FAC0140575F4FE9
:10014000C0901603D0901703E0901803F0901903A5
:1001500030E020E0FA01C591D491E881B90190E046
:1001600080E0EB23EA130AC02F5F3F4F6C157D053B
:100170008E059F0578F36FEF7FEFCB01DF91CF9175
:10018000FF90EF90DF90CF90089580913303E6E3E6
:10019000F3E090E0891336C0ACE1B3E030E080E0FA
:1001A00040E458E063E670E8931709F45EC0E82F76
:1001B000F0E0E653FE4FE081EE2309F456C020ED57
:1001C0002E0F2A3010F50E2E000CFF0BEB51FF4FB7
:1001D00020815A962C935A9721E0280FE22FF0E0C5
:1001E000E653FE4FE081EE3249F45A962C915A972D
:1001F00020685A962C935A9722E0280F3F5F119659
:10020000822FD2CF11929F5FC5CF2FEB2E0F2A31B5
:1002100030F40E2E000CFF0BE252FF4FD9CF2FE926
:100220002E0F2A3130F40E2E000CFF0BE254FF4F3C
:10023000CFCFE03221F45A961C925A97CDCFEE32AE
:1002400021F45A967C935A97C7CFEA3221F45A96F2
:100250006C935A97C1CFEF3521F45A965C935A9715
:10026000BBCF5A964C935A97B7CF0895FC01538D44
:10027000448D252F30E0842F90E0821B930B541780
:1002800010F0CF96089501970895FC01918D828D0D
:10029000981761F0A28DAE0FBF2FB11D5D968C91A6
:1002A000928D9F5F9F73928F90E008958FEF9FEFE5
:1002B0000895FC01918D828D981731F0828DE80FA1
:1002C000F11D858D90E008958FEF9FEF0895FC015B
:1002D000918D228D892F90E0805C9F4F821B910928
:1002E0008F7399270895FC01A48DA80FB92FB11D14
:1002F000A35ABF4F2C91848D90E001968F7399275C
:10030000848FA689B7892C93A089B1898C91837039
:1003100080648C93938D848D981306C00288F38932
:10032000E02D80818F7D80830895EF92FF920F935F
:100330001F93CF93DF93EC0181E0888F9B8D8C8D91
:1003400098131AC0E889F989808185FF15C09FB785
:10035000F894EE89FF896083E889F9898081837048
:10036000806480839FBF81E090E0DF91CF911F91F7
:100370000F91FF90EF900895F62E0B8D10E00F5F18
:100380001F4F0F731127E02E8C8D8E110CC00FB6EE
:1003900007FCFACFE889F989808185FFF5CFCE0186
:1003A0000E947301F1CFEB8DEC0FFD2FF11DE35A8D
:1003B000FF4FF0829FB7F8940B8FEA89FB89808109
:1003C0008062CFCFCF93DF93EC01888D8823B9F083
:1003D000AA89BB89E889F9898C9185FD03C0808150
:1003E00086FD0DC00FB607FCF7CF8C9185FFF2CFCD
:1003F000808185FFEDCFCE010E947301E9CFDF91AF
:10040000CF91089584E492E00E94670121E0892B56
:1004100009F420E0822F089580E090E0892B29F0F4
:100420000E94020281110C9400000895089508951D
:100430000895AF92BF92CF92DF92EF92FF920F9307
:100440001F93CF93DF936C017B018B01040F151F6A
:10045000EB015E01AE18BF08C017D10759F06991D2
:10046000D601ED91FC910190F081E02DC601099536
:10047000892B79F7C501DF91CF911F910F91FF90E3
:10048000EF90DF90CF90BF90AF900895833081F0D0
:1004900028F4813099F08230A9F008958730A9F0CE
:1004A0008830C9F08430B1F4809180008F7D03C022
:1004B000809180008F7780938000089584B58F7736
:1004C00084BD089584B58F7DFBCF8091B0008F7778
:1004D0008093B00008958091B0008F7DF9CFCF93C5
:1004E000DF93282F30E0F901E458FF4F8491F901A0
:1004F000E255FF4FD491F901E656FF4FC491CC234A
:10050000A1F081110E944602EC2FF0E0EE0FFF1FD8
:10051000E057FF4FA591B491EC91ED2381E090E07D
:1005200009F480E0DF91CF91089580E090E0FACF68
:100530001F93CF93DF93282F30E0F901E458FF4F4A
:100540008491F901E255FF4FD491F901E656FF4F2E
:10055000C491CC23A9F0162F81110E944602EC2FE2
:10056000F0E0EE0FFF1FEE58FF4FA591B4918FB74B
:10057000F894EC91111108C0D095DE23DC938FBF65
:10058000DF91CF911F910895DE2BF8CFCF93DF93AA
:10059000C82FD0E080913403D81758F4ED2FF0E045
:1005A000E45EFC4F60911F0387850E949802DF5F25
:1005B000F1CFEC2FF0E0E45EFC4F60911D038781EA
:1005C000DF91CF910C949802CF93DF93C82FD0E0A6
:1005D00080913303D81758F4ED2FF0E0E45EFC4F20
:1005E00060911D0387810E949802DF5FF1CFEC2F9D
:1005F000F0E0E45EFC4F60911F038785DF91CF91AF
:100600000C9498021F93CF93DF93C82FD0E0C45E61
:10061000DC4F60911C038F810E94980210E06A9663
:10062000809134031817A8F4E12FF0E0888190E05E
:10063000012E02C0959587950A94E2F780FF07C0C6
:10064000E45EFC4F60911E0387850E9498021F5F45
:10065000E7CFDF91CF911F9108950F931F93CF9311
:10066000C82FE82FF0E0E45EFC4F60911E03878501
:100670000E94980201E010E002C0000F111FCA950D
:10068000E2F7C0E080913303C81788F4EC2FF0E064
:10069000E45EFC4F828D90E080239123892B29F02A
:1006A00060911C0387810E949802CF5FEBCFCF91AE
:1006B0001F910F910895CF93DF9390E0FC01E255D5
:1006C000FF4F249186569F4FFC0184918823C9F0E7
:1006D00090E0880F991FFC01E859FF4FA591B49154
:1006E000FC01EE58FF4FC591D49161110DC09FB729
:1006F000F8948C91209582238C93888128232883D9
:100700009FBFDF91CF910895623051F49FB7F89465
:100710003C91822F809583238C93E8812E2BEFCF01
:100720008FB7F894EC912E2B2C938FBFEACF8230A9
:10073000910538F0880F991F880F991F0597019729
:10074000F1F708953FB7F8948091B5019091B60103
:10075000A091B701B091B80126B5A89B05C02F3F65
:1007600019F00196A11DB11D3FBFBA2FA92F982FD7
:100770008827BC01CD01620F711D811D911D42E0D2
:10078000660F771F881F991F4A95D1F70895CF925A
:10079000DF92EF92FF920F931F93CF9380912103EB
:1007A000811183C00E94A2034091460300913E0341
:1007B00010913F0320914003309141036B017C0174
:1007C000C01AD10AE20AF30A0091440310914503CA
:1007D000411104C00091420310914303012E000C0B
:1007E000220B330BC016D106E206F3069CF1609390
:1007F0003E0370933F0380934003909341038091A5
:1008000035032091200321112DC04423C1F0109203
:100810004603809135038F5F8093350390913403B5
:10082000891710F01092350380913503CF911F91F5
:100830000F91FF90EF90DF90CF900C942D030E94CA
:10084000E4028091440390914503892B11F381E0E8
:1008500080934603CF911F910F91FF90EF90DF900F
:10086000CF9008954423C1F0109246038091350340
:100870008F5F8093350390913303891710F01092A6
:10088000350380913503CF911F910F91FF90EF9029
:10089000DF90CF900C9402030E94C6028091440323
:1008A00090914503892B11F3D2CF80912003C0E0B2
:1008B00081111AC080913403C81760F68C2F0E94F2
:1008C0002D0380914203909143030E9497038C2F44
:1008D0000E94E4028091440390914503009711F037
:1008E0000E949703CF5FE6CF80913303C81708F0CB
:1008F000B1CF8C2F0E940203809142039091430359
:100900000E9497038C2F0E94C6028091440390910D
:100910004503009711F00E949703CF5FE5CF8F92B8
:100920009F92AF92BF92CF92DF92EF92FF924B01D4
:100930005C010E94A2036B017C010E94A2036C195E
:100940007D098E099F09683E734081059105A8F3D2
:1009500021E0821A9108A108B10888EEC80E83E050
:10096000D81EE11CF11C81149104A104B10429F7E3
:10097000FF90EF90DF90CF90BF90AF909F908F90BF
:1009800008952FB7F8946091B1017091B2018091F0
:10099000B3019091B4012FBF089520918D01260FCE
:1009A0003327331F21323105ECF420911A02FC0168
:1009B00090E080E0243069F082E00895A0918D01FC
:1009C0002191AC0143595E4FA40FB52FB11D2C935B
:1009D0000196861798F380918D01680F60938D01C1
:1009E00080E0089581E0089510921A0281E08093DA
:1009F00019021092F40161E082E10E94980261E024
:100A000083E10E949802E9EBF0E080818E7F808391
:100A100080818D7F808388E48093B80085E4809313
:100A2000BC000895CF93DF9391E090936C018823ED
:100A3000B9F0C091B800D091BA008091BC008A7B17
:100A40008093BC0060E082E10E94980260E083E154
:100A50000E9498020E94F404D093BA00C093B80098
:100A6000DF91CF910895CF92DF92EF92FF920F9393
:100A70001F93CF93DF93D091430281E0D13208F0EE
:100A80009CC0C09142020E94A2036B017C01809134
:100A90001A0281116CC082E080931A0281E0809377
:100AA00019028FEF8093180210921702D09316024A
:100AB000A2E2B2E0E6EFF1E080E0D8138DC0109240
:100AC000F5018091F501CC0FC82BC093F501809101
:100AD000F401813009F084C01092F4010E94A20355
:100AE0006B017C018091F5018093BB0080911C0219
:100AF00090911D02A0911E02B0911F02892B8A2B9A
:100B00008B2BA1F00E94A20300911C0210911D02E8
:100B100020911E0230911F026C197D098E099F09D8
:100B2000061717072807390708F442C08091BC0050
:100B300083FDD8CF85EC8093BC000E94A2036B019B
:100B40007C0180911A02823009F44CC08091180215
:100B50008F3F09F469C080911802803209F466C0A1
:100B600080911802803309F463C084E026C080912C
:100B70001C0290911D02A0911E02B0911F02892BB0
:100B80008A2B8B2B09F483CF0E94A20300911C02B5
:100B900010911D0220911E0230911F026C197D09D7
:100BA0008E099F09061717072807390708F06FCF26
:100BB00080911B020E94120585E010922102109282
:100BC000430210922002DF91CF911F910F91FF906D
:100BD000EF90DF90CF9008959D9191938F5F6DCFAF
:100BE00085EEA9CF80911C0290911D02A0911E025A
:100BF000B0911F02892B8A2B8B2B09F4A2CF0E9464
:100C0000A20300911C0210911D0220911E0230913E
:100C10001F026C197D098E099F09061717072807FF
:100C2000390708F08ECFC4CF80E0C7CF82E0C5CFB0
:100C300083E0C3CF0895E091D3018091D201E817FA
:100C400030F4F0E0EC52FE4F808190E008958FEF99
:100C50009FEF08959091D3018091D2012FEF3FEF44
:100C6000981748F4E92FF0E0EC52FE4F208130E075
:100C70009F5F9093D301C90108958091D201909113
:100C8000D301891B990B0895CF92DF92EF92FF92C7
:100C90000F931F93CF93DF937C01CB018A012091A7
:100CA0002002222389F0EB016B01C40ED51ECC1566
:100CB000DD0569F06991D701ED91FC910190F0811A
:100CC000E02DC7010995F3CF642F0E94CD04C80120
:100CD000DF91CF911F910F91FF90EF90DF90CF9018
:100CE0000895CF93DF931F92CDB7DEB7698320912C
:100CF00020022223F9F020914302203258F021E013
:100D000030E0FC013383228390E080E00F90DF919C
:100D1000CF91089580912102E82FF0E0EE5DFD4F24
:100D2000998190838F5F809321028093430281E0B9
:100D300090E0ECCF61E0CE0101960E94CD04F7CFA8
:100D4000682F81EE92E00C947106CF93C82F81E05A
:100D50008093200288E68093420210922102109232
:100D6000430281E090E00E94A0068C2F6AE00E947E
:100D7000B413682F660F680F660F6C0F81EE92E058
:100D80000E947106CF910C94330590E080E00895A5
:100D9000CF92DF92EF92FF920F931F930E94A203D4
:100DA0006B017C0180911A02811163C081E0809304
:100DB0001A02809319029FEF909318021092170263
:100DC000109216028093F5018091F501806D809359
:100DD000F5018091F401813009F07CC01092F4019A
:100DE0000E94A2036B017C018091F5018093BB00FE
:100DF00080911C0290911D02A0911E02B0911F02D1
:100E0000892B8A2B8B2BA1F00E94A20300911C023C
:100E100010911D0220911E0230911F026C197D0954
:100E20008E099F09061717072807390708F442C0DB
:100E30008091BC0083FDD8CF85EC8093BC000E94DC
:100E4000A2036B017C0180911A02813009F444C035
:100E500080911702811162C080911702A6EFB1E064
:100E6000E4EDF1E090E0981751F12D9121939F5F0F
:100E7000FACF80911C0290911D02A0911E02B091A8
:100E80001F02892B8A2B8B2B09F48CCF0E94A20383
:100E900000911C0210911D0220911E0230911F0230
:100EA0006C197D098E099F0906171707280739074E
:100EB00008F078CF80911B020E94120580E010920A
:100EC000D3018093D2011F910F91FF90EF90DF909B
:100ED000CF90089585EEB1CF80911C0290911D02B4
:100EE000A0911E02B0911F02892B8A2B8B2B09F433
:100EF000AACF0E94A20300911C0210911D02209112
:100F00001E0230911F026C197D098E099F09061778
:100F100017072807390708F096CFCCCF81E09ECF7E
:100F200081E08093200288E68093420210922102A1
:100F30001092430281E090E00E94A0060E943305D7
:100F40000E94C80681EE92E00E942A069C0194E06D
:100F5000359527959A95E1F72F703327922F990FA2
:100F6000990F291B220F820F089581E080932002A0
:100F700088E680934202109221021092430282E09E
:100F800090E00E94A0060E9433050E94C80681EEF0
:100F900092E00E942A0626E0969587952A95E1F729
:100FA00081700895CF93DF93C82F0E94B507D82F83
:100FB00081E08093200288E6809342021092210211
:100FC0001092430282E090E00E94A0068C2FD11183
:100FD00010C06AE00E94B413682F660F680F660F96
:100FE0006C0F81EE92E00E947106DF91CF910C941C
:100FF0003305CD3078F06CE00E94B413292F892F8F
:101000006AE00E94B413682F660F680F660F620FC4
:101010006066E7CF6AE00E94B413682F660F680F1E
:10102000660F6C0F6064DDCFCF930E94B507C82FA9
:1010300081E08093200288E6809342021092210290
:101040001092430282E090E00E94A0060E943305C5
:101050000E94C80681EE92E00E942A06C11110C0CB
:10106000AC0194E0559547959A95E1F74F70552757
:10107000942F990F990F491B440F840FCF91089516
:10108000482F4F79242F30E084E0359527958A95B5
:10109000E1F7822F880F880F922F981B892F880FD6
:1010A000ECCFFC0124813581232B49F069E671E006
:1010B000808191810E94B11521E0892B09F020E007
:1010C000822F0895CF93DF93C091F102D091F20265
:1010D000209729F41092C101DF91CF910895C83073
:1010E000D10510F0C8E0D0E06091ED027091EE0201
:1010F000AE0181EC91E00E94C115CF53DE4F188202
:10110000EBCFFC0180819181009711F00C946E115E
:1011100060E070E0CB0108950F931F93CF93DF93AE
:101120008C01EB01FC01808191810097E1F06881E5
:10113000798161157105A9F0428153812C813D812E
:101140004217530770F00E94BA158C819D81F801F7
:10115000958384831D821C82DF91CF911F910F9113
:1011600008950E94621488819981F8019183808397
:101170008A819B81938382838C819D8195838483E3
:10118000198218821B821A82E5CFCF93DF93EC017C
:1011900088819981009711F00E9462141982188247
:1011A0001D821C821B821A82DF91CF910895FC015F
:1011B00080819181009711F00C94621408950F932F
:1011C0001F93CF93DF93EC0188819981009759F0A9
:1011D0002A813B812617370730F081E0DF91CF91DC
:1011E0001F910F9108958B016F5F7F4F0E94EB1449
:1011F000009759F0998388831B830A832C813D8152
:10120000232B59F7FC011082E8CF80E0E7CF0F9342
:101210001F93CF93DF93EC010C811D810F5F1F4F54
:10122000B8010E94DF08882391F0288139818C81E0
:101230009D8162E671E0820F931F0E94BA151D83A3
:101240000C83CE01DF91CF911F910F910895CE01B4
:101250000E94C508F6CFEF92FF920F931F93CF9392
:10126000DF93EC01FB01E080F180E114F10411F166
:101270000481158101151105A9F08C819D81080F4C
:10128000191FB801CE010E94DF08882399F0288138
:1012900039818C819D81B701820F931F0E94BA15FD
:1012A0001D830C83CE01DF91CF911F910F91FF9091
:1012B000EF900895CE010E94C508F4CFEF92FF92FF
:1012C0000F931F93CF93DF93EC017B018A01BA0147
:1012D0000E94DF0881110BC0CE010E94C508CE011B
:1012E000DF91CF911F910F91FF90EF9008951D8393
:1012F0000C83B701888199810E94BA15F0CFFB0158
:1013000001900020E9F73197AF01461B570B0C9471
:101310005E090F931F93CF93DF93CDB7DEB7299765
:101320000FB6F894DEBF0FBECDBF8C01862FF8013B
:101330001182108213821282158214824AE0BE0149
:101340006F5F7F4F90E00E94B511BE016F5F7F4FCE
:10135000C8010E947F0929960FB6F894DEBF0FBE20
:10136000CDBFDF91CF911F910F910895CF93DF9360
:10137000EC01FB018617970749F0608171816115C7
:10138000710541F0448155810E945E09CE01DF91D3
:10139000CF9108950E94C508F9CFFC0111821082F7
:1013A0001382128215821482FB0101900020E9F75A
:1013B0003197AF01461B570B0C945E0985ED809366
:1013C000BC0080911C0290911D02A0911E02B09160
:1013D0001F020796A11DB11D23E0B695A79597950D
:1013E00087952A95D1F72091BC0024FD03C0109267
:1013F0001A02089540911C0250911D0260911E0234
:1014000070911F02452B462B472B69F30097A105CE
:10141000B10541F025E32A95F1F700000197A109F4
:10142000B109E1CF80911B020C9412058F929F921B
:10143000AF92BF92CF92DF92EF92FF920F931F93E2
:10144000CF93DF93CDB7DEB7C654D1400FB6F89433
:10145000DEBF0FBECDBF0E94C104009112031091E8
:10146000130320911403309115036B017C01C01A02
:10147000D10AE20AF30A8E010F5B1E4F20EDC2165D
:1014800027E0D206E104F10448F480911A038111A7
:10149000C2C060E070E080EC9FE7EFC06093120391
:1014A00070931303809314039093150310920D030C
:1014B00010920C0310920B0310920A03109209036E
:1014C00062E080910E030E945B0361E070E080E0C7
:1014D00090E00E948F0461E080910E030E945B0304
:1014E00060E080910E030E94980280910F03855165
:1014F0008230D8F48BE291E10197F1F762E08091BC
:101500000E030E945B0380911B0390E00E949703EF
:10151000F89480E00E948D006F3F7F4F8F4F9F4F68
:1015200059F410921A037894B4CF64E170E080E02B
:1015300090E00E948F04E2CF81E00E948D006F3F17
:101540007F4F8F4F9F4F69F3CE0101967C016C0155
:1015500080E00E948D00F601608371838283938313
:1015600081E00E948D00F6016483758386839783F2
:10157000F8E0CF0ED11C0C151D0551F7789430E022
:1015800020E0F70180809180A280B3804481558162
:1015900066817781FFEF8F169F06AF06BF0631F099
:1015A0004F3F8FEF58076807780719F410921A0316
:1015B00070CFF90193E0F595E7959A95E1F7E75F2C
:1015C000FC4F8081880F84169506A606B70608F49E
:1015D000D1C080832F5F3F4F98E0E90EF11C283285
:1015E000310579F640910D032091090380910A039A
:1015F000280F3327331F80910B03280F311D809153
:101600000C03820F932F911D99274817190671F625
:1016100081E080931A0380910F038C3009F4C6C0D7
:1016200008F0AAC08B3009F034CF60910B0370E052
:1016300090E080E00E94DF114B015C01F0900C0310
:10164000F7FE0AC0AC019B0160E070E080E89FEB10
:101650000E9411134B015C016F2D6F7070E090E0E0
:1016600080E00E94E1112DEC3CEC4CEC5DE30E942B
:101670001C12A50194010E941213F801118210821C
:1016800013821282158214820E947E13CB014AE0DB
:10169000BE016F5F7F4F0E949511BE016F5F7F4F4C
:1016A000C8010E947F09B8018FEF92E00E948C0868
:1016B000C8010E94D7080E941408682FCE01019625
:1016C0000E948909BE016F5F7F4F89EF92E00E94FF
:1016D0008C08CE0101960E94D7080E949007682FBF
:1016E000CE0101960E948909BE016F5F7F4F83EF93
:1016F00092E00E948C08CE0101960E94D7088FEFDD
:1017000092E00E945108882309F470C064E671E0F9
:101710008FEF92E00E947F0989EF92E00E945108CA
:10172000882309F48BC068E671E089EF92E00E949B
:101730007F0983EF92E00E945108882309F49EC03C
:1017400068E671E083EF92E00E947F09CA5BDE4F9A
:101750000FB6F894DEBF0FBECDBFDF91CF911F91C2
:101760000F91FF90EF90DF90CF90BF90AF909F9040
:101770008F90089581602DCF8551823008F089CEF9
:10178000F0900B036F2D70E0762F662766277F772A
:1017900080910C03682B90E080E00E94DF112DEC1B
:1017A0003CEC4CEC5DE30E941C121CC0F0900B035F
:1017B0006F2D70E090E080E00E94DF114B015C0132
:1017C00060910C036F7070E090E080E00E94E11186
:1017D0002DEC3CEC4CEC5DE30E941C12A501940145
:1017E0000E941213F7FE49CF905847CF8FEF92E037
:1017F0000E9481086A30710581059105B4F465E69F
:1018000071E0CE0101960E94CD096FEF72E0CE012A
:1018100001960E942B09BC018FEF92E00E94B6094D
:10182000CE0101960E94D70877CF643671058105F5
:1018300091050CF071CF66E671E0E3CF89EF92E09D
:101840000E9481086A307105810591050CF071CF05
:1018500069E671E0CE0101960E94CD0969EF72E060
:10186000CE0101960E942B09BC0189EF92E00E94F3
:10187000B609CE0101960E94D7085BCF83EF92E0B4
:101880000E9481086A307105810591050CF05ECFD8
:1018900069E671E0CE0101960E94CD0963EF72E026
:1018A000CE0101960E942B09BC0183EF92E00E94B9
:1018B000B609CE0101960E94D70848CF1F920F9219
:1018C0000FB60F9211242F933F934F935F936F9313
:1018D0007F938F939F93AF93BF93EF93FF9384E492
:1018E00092E00E947301FF91EF91BF91AF919F91A0
:1018F0008F917F916F915F914F913F912F910F90B9
:101900000FBE0F901F9018951F920F920FB60F9257
:1019100011242F938F939F93EF93FF93E0915402A1
:10192000F09155028081E0915A02F0915B0282FDB4
:101930001BC0908180915D028F5F8F7320915E024A
:10194000821741F0E0915D02F0E0EC5BFD4F958F76
:1019500080935D02FF91EF919F918F912F910F9056
:101960000FBE0F901F9018958081F4CF1F920F9299
:101970000FB60F9211242F933F938F939F93AF93A2
:10198000BF938091B1019091B201A091B301B09148
:10199000B4013091B00123E0230F2D3758F50196A3
:1019A000A11DB11D2093B0018093B1019093B201AC
:1019B000A093B301B093B4018091B5019091B601A9
:1019C000A091B701B091B8010196A11DB11D8093FE
:1019D000B5019093B601A093B701B093B801BF9140
:1019E000AF919F918F913F912F910F900FBE0F90CC
:1019F0001F90189526E8230F0296A11DB11DD2CF86
:101A00001F920F920FB60F9211242F933F934F9373
:101A10005F936F937F938F939F93AF93BF93EF9356
:101A2000FF938091B900887F803609F44AC0F0F5B1
:101A3000883209F4A7C018F5803109F49BC0B8F4C6
:101A4000882309F4F9C0883009F494C0FF91EF911C
:101A5000BF91AF919F918F917F916F915F914F91C6
:101A60003F912F910F900FBE0F901F9018958831C6
:101A700009F488C0803251F78093180214C0803472
:101A800009F49DC040F48033B9F38833F9F68093AC
:101A9000180285ECB0C0803509F485C0883509F49A
:101AA00096C0883499F60E94DE09D0CF883909F4AF
:101AB0008CC038F5883729F050F4883611F080371B
:101AC00029F683E080931A021092AF0157C088383C
:101AD00009F47BC0803919F0803809F0B7CF8091C4
:101AE000AF01803208F071C0E091AF0181E08E0F4C
:101AF0008093AF018091BB00F0E0E157FE4F8083FF
:101B00003DC0803B39F0E0F4803A09F479C0883A6E
:101B100009F09CCF84E080931A0210928E011092FB
:101B20008D01E091BB01F091BC01099580918D017F
:101B300081110FC081E080938D0110926D0109C069
:101B4000803C09F4A6CF883C09F4A3CF883B09F078
:101B50007DCFE0918E0181E08E0F80938E01F0E0C9
:101B6000E359FE4F80818093BB0090918E0180915C
:101B70008D0129C08091F5018093BB0085EC809395
:101B8000BC0064CF9091170280911602981758F507
:101B9000E091170281E08E0F80931702F0E0EA5087
:101BA000FE4F8081E9CFE091170281E08E0F809394
:101BB00017028091BB00F0E0EA50FE4F80839091C5
:101BC0001702809116029817C8F285E8D8CFE091E5
:101BD000170281E08E0F809317028091BB00F0E026
:101BE000EA50FE4F80838091190281115CCF81E021
:101BF0008093F40184EA8093BC0010921A0226CFED
:101C000085EC8093BC0010921A028091AF01803263
:101C100030F4E091AF01F0E0E157FE4F10826091A7
:101C2000AF0170E0E091B901F091BA018FE891E065
:101C300009951092AF010ACF1092180234CFE4E454
:101C4000F2E01382128288EE93E0A0E0B0E0848399
:101C50009583A683B78322E431E03183208325EC8A
:101C600030E03587248724EC30E03787268720EC66
:101C700030E0318B208B21EC30E0338B228B22EC57
:101C800030E0358B248B26EC30E0378B268B118EA1
:101C9000128E138E148EE1EEF2E013821282848390
:101CA0009583A683B78384E591E091838083ECE1FB
:101CB000F3E080ED97E097A386A311A610A612A6E5
:101CC000178A118E12A213A214A215A214821582D1
:101CD000A9E0B3E015961C9215978BE016968C93AD
:101CE0001697EEEAF0E0E4911796EC931797EAE97D
:101CF000F0E0E4911896EC93189740E85EE360E01A
:101D000070E01D964D935D936D937C9350970E9468
:101D1000C1040E94C104609305037093060380937D
:101D20000703909308030E94C1040E94C10467E660
:101D300071E08FEF92E00E94CD0967E671E089EFD4
:101D400092E00E94CD0967E671E083EF92E00E9485
:101D5000CD0967E671E08DEE92E00C94CD09CF934A
:101D6000DF93CDB7DEB72F970FB6F894DEBF0FBE67
:101D7000CDBF789484B5826084BD84B5816084BD14
:101D800085B5826085BD85B5816085BD80916E0019
:101D9000816080936E00109281008091810082604A
:101DA0008093810080918100816080938100809187
:101DB00080008160809380008091B1008460809376
:101DC000B1008091B00081608093B00080917A0072
:101DD000846080937A0080917A00826080937A0098
:101DE00080917A00816080937A0080917A00806887
:101DF00080937A001092C1001092D3011092D20108
:101E000010922102109243020E94F40486E192E0B3
:101E10009093BC018093BB0187E192E09093BA015B
:101E20008093B90111E01093200288E6809342026A
:101E30000E94330562E080910E030E945B030E94C2
:101E4000C104605D7740810991096093120370932A
:101E50001303809314039093150387E380931B036C
:101E600088E0E6E0F1E0DE01119601900D928A959E
:101E7000E1F787E0EEE0F1E0DE01199601900D92C6
:101E80008A95E1F710922003109221031092220309
:101E900088E08093330387E08093340310921C031F
:101EA00010931E0310931D0310921F03FE01399619
:101EB000ABE2B3E09E01205F3F4FCF0141914D93D4
:101EC0002E173F07D9F7FE013196A3E2B3E0219127
:101ED0002D93E817F907D9F710E08091330318170D
:101EE00098F4812F90E09C01245E3C4F790161E0E1
:101EF000F90187810E945B0360911D03F7018781CF
:101F00000E9498021F5FE9CF10E0809134031817F8
:101F100050F090913303E6E3F3E080E09817B1F0DE
:101F200011928F5FFBCF812F90E09C01245E3C4F8C
:101F3000790161E0F90187850E945B0360911F03CD
:101F4000F70187850E9498021F5FDFCF80E00E9423
:101F5000E40280E00E94C60288E097E09093430389
:101F6000809342031092450310924403109246035B
:101F700060E081E10E945B0360E080E10E945B031E
:101F800080E0E82E80E0F82E01E010E097E1C92E15
:101F9000D12C2BE3A22EB12C0E94C104409005034A
:101FA000509006036090070370900803461657068A
:101FB00068067906D8F50E94C10468517C4F8F4F9E
:101FC0009F4F6093050370930603809307039093DC
:101FD00008030E94160A1A8219821C821B821E8222
:101FE0001D8269EF72E0CE0101960E94B60963EF8F
:101FF00072E0CE0101960E942B096FEF72E00E9401
:102000002B090E940709BC018DEE92E00E94B609DF
:10201000CE0101960E94D7080E94620861EC71E02F
:102020008AEC91E00E94BA150E94C5000E94C70385
:1020300080E10E946F02019709F092C01092C001E6
:102040001092BF0180E10E946F02019709F073C0F6
:1020500081E10E946F020197E1F481E10E946F0229
:10206000019719F40E94C703F8CF1093C0010093A1
:10207000BF010E9414088150990B8F3F980709F403
:1020800055C09093BE018093BD018091BD010E9417
:10209000D2070E94C104409005035090060360904F
:1020A0000703709008034616570668067906D8F5A8
:1020B0000E94C10468517C4F8F4F9F4F609305036E
:1020C0007093060380930703909308030E94160AF7
:1020D0001A8219821C821B821E821D8269EF72E0A5
:1020E000CE0101960E94B60963EF72E0CE0101961F
:1020F0000E942B096FEF72E00E942B090E940709D2
:10210000BC018DEE92E00E94B609CE0101960E94BC
:10211000D7080E94620861EC71E08AEC91E00E94AD
:10212000BA150E94C5000E94C7038CCFD092BE0191
:10213000C092BD01AACF8091BF019091C001892BAF
:1021400079F40E94140890E00196883191052CF5ED
:102150009093BE018093BD018091BD010E94D20782
:1021600081E10E946F02019709F097C01092C001AF
:102170001092BF0181E10E946F02019709F078C0BF
:1021800080E10E946F02019709F580E10E946F02D1
:10219000019741F40E94C703F8CF1092BE0110923C
:1021A000BD01DACF1093C0010093BF010E949007D8
:1021B0008150990B8F3F980709F455C09093BE0149
:1021C0008093BD018091BD010E94A5060E94C104BB
:1021D0004090050350900603609007037090080339
:1021E0004616570668067906D8F50E94C10468515C
:1021F0007C4F8F4F9F4F609305037093060380932E
:102200000703909308030E94160A1A8219821C82FF
:102210001B821E821D8269EF72E0CE0101960E9430
:10222000B60963EF72E0CE0101960E942B096FEFB1
:1022300072E00E942B090E940709BC018DEE92E01A
:102240000E94B609CE0101960E94D7080E9462083A
:1022500061EC71E08AEC91E00E94BA150E94C50021
:102260000E94C70387CFB092BE01A092BD01AACF42
:102270008091BF019091C001892B79F40E94900751
:1022800090E001968C339105A4F49093BE01809365
:10229000BD018091BD010E94A506E114F10409F47D
:1022A0007BCE0E940202882309F476CE0E940000B1
:1022B00073CE1092BE011092BD01EBCF8DEE92E075
:1022C0000E94D70883EF92E00E94D70889EF92E03E
:1022D0000E94D7088FEF92E00C94D7081F93FC015F
:1022E00099278827BC01E89411911032E9F319303D
:1022F00010F01E30C8F31B3251F01D3249F46894BF
:1023000006C00E94A011610F711D811D911D1191C8
:1023100010531A30B0F33EF4909580957095619506
:102320007F4F8F4F9F4F1F910895BB274A3031F445
:10233000992322F4BDE2909581959F4F0C94B6119C
:10234000592F482F372F262F660F771F881F991F69
:10235000660F771F881F991F620F731F841F951FB9
:10236000660F771F881F991F0895BB27FB0155270C
:10237000AA27880F991FAA1FA41710F0A41B8395E2
:102380005051B9F7A05DAA3308F0A95DA193009759
:1023900079F7B111B1931192CB010C94CF11DC01FB
:1023A000FC01672F71917723E1F7329704C07C918C
:1023B0006D9370836291AE17BF07C8F30895E894D8
:1023C00009C097FB3EF490958095709561957F4F7D
:1023D0008F4F9F4F9923A9F0F92F96E9BB2793952B
:1023E000F695879577956795B795F111F8CFFAF43B
:1023F000BB0F11F460FF1BC06F5F7F4F8F4F9F4F6C
:1024000016C0882311F096E911C0772321F09EE8C9
:10241000872F762F05C0662371F096E8862F70E02F
:1024200060E02AF09A95660F771F881FDAF7880F09
:102430009695879597F908950E942F120C94A012F3
:102440000E94921238F00E94991220F0952311F008
:102450000C9489120C948F1211240C94D4120E94A3
:10246000B11270F3959FC1F3950F50E0551F629F15
:10247000F001729FBB27F00DB11D639FAA27F00DDD
:10248000B11DAA1F649F6627B00DA11D661F829F04
:102490002227B00DA11D621F739FB00DA11D621FE9
:1024A000839FA00D611D221F749F3327A00D611D06
:1024B000231F849F600D211D822F762F6A2F1124E8
:1024C0009F5750409AF0F1F088234AF0EE0FFF1F1B
:1024D000BB1F661F771F881F91505040A9F79E3F72
:1024E000510580F00C9489120C94D4125F3FE4F3F0
:1024F000983ED4F3869577956795B795F795E795C8
:102500009F5FC1F7FE2B880F911D9695879597F9D0
:10251000089597F99F6780E870E060E008959FEF65
:1025200080EC089500240A9416161706180609066A
:10253000089500240A941216130614060506089539
:10254000092E0394000C11F4882352F0BB0F40F4C1
:10255000BF2B11F460FF04C06F5F7F4F8F4F9F4F01
:10256000089557FD9058440F551F59F05F3F71F083
:102570004795880F97FB991F61F09F3F79F08795EA
:102580000895121613061406551FF2CF4695F1DF73
:1025900008C0161617061806991FF1CF8695710503
:1025A000610508940895E894BB2766277727CB0137
:1025B00097F908952F923F924F925F926F927F9278
:1025C0008F929F92AF92BF92CF92DF92EF92FF9243
:1025D0000F931F93CF93DF93CDB7DEB7CA1BDB0BEF
:1025E0000FB6F894DEBF0FBECDBF09942A88398894
:1025F00048885F846E847D848C849B84AA84B9849B
:10260000C884DF80EE80FD800C811B81AA81B981A6
:10261000CE0FD11D0FB6F894DEBF0FBECDBFED01BA
:1026200008955058BB27AA270E9429130C94A01282
:102630000E94921238F00E94991220F039F49F3FC4
:1026400019F426F40C948F120EF4E095E7FB0C9429
:102650008912E92F0E94B11258F3BA176207730763
:102660008407950720F079F4A6F50C94D3120EF4A4
:10267000E0950B2EBA2FA02D0B01B90190010C0192
:10268000CA01A0011124FF27591B99F0593F50F4AA
:10269000503E68F11A16F040A22F232F342F442702
:1026A000585FF3CF469537952795A795F0405395FA
:1026B000C9F77EF41F16BA0B620B730B840BBAF0CA
:1026C0009150A1F0FF0FBB1F661F771F881FC2F735
:1026D0000EC0BA0F621F731F841F48F48795779549
:1026E0006795B795F7959E3F08F0B0CF9395880F03
:1026F00008F09927EE0F9795879508950E94851306
:102700006894B1110C94D41208950E94B91288F003
:102710009F5798F0B92F9927B751B0F0E1F0660FA5
:10272000771F881F991F1AF0BA95C9F714C0B130E6
:1027300091F00E94D312B1E008950C94D312672F48
:10274000782F8827B85F39F0B93FCCF38695779515
:102750006795B395D9F73EF49095809570956195FE
:102760007F4F8F4F9F4F0895991B79E004C0991FA9
:10277000961708F0961B881F7A95C9F780950895DB
:10278000EE0FFF1F0590F491E02D09940F931F9316
:10279000CF93DF938230910510F482E090E0E091D6
:1027A0004903F0914A0330E020E0B0E0A0E0309728
:1027B00099F42115310509F44AC0281B390B24303E
:1027C0003105D8F58A819B816115710589F1FB017D
:1027D00093838283FE0111C0408151810281138164
:1027E00048175907E0F04817590799F4109761F016
:1027F00012960C93129713961C933296CF01DF9189
:10280000CF911F910F9108950093490310934A03AC
:10281000F4CF2115310551F04217530738F0A901C3
:10282000DB019A01BD01DF01F801C1CFEF01F9CF52
:1028300090934A0380934903CDCFFE01E20FF31F2B
:10284000819391932250310939832883D7CF2091E6
:10285000470330914803232B41F42091020130912A
:1028600003013093480320934703209100013091E6
:1028700001012115310541F42DB73EB74091040106
:1028800050910501241B350BE0914703F09148035B
:10289000E217F307A0F42E1B3F0B2817390778F037
:1028A000AC014E5F5F4F2417350748F04E0F5F1F96
:1028B0005093480340934703819391939FCFF0E057
:1028C000E0E09CCFCF93DF930097E9F0FC013297D3
:1028D00013821282A0914903B0914A03ED0130E0C6
:1028E00020E01097A1F420813181820F931F209165
:1028F0004703309148032817390709F061C0F09366
:102900004803E0934703DF91CF910895EA01CE1782
:10291000DF07E8F54A815B819E0141155105B1F75A
:10292000E901FB83EA8349915991C40FD51FEC1744
:10293000FD0761F4808191810296840F951FE90162
:1029400099838883828193819B838A83F0E0E0E08E
:1029500012968D919C9113970097B9F52D913C910A
:102960001197CD010296820F931F2091470330915A
:1029700048032817390739F6309751F510924A0362
:1029800010924903B0934803A0934703BCCFD3836D
:10299000C28340815181840F951FC817D90761F404
:1029A0004E5F5F4F88819981480F591F5183408343
:1029B0008A819B81938382832115310509F0B0CFF1
:1029C000F0934A03E09349039ECFFD01DC01C0CFA1
:1029D00013821282D7CFB0E0A0E0E1EFF4E10C94D3
:1029E000DC128C01009751F4CB010E94C6138C01BC
:1029F000C801CDB7DEB7E0E10C94F812FC01E60F98
:102A0000F71F9C0122503109E217F30708F49DC01B
:102A1000D901CD91DC911197C617D70798F0C53031
:102A2000D10530F3CE0104978617970708F3C61B2C
:102A3000D70B2297C193D1936D937C93CF010E94C2
:102A40006214D6CF5B01AC1ABD0A4C018C0E9D1EE0
:102A5000A0914903B0914A03512C412CF12CE12C57
:102A6000109731F580914703909148038815990597
:102A700009F05CC04616570608F058C08091000166
:102A800090910101009741F48DB79EB740910401E8
:102A900050910501841B950BE817F90708F055C004
:102AA000F0934803E0934703F90171836083A0CF5B
:102AB0008D919C91119712966C90129713967C9021
:102AC0001397A815B90559F56C0142E0C40ED11C45
:102AD000CA14DB0420F1AC014A195B09DA01129631
:102AE000159780F06282738251834083D9016D9380
:102AF0007C93E114F10471F0D7011396FC93EE93EB
:102B0000129776CF22968C0F9D1FF90191838083B7
:102B1000F301EFCFF0934A03E093490369CF4816DE
:102B2000590608F42C017D01D3019ACFCB010E94F4
:102B3000C6137C01009749F0AE01B8010E94A815A8
:102B4000C8010E946214870153CF10E000E050CF0B
:102B5000FB01DC0102C001900D9241505040D8F7BA
:102B60000895FB01DC018D91019080190110D9F3CA
:102B7000990B0895FB01DC0101900D920020E1F713
:102B80000895FB01DC014150504048F001900D9246
:102B90000020C9F701C01D9241505040E0F7089550
:102BA00010E0C2E6D0E004C0FE010E94C0132196EE
:102BB000C336D107C9F7F894FFCF00004B0380005C
:102BC00008090A0B0C0D0E0F010203040506073F4E
:102BD000065B4F666D7D077F6F777C395E79713D4F
:102BE00076300E763800543F7367506D783E3E0065
:102BF000766E5B00408063080000000095011902BA
:102C00003601E2016701450159010000000071062B
:102C10004406C5061A063D062A061B064300202068
:062C20002000303000002E
:107E0000112484B714BE81FFF0D085E080938100F7
:107E100082E08093C00088E18093C10086E0809377
:107E2000C20080E18093C4008EE0C9D0259A86E02C
:107E300020E33CEF91E0309385002093840096BBD3
:107E4000B09BFECF1D9AA8958150A9F7CC24DD24C4
:107E500088248394B5E0AB2EA1E19A2EF3E0BF2EE7
:107E6000A2D0813461F49FD0082FAFD0023811F036
:107E7000013811F484E001C083E08DD089C08234E0
:107E800011F484E103C0853419F485E0A6D080C0E4
:107E9000853579F488D0E82EFF2485D0082F10E0AE
:107EA000102F00270E291F29000F111F8ED06801E7
:107EB0006FC0863521F484E090D080E0DECF843638
:107EC00009F040C070D06FD0082F6DD080E0C81688
:107ED00080E7D80618F4F601B7BEE895C0E0D1E017
:107EE00062D089930C17E1F7F0E0CF16F0E7DF06D8
:107EF00018F0F601B7BEE89568D007B600FCFDCFD4
:107F0000A601A0E0B1E02C9130E011968C91119780
:107F100090E0982F8827822B932B1296FA010C0160
:107F200087BEE89511244E5F5F4FF1E0A038BF0790
:107F300051F7F601A7BEE89507B600FCFDCF97BE46
:107F4000E89526C08437B1F42ED02DD0F82E2BD052
:107F50003CD0F601EF2C8F010F5F1F4F84911BD097
:107F6000EA94F801C1F70894C11CD11CFA94CF0C13
:107F7000D11C0EC0853739F428D08EE10CD085E9AC
:107F80000AD08FE07ACF813511F488E018D01DD067
:107F900080E101D065CF982F8091C00085FFFCCF94
:107FA0009093C60008958091C00087FFFCCF809118
:107FB000C00084FD01C0A8958091C6000895E0E648
:107FC000F0E098E1908380830895EDDF803219F02E
:107FD00088E0F5DFFFCF84E1DECF1F93182FE3DFCA
:107FE0001150E9F7F2DF1F91089580E0E8DFEE27F6
:047FF000FF270994CA
:027FFE00040479
:00000001FF
