:100000000C9452000C946F000C946F000C946F00D1
:100010000C946F000C946F000C946F000C946F00A4
:100020000C946F000C946F000C946F000C94DA0029
:100030000C946F000C946F000C946F000C946F0084
:100040000C9490000C946F000C946F000C946F0053
:100050000C946F000C946F000C946F000C946F0064
:100060000C946F000C946F00000000002500280025
:100070002B0000000000240027002A0004040404D0
:100080000404040402020202020203030303030342
:10009000010204081020408001020408102001021F
:1000A0000408102011241FBECFEFD8E0DEBFCDBF63
:1000B00013E0A0E0B1E0ECE7F3E002C005900D92A0
:1000C000A037B107D9F723E0A0E7B3E001C01D9244
:1000D000AC37B207E1F70E943D010C94BC010C94CF
:1000E000000090E0FC01E057FF4F249184589F4F9F
:1000F000FC018491882399F090E0880F991FFC01FE
:10010000EE58FF4FA591B491FC01E859FF4F85913E
:1001100094918FB7F894EC91E22BEC938FBF0895F4
:100120001F920F920FB60F9211242F933F938F932C
:100130009F93AF93BF938091780390917903A0919F
:100140007A03B0917B033091770323E0230F2D379F
:1001500058F50196A11DB11D209377038093780374
:1001600090937903A0937A03B0937B0380917303F8
:1001700090917403A0917503B09176030196A11D2F
:10018000B11D8093730390937403A0937503B09390
:100190007603BF91AF919F918F913F912F910F90D7
:1001A0000FBE0F901F90189526E8230F0296A11DF1
:1001B000B11DD2CF1F920F920FB60F9211242F9321
:1001C0008F939F93EF93FF938091710390917203AC
:1001D0008A33914054F08091700310927203109210
:1001E000710391E0892780937003809170038111DE
:1001F0002BC018BCE0917103F0917203EE0FFF1F4A
:10020000E050FF4F808187BD1092B400E0917103F0
:10021000F0917203EE0FFF1FE050FF4F808180933B
:10022000B3008091710390917203019690937203D1
:1002300080937103FF91EF919F918F912F910F9078
:100240000FBE0F901F90189517BCE0917103F091AD
:100250007203EE0FFF1FE050FF4F808188BD1092A8
:10026000B300E0917103F0917203EE0FFF1FE050B5
:10027000FF4F80818093B400D4CF789484B582609E
:1002800084BD84B5816084BD85B5826085BD85B53A
:10029000816085BD80916E00816080936E001092B8
:1002A0008100809181008260809381008091810033
:1002B00081608093810080918000816080938000C4
:1002C0008091B10084608093B1008091B000816022
:1002D0008093B00080917A00846080937A0080914E
:1002E0007A00826080937A0080917A0081608093A6
:1002F0007A0080917A00806880937A001092C10021
:1003000085E00E94710086E00E94710089E00E94F1
:1003100071008AE00E947100F89414BC15BC16BCF0
:1003200091EA94BD81E085BD1092B0001092B100B9
:100330001092B2009093B0008093B10010928000B0
:100340001092810010928500109284008DEF91E050
:10035000909389008093880089E080938100809148
:100360006F00826080936F007894C0E0D0E02097A7
:0C037000F1F30E940000FBCFF894FFCFD7
:10037C0001000200050007000A000C000F0011002C
:10038C001300160018001B001E0020002200250080
:10039C0027002A002C002F003100340036003900D1
:1003AC003B003D00400042004500470049004C0026
:1003BC004E0050005300550058005A005C005E007F
:1003CC0061006300650067006A006C006E007100DC
:1003DC0073007500770079007C007E00800082003D
:1003EC008400860088008A008C008E0090009200A9
:1003FC009400960098009A009C009E00A000A20019
:10040C00A400A600A800A900AB00AD00AF00B1008D
:10041C00B200B400B600B800B900BB00BC00BE000E
:10042C00C000C100C300C400C600C700C900CA0098
:10043C00CC00CD00CF00D000D100D300D400D5002B
:10044C00D700D800D900DB00DC00DD00DE00DF00C7
:10045C00E000E100E200E300E400E500E600E70074
:10046C00E800E900EA00EB00EC00ED00ED00EE0026
:10047C00EF00F000F000F100F200F200F300F300E6
:10048C00F400F400F500F500F600F600F700F700B4
:10049C00F700F800F800F800F800F900F900F9008E
:1004AC00F900F900FF00FF00FF00FF00F900F90060
:1004BC00F900F900F900F800F800F800F800F7006E
:1004CC00F700F700F600F600F500F500F400F40074
:1004DC00F300F300F200F200F100F000F000EF0086
:1004EC00EE00ED00ED00EC00EB00EA00E900E800A6
:1004FC00E700E600E500E400E300E200E100E000D4
:10050C00DF00DE00DD00DC00DB00D900D800D70006
:10051C00D500D400D300D100D000CF00CD00CC004A
:10052C00CA00C900C700C600C400C300C100C00097
:10053C00BE00BC00BB00B900B800B600B400B200ED
:10054C00B100AF00AD00AB00A900A800A600A4004C
:10055C00A200A0009E009C009A00980096009400B7
:10056C00920090008E008C008A0088008600840027
:10057C00820080007E007C0079007700750073009B
:10058C0071006E006C006A0067006500630061001A
:10059C005E005C005A0058005500530050004E009D
:1005AC004C00490047004500420040003D003B0024
:1005BC0039003600340031002F002C002A002700AF
:1005CC002500220020001E001B001800160013003E
:1005DC0011000F000C000A000700050002000100CA
:00000001FF
