:020000040000FA
:100000000C9452000C946F000C946F000C946F00D1
:100010000C946F000C946F000C946F000C946F00A4
:100020000C946F000C946F000C946F000C94DA0029
:100030000C946F000C946F000C946F000C946F0084
:100040000C9490000C946F000C946F000C946F0053
:100050000C946F000C946F000C946F000C946F0064
:100060000C946F000C946F00000000002500280025
:100070002B0000000000240027002A0004040404D0
:100080000404040402020202020203030303030342
:10009000010204081020408001020408102001021F
:1000A0000408102011241FBECFEFD8E0DEBFCDBF63
:1000B00013E0A0E0B1E0ECE7F3E002C005900D92A0
:1000C000A037B107D9F723E0A0E7B3E001C01D9244
:1000D000AC37B207E1F70E943D010C94BC010C94CF
:1000E000000090E0FC01E057FF4F249184589F4F9F
:1000F000FC018491882399F090E0880F991FFC01FE
:10010000EE58FF4FA591B491FC01E859FF4F85913E
:1001100094918FB7F894EC91E22BEC938FBF0895F4
:100120001F920F920FB60F9211242F933F938F932C
:100130009F93AF93BF938091780390917903A0919F
:100140007A03B0917B033091770323E0230F2D379F
:1001500058F50196A11DB11D209377038093780374
:1001600090937903A0937A03B0937B0380917303F8
:1001700090917403A0917503B09176030196A11D2F
:10018000B11D8093730390937403A0937503B09390
:100190007603BF91AF919F918F913F912F910F90D7
:1001A0000FBE0F901F90189526E8230F0296A11DF1
:1001B000B11DD2CF1F920F920FB60F9211242F9321
:1001C0008F939F93EF93FF938091710390917203AC
:1001D0008A33914054F08091700310927203109210
:1001E000710391E0892780937003809170038111DE
:1001F0002BC018BCE0917103F0917203EE0FFF1F4A
:10020000E050FF4F808187BD1092B400E0917103F0
:10021000F0917203EE0FFF1FE050FF4F808180933B
:10022000B3008091710390917203019690937203D1
:1002300080937103FF91EF919F918F912F910F9078
:100240000FBE0F901F90189517BCE0917103F091AD
:100250007203EE0FFF1FE050FF4F808188BD1092A8
:10026000B300E0917103F0917203EE0FFF1FE050B5
:10027000FF4F80818093B400D4CF789484B582609E
:1002800084BD84B5816084BD85B5826085BD85B53A
:10029000816085BD80916E00816080936E001092B8
:1002A0008100809181008260809381008091810033
:1002B00081608093810080918000816080938000C4
:1002C0008091B10084608093B1008091B000816022
:1002D0008093B00080917A00846080937A0080914E
:1002E0007A00826080937A0080917A0081608093A6
:1002F0007A0080917A00806880937A001092C10021
:1003000085E00E94710086E00E94710089E00E94F1
:1003100071008AE00E947100F89414BC15BC16BCF0
:1003200091EA94BD81E085BD1092B0001092B100B9
:100330001092B2009093B0008093B10010928000B0
:100340001092810010928500109284008DEF91E050
:10035000909389008093880089E080938100809148
:100360006F00826080936F007894C0E0D0E02097A7
:10037000F1F30E940000FBCFF894FFCF01000200D0
:10038000050007000A000C000F0011001300160002
:1003900018001B001E0020002200250027002A0054
:1003A0002C002F0031003400360039003B003D00A6
:1003B000400042004500470049004C004E005000FC
:1003C0005300550058005A005C005E006100630055
:1003D000650067006A006C006E00710073007500B4
:1003E000770079007C007E00800082008400860017
:1003F00088008A008C008E00900092009400960085
:1004000098009A009C009E00A000A200A400A600F4
:10041000A800A900AB00AD00AF00B100B200B4006D
:10042000B600B800B900BB00BC00BE00C000C100EF
:10043000C300C400C600C700C900CA00CC00CD007C
:10044000CF00D000D100D300D400D500D700D80011
:10045000D900DB00DC00DD00DE00DF00E000E100B1
:10046000E200E300E400E500E600E700E800E90060
:10047000EA00EB00EC00ED00ED00EE00EF00F00014
:10048000F000F100F200F200F300F300F400F400D9
:10049000F500F500F600F600F700F700F700F800A9
:1004A000F800F800F800F900F900F900F900F90087
:1004B000FF00FF00FF00FF00F900F900F900F9005C
:1004C000F900F800F800F800F800F700F700F7006E
:1004D000F600F600F500F500F400F400F300F30078
:1004E000F200F200F100F000F000EF00EE00ED008D
:1004F000ED00EC00EB00EA00E900E800E700E600B0
:10050000E500E400E300E200E100E000DF00DE00DF
:10051000DD00DC00DB00D900D800D700D500D40016
:10052000D300D100D000CF00CD00CC00CA00C9005C
:10053000C700C600C400C300C100C000BE00BC00AC
:10054000BB00B900B800B600B400B200B100AF0003
:10055000AD00AB00A900A800A600A400A200A00066
:100560009E009C009A0098009600940092009000D3
:100570008E008C008A008800860084008200800043
:100580007E007C00790077007500730071006E00BA
:100590006C006A0067006500630061005E005C003B
:1005A0005A0058005500530050004E004C004900BE
:1005B00047004500420040003D003B003900360046
:1005C000340031002F002C002A00270025002200D3
:1005D00020001E001B0018001600130011000F0061
:0C05E0000C000A000700050002000100EA
:107800000C94343C0C94513C0C94513C0C94513CE1
:107810000C94513C0C94513C0C94513C0C94513CB4
:107820000C94513C0C94513C0C94513C0C94513CA4
:107830000C94513C0C94513C0C94513C0C94513C94
:107840000C94513C0C94513C0C94513C0C94513C84
:107850000C94513C0C94513C0C94513C0C94513C74
:107860000C94513C0C94513C11241FBECFEFD8E036
:10787000DEBFCDBF11E0A0E0B1E0ECE9FFE702C060
:1078800005900D92A230B107D9F712E0A2E0B1E065
:1078900001C01D92AD30B107E1F70E942D3D0C945F
:1078A000CC3F0C94003C982F959595959595959582
:1078B000905D8F708A307CF0282F295A8091C0000B
:1078C00085FFFCCF9093C6008091C00085FFFCCF60
:1078D0002093C6000895282F205DF0CF982F809127
:1078E000C00085FFFCCF9093C6000895EF92FF92F1
:1078F0000F931F93EE24FF2487018091C00087FD22
:1079000017C00894E11CF11C011D111D81E4E8164B
:1079100082E4F8068FE0080780E0180770F3E09132
:107920000401F091050109958091C00087FFE9CF1E
:107930008091C6001F910F91FF90EF9008950E94D3
:10794000763C982F8091C00085FFFCCF9093C600B5
:1079500091362CF490330CF09053892F089597555D
:10796000892F08951F930E949F3C182F0E949F3CCF
:107970001295107F810F1F9108951F93182F882350
:1079800021F00E94763C1150E1F71F9108951F935A
:10799000182F0E94763C803249F0809103018F5F5E
:1079A000809303018530C1F01F9108958091C0003C
:1079B00085FFFCCF84E18093C6008091C00085FFE5
:1079C000FCCF1093C6008091C00085FFFCCF80E102
:1079D0008093C6001F910895E0910401F091050184
:1079E00009951F9108950E94763C803241F0809164
:1079F00003018F5F80930301853081F008958091AA
:107A0000C00085FFFCCF84E18093C6008091C00058
:107A100085FFFCCF80E18093C6000895E0910401CA
:107A2000F09105010995089540E951E08823A1F0FE
:107A30002D9A28EE33E0FA013197F1F721503040CA
:107A4000D1F72D9828EE33E0FA013197F1F7215064
:107A50003040D1F7815061F708953F924F925F9285
:107A60006F927F928F929F92AF92BF92CF92DF924E
:107A7000EF92FF920F931F93CF93DF93000080E16B
:107A80008093C4001092C50088E18093C10086E015
:107A90008093C2005098589A259A81E00E94143D24
:107AA00024E1F22E9EE1E92E85E9D82E0FE0C02ECA
:107AB00010E1B12EAA24A394B1E49B2EA6E58A2E50
:107AC000F2E57F2EE0E26E2E79E4572E63E5462E36
:107AD00050E5352E0E94763C8033B1F18133B9F107
:107AE000803409F46FC0813409F476C0823409F41B
:107AF00085C0853409F488C0803531F1823521F1A3
:107B0000813511F1853509F485C0863509F48DC0BC
:107B1000843609F496C0843709F403C1853709F423
:107B200072C1863709F466C0809103018F5F80932C
:107B30000301853079F6E0910401F0910501099582
:107B40000E94763C803351F60E94F33CC3CF0E94E2
:107B5000763C803249F78091C00085FFFCCFF092DF
:107B6000C6008091C00085FFFCCF9092C600809136
:107B7000C00085FFFCCF8092C6008091C00085FFC9
:107B8000FCCF7092C6008091C00085FFFCCF609250
:107B9000C6008091C00085FFFCCF5092C600809146
:107BA000C00085FFFCCF4092C6008091C00085FFD9
:107BB000FCCF3092C6008091C00085FFFCCFB09210
:107BC000C60088CF0E94763C863808F4BDCF0E945C
:107BD000763C0E94F33C7ECF0E94763C803809F4CC
:107BE0009CC0813809F40BC1823809F43CC1883942
:107BF00009F48FC080E00E94C73C6CCF84E10E94F2
:107C0000BD3C0E94F33C66CF85E00E94BD3C0E94D3
:107C1000F33C60CF0E94763C809306010E94763C44
:107C2000809307010E94F33C55CF0E94763C80333D
:107C300009F41DC183E00E94BD3C80E00E94C73C66
:107C400049CF0E94763C809309020E94763C809343
:107C5000080280910C028E7F80930C020E94763C79
:107C6000853409F415C18091080290910902892B8D
:107C700089F000E010E00E94763CF801E85FFE4FDA
:107C800080830F5F1F4F80910802909109020817AF
:107C9000190788F30E94763C803209F045CF809125
:107CA0000C0280FF01C16091060170910701660F0F
:107CB000771F7093070160930601A0910802B091AD
:107CC00009021097C9F0E8E0F1E09B01AD014E0F09
:107CD0005F1FF999FECF32BD21BD819180BDFA9A17
:107CE000F99A2F5F3F4FE417F50799F76A0F7B1F4B
:107CF00070930701609306018091C00085FFFCCF5F
:107D0000F092C6008091C00085FFFCCFB092C60003
:107D1000E1CE83E00E94C73CDDCE82E00E94C73CFA
:107D2000D9CE0E94763C809309020E94763C8093D3
:107D300008028091060190910701880F991F909386
:107D40000701809306010E94763C853409F4A6C0A1
:107D500080910C028E7F80930C020E94763C8032D0
:107D600009F0B8CE8091C00085FFFCCFF092C6002C
:107D7000609108027091090261157105B9F140E046
:107D800050E080910C02A82FA170B82FB27011C0E2
:107D9000BB2309F45CC0E0910601F0910701319624
:107DA000F0930701E09306014F5F5F4F46175707B7
:107DB000E8F4AA2369F3F999FECF209106013091E6
:107DC000070132BD21BDF89A90B58091C00085FFB2
:107DD000FCCF9093C6002F5F3F4F30930701209355
:107DE00006014F5F5F4F4617570718F38091C00099
:107DF00085FDE5CE8091C00085FFF8CFE0CE81E023
:107E00000E94C73C67CE0E94763C803209F08CCE3F
:107E10008091C00085FFFCCFF092C6008091C00029
:107E200085FFFCCFE092C6008091C00085FFFCCFAB
:107E3000D092C6008091C00085FFFCCFC092C600E2
:107E40008091C00085FFFCCFB092C60043CEE09188
:107E50000601F091070194918091C00085FFFCCF4D
:107E60009093C6009CCF80E10E94C73C33CE0E9415
:107E7000763C0E94763C182F0E94763C112309F430
:107E800083C0113009F484C08FE00E94C73C22CE29
:107E900080910C02816080930C02E5CE80910C02EF
:107EA000816080930C0259CF809107018823880F4D
:107EB000880B8A2180930B02809106019091070123
:107EC000880F991F90930701809306018091080203
:107ED00080FF09C080910802909109020196909359
:107EE000090280930802F894F999FECF1127E091D6
:107EF0000601F0910701C8E0D1E08091080290915D
:107F00000902103091F40091570001700130D9F34B
:107F100003E000935700E89500915700017001308D
:107F2000D9F301E100935700E89509901990009169
:107F3000570001700130D9F301E000935700E89534
:107F40001395103498F011270091570001700130FB
:107F5000D9F305E000935700E895009157000170B0
:107F60000130D9F301E100935700E895329602976A
:107F700009F0C7CF103011F00296E5CF112480919F
:107F8000C00085FFB9CEBCCE8EE10E94C73CA2CD19
:0E7F900085E90E94C73C9ECDF894FFCF80008B
:00000001FF
