:020000040000FA
:100000000C946C000C9494000C9494000C94940048
:100010000C9494000C9494000C9494000C94940010
:100020000C9494000C9494000C9494000C9422036F
:100030000C9494000C9494000C9494000C949400F0
:100040000C9480020C9494000C94F0020C94CA025C
:100050000C9494000C9494000C9494000C949400D0
:100060000C9494000C94940005A84CCDB2D44EB9D5
:100070003836A9020C50B9918688083CA6AAAA2A4B
:10008000BE000000803F00000008000201000003E5
:100090000407000000000000000000000000250030
:1000A00028002B0000000000240027002A00040480
:1000B0000404040404040202020202020303030310
:1000C00003030102040810204080010204081020EC
:1000D000010204081020FD0411241FBECFEFD8E058
:1000E000DEBFCDBF11E0A0E0B1E0E4E4F0E102C08A
:1000F00005900D92AE31B107D9F725E0AEE1B1E040
:1001000001C01D92A539B207E1F710E0CCE6D0E0BE
:1001100004C02197FE010E941A08CB36D107C9F707
:100120000E94A7030C9420080C94000090E0FC01AE
:10013000EE53FF4F249182559F4FFC0184918823F9
:1001400099F090E0880F991FFC01EC55FF4FA591A5
:10015000B491FC01E656FF4F859194918FB7F894C6
:10016000EC91E22BEC938FBF0895AF92BF92CF92A8
:10017000DF92EF92FF920F931F93CF93DF936C0167
:100180007B018B01040F151FEB015E01AE18BF0848
:10019000C017D10759F06991D601ED91FC910190FA
:1001A000F081E02DC6010995892B79F7C501DF9112
:1001B000CF911F910F91FF90EF90DF90CF90BF9064
:1001C000AF900895FC01538D448D252F30E0842F8E
:1001D00090E0821B930B541710F0CF96089501976F
:1001E0000895FC01918D828D981761F0A28DAE0F5C
:1001F000BF2FB11D5D968C91928D9F5F9F73928FE3
:1002000090E008958FEF9FEF0895FC01918D828D0E
:10021000981731F0828DE80FF11D858D90E00895DB
:100220008FEF9FEF0895FC01918D228D892F90E033
:10023000805C9F4F821B91098F739927089588EFE7
:1002400094E00E94130121E0892B09F420E0822F21
:10025000089580E090E0892B29F00E941F01811110
:100260000C9400000895FC01A48DA80FB92FB11DB6
:10027000A35ABF4F2C91848D90E001968F739927DC
:10028000848FA689B7892C93A089B1898C918370BA
:1002900080648C93938D848D981306C00288F389B3
:1002A000E02D80818F7D80830895EF92FF920F93E0
:1002B0001F93CF93DF93EC0181E0888F9B8D8C8D12
:1002C00098131AC0E889F989808185FF15C09FB706
:1002D000F894EE89FF896083E889F98980818370C9
:1002E000806480839FBF81E090E0DF91CF911F9178
:1002F0000F91FF90EF900895F62E0B8D10E00F5F99
:100300001F4F0F731127E02E8C8D8E110CC00FB66E
:1003100007FCFACFE889F989808185FFF5CFCE0106
:100320000E943301F1CFEB8DEC0FFD2FF11DE35A4D
:10033000FF4FF0829FB7F8940B8FEA89FB89808189
:100340008062CFCFCF93DF93EC01888D8823B9F003
:10035000AA89BB89E889F9898C9185FD03C08081D0
:1003600086FD0DC00FB607FCF7CF8C9185FFF2CF4D
:10037000808185FFEDCFCE010E943301E9CFDF916F
:10038000CF91089590E0FC01EA57FF4F2491FC01C2
:10039000EE53FF4F3491FC01E255FF4FE491EE2301
:1003A000C9F0222339F0233001F1A8F4213019F1EA
:1003B000223029F1F0E0EE0FFF1FE656FF4FA59126
:1003C000B4918FB7F894EC91611126C030953E231B
:1003D0003C938FBF08952730A9F02830C9F024300E
:1003E00049F7809180008F7D03C0809180008F77D6
:1003F00080938000DFCF84B58F7784BDDBCF84B559
:100400008F7DFBCF8091B0008F778093B000D2CFEB
:100410008091B0008F7DF9CF3E2BDACFFC010190A7
:100420000020E9F73197AF01481B590BBC0188EF59
:1004300094E00C94B5008F929F92AF92BF920F936D
:100440001F93CF93DF93CDB7DEB7A1970FB6F89484
:10045000DEBF0FBECDBF19A2423008F44AE08E01C4
:100460000F5D1F4F842E912CB12CA12CA50194015E
:100470000E94F807E62FB901CA01EA30F4F4E05D02
:10048000D801EE938D01232B242B252B79F790E0B7
:1004900080E0109719F0CD010E940E02A1960FB6D0
:1004A000F894DEBF0FBECDBFDF91CF911F910F91AA
:1004B000BF90AF909F908F900895E95CE1CFCF926D
:1004C000DF92EF92FF92CF93DF936B017C016DE29D
:1004D00088EF94E00E945501EC0166277727CB0155
:1004E0006C197D098E099F094AE00E941B028C0F3E
:1004F0009D1FDF91CF91FF90EF90DF90CF900895F7
:100500001F920F920FB60F9211242F933F938F9348
:100510009F93AF93BF938091F4049091F504A091C1
:10052000F604B091F7043091F30423E0230F2D3744
:1005300058F50196A11DB11D2093F3048093F40496
:100540009093F504A093F604B093F7048091EF0420
:100550009091F004A091F104B091F2040196A11DD4
:10056000B11D8093EF049093F004A093F104B09335
:10057000F204BF91AF919F918F913F912F910F9076
:100580000FBE0F901F90189526E8230F0296A11D0D
:10059000B11DD2CF1F920F920FB60F9211242F933D
:1005A0003F934F935F936F937F938F939F93AF93FB
:1005B000BF93EF93FF9388EF94E00E943301FF9184
:1005C000EF91BF91AF919F918F917F916F915F91CB
:1005D0004F913F912F910F900FBE0F901F90189544
:1005E0001F920F920FB60F9211242F938F939F9308
:1005F000EF93FF93E0910805F09109058081E09168
:100600000E05F0910F0582FD1BC0908180911105B0
:100610008F5F8F7320911205821741F0E0911105D1
:10062000F0E0E850FB4F958F80931105FF91EF911B
:100630009F918F912F910F900FBE0F901F90189543
:100640008081F4CF1F920F920FB60F9211242F9337
:100650003F934F935F936F937F938F939F93AF934A
:10066000BF93CF93EF93FF93E0911F01F09120018F
:10067000EE0FFF1FEF5DFE4FC08180911E0161E014
:10068000811157C084E00E94C20160E087E00E94AF
:10069000C201C7BD18BC80911F0190912001019635
:1006A0009093200180931F01880F991FFC01EF5D3B
:1006B000FE4F60817181072E000C880B990B97FF0C
:1006C00042C00E945F0282E191E00E940E026091AE
:1006D0001F0170912001072E000C880B990B0E94BE
:1006E00046062091E9043091EA044091EB045091D0
:1006F000EC040E94F60687FD0AC0109220011092B9
:100700001F0180911E0191E0892780931E01FF91B6
:10071000EF91CF91BF91AF919F918F917F916F9109
:100720005F914F913F912F910F900FBE0F901F90AF
:10073000189587E00E94C20160E084E00E94C20137
:10074000C8BD17BCA8CF4AE00E941B02BCCF78945A
:1007500084B5826084BD84B5816084BD85B58260C6
:1007600085BD85B5816085BD80916E008160809377
:100770006E001092810080918100826080938100E0
:1007800080918100816080938100809180008160F0
:10079000809380008091B10084608093B10080914B
:1007A000B00081608093B00080917A008460809373
:1007B0007A0080917A00826080937A0080917A003A
:1007C000816080937A0080917A00806880937A00BB
:1007D0001092C100E0910805F091090582E0808344
:1007E000E0910405F09105051082E0910605F09175
:1007F00007058FEC808310921005E0910C05F091B5
:100800000D0586E08083E0910A05F0910B0580815B
:1008100080618083E0910A05F0910B0580818860FA
:100820008083E0910A05F0910B05808180688083C8
:10083000E0910A05F0910B0580818F7D808384E033
:100840000E94960085E00E94960086E00E94960035
:1008500087E00E94960085EF90E09093EE048093ED
:10086000ED0486EC99EFA7E9B3E48093E904909353
:10087000EA04A093EB04B093EC048CE69AE9A7E1B8
:10088000BFE38093E5049093E604A093E704B0935C
:10089000E80401E211E0D0E0C0E0BE010D2E000C42
:1008A000880B990B0E9446066B017C0120E030E02A
:1008B00040E85FE36091E9047091EA048091EB0401
:1008C0009091EC040E942B059B01AC01C701B6017D
:1008D0000E94970587FF5BC08090E1049090E2043E
:1008E000A090E304B090E40422E934E249E450E447
:1008F000C501B4010E94FB0620E030E044E353E46C
:100900000E949C050E9468076B017C016091ED04C8
:100910007091EE04072E000C880B990B0E9446067E
:10092000A70196010E94FB0620E030E040EA50E477
:100930000E942B050E940E066B01F80161937193D2
:100940008F01A50194016091E5047091E604809106
:10095000E7049091E8040E942B056093E1047093F2
:10096000E2048093E3049093E404B601DD0C880B69
:10097000990B97FF08C00E945F0282E191E00E94FC
:100980000E0221968ACF4AE00E941B02F6CF84E134
:1009900091E00E940E028AE191E00E940E02109204
:1009A000200110921F01F89414BC15BC16BC81EAFA
:1009B00084BD81E085BD109280001092810010926C
:1009C0008500109284008DEF91E0909389008093D0
:1009D000880089E08093810080916F00826080931D
:1009E0006F007894C0E0D0E02097F1F30E941F01DF
:1009F0008823D1F30E940000F7CFE8EFF4E01382E0
:100A0000128288EE93E0A0E0B0E084839583A68311
:100A1000B78384E091E09183808385EC90E09587B3
:100A2000848784EC90E09787868780EC90E0918BB8
:100A3000808B81EC90E0938B828B82EC90E0958BA5
:100A4000848B86EC90E0978B868B118E128E138EA2
:100A5000148E08955058BB27AA270E9442050C9473
:100A6000BC060E94AE0638F00E94B50620F039F4AC
:100A70009F3F19F426F40C94AB060EF4E095E7FBC7
:100A80000C94A506E92F0E94CD0658F3BA17620709
:100A900073078407950720F079F4A6F50C94EF0608
:100AA0000EF4E0950B2EBA2FA02D0B01B901900189
:100AB0000C01CA01A0011124FF27591B99F0593FCD
:100AC00050F4503E68F11A16F040A22F232F342F15
:100AD0004427585FF3CF469537952795A795F04063
:100AE0005395C9F77EF41F16BA0B620B730B840B78
:100AF000BAF09150A1F0FF0FBB1F661F771F881F30
:100B0000C2F70EC0BA0F621F731F841F48F4879587
:100B100077956795B795F7959E3F08F0B0CF939579
:100B2000880F08F09927EE0F9795879508950E94F2
:100B3000810608F481E008950E94B0050C94BC067B
:100B40000E94B50658F00E94AE0640F029F45F3FBF
:100B500029F00C94A50651110C94F0060C94AB06E8
:100B60000E94CD0668F39923B1F3552391F3951BA9
:100B7000550BBB27AA2762177307840738F09F5FBE
:100B80005F4F220F331F441FAA1FA9F335D00E2E2B
:100B90003AF0E0E832D091505040E695001CCAF798
:100BA0002BD0FE2F29D0660F771F881FBB1F26175B
:100BB00037074807AB07B0E809F0BB0B802DBF0132
:100BC000FF2793585F4F3AF09E3F510578F00C9401
:100BD000A5060C94F0065F3FE4F3983ED4F38695A7
:100BE00077956795B795F7959F5FC9F7880F911D22
:100BF0009695879597F90895E1E0660F771F881F0E
:100C0000BB1F621773078407BA0720F0621B730BC0
:100C1000840BBA0BEE1F88F7E09508950E94150625
:100C20006894B1110C94F00608950E94D50688F0DE
:100C30009F5798F0B92F9927B751B0F0E1F0660FA0
:100C4000771F881F991F1AF0BA95C9F714C0B130E1
:100C500091F00E94EF06B1E008950C94EF06672F23
:100C6000782F8827B85F39F0B93FCCF38695779510
:100C70006795B395D9F73EF49095809570956195F9
:100C80007F4F8F4F9F4F0895E89409C097FB3EF424
:100C900090958095709561957F4F8F4F9F4F9923C9
:100CA000A9F0F92F96E9BB279395F6958795779547
:100CB0006795B795F111F8CFFAF4BB0F11F460FF07
:100CC0001BC06F5F7F4F8F4F9F4F16C0882311F05F
:100CD00096E911C0772321F09EE8872F762F05C073
:100CE000662371F096E8862F70E060E02AF09A950E
:100CF000660F771F881FDAF7880F9695879597F903
:100D00000895990F0008550FAA0BE0E8FEEF16169C
:100D10001706E807F907C0F012161306E407F507EF
:100D200098F0621B730B840B950B39F40A2661F063
:100D3000232B242B252B21F408950A2609F4A14006
:100D4000A6958FEF811D811D089597F99F6780E813
:100D500070E060E008959FEF80EC089500240A940D
:100D60001616170618060906089500240A94121686
:100D70001306140605060895092E0394000C11F4B9
:100D8000882352F0BB0F40F4BF2B11F460FF04C066
:100D90006F5F7F4F8F4F9F4F089557FD9058440FBF
:100DA000551F59F05F3F71F04795880F97FB991FCA
:100DB00061F09F3F79F08795089512161306140687
:100DC000551FF2CF4695F1DF08C016161706180614
:100DD000991FF1CF86957105610508940895E894EF
:100DE000BB2766277727CB0197F908950E948106D4
:100DF00008F48FEF08950E940E070C94BC060E9421
:100E0000AE0638F00E94B50620F0952311F00C9440
:100E1000A5060C94AB0611240C94F0060E94CD0696
:100E200070F3959FC1F3950F50E0551F629FF0013D
:100E3000729FBB27F00DB11D639FAA27F00DB11D56
:100E4000AA1F649F6627B00DA11D661F829F2227DF
:100E5000B00DA11D621F739FB00DA11D621F839F66
:100E6000A00D611D221F749F3327A00D611D231F3C
:100E7000849F600D211D822F762F6A2F11249F578A
:100E800050409AF0F1F088234AF0EE0FFF1FBB1F8D
:100E9000661F771F881F91505040A9F79E3F51054C
:100EA00080F00C94A5060C94F0065F3FE4F3983EA6
:100EB000D4F3869577956795B795F795E7959F5FF6
:100EC000C1F7FE2B880F911D9695879597F9089588
:100ED0009F930E9472070F9007FCEE5F0C949B0794
:100EE0000C94AB060E94D506D8F3E894E0E0BB274B
:100EF0009F57F0F02AED3FE049EC06C0EE0FBB0F24
:100F0000661F771F881F28F0B23A620773078407AD
:100F100028F0B25A620B730B840BE3959A9572F723
:100F2000803830F49A95BB0F661F771F881FD2F761
:100F300090480C94B107EF93E0FF07C0A2EA2AEDB6
:100F40003FE049EC5FEB0E9442050E94BC060F9017
:100F5000039401FC9058E8E6F0E00C94BD079F3F35
:100F600031F0915020F4879577956795B795880F64
:100F7000911D9695879597F908959F938F937F93E9
:100F80006F93FF93EF939B01AC010E94FB06EF91DF
:100F9000FF910E94D1072F913F914F915F910C9447
:100FA000FB06DF93CF931F930F93FF92EF92DF9295
:100FB0007B018C01689406C0DA2EEF010E940E07B7
:100FC000FE01E894A5912591359145915591A6F39F
:100FD000EF010E944205FE019701A801DA9469F72A
:100FE000DF90EF90FF900F911F91CF91DF910895C7
:100FF000A1E21A2EAA1BBB1BFD010DC0AA1FBB1F1D
:10100000EE1FFF1FA217B307E407F50720F0A21B8E
:10101000B30BE40BF50B661F771F881F991F1A94FB
:1010200069F760957095809590959B01AC01BD0125
:10103000CF010895EE0FFF1F0590F491E02D099464
:10104000F894FFCF000000005501B500E200A201B6
:101050001301F10005012C0020202A2020000D0A98
:0210600000008E
:107800000C94343C0C94513C0C94513C0C94513CE1
:107810000C94513C0C94513C0C94513C0C94513CB4
:107820000C94513C0C94513C0C94513C0C94513CA4
:107830000C94513C0C94513C0C94513C0C94513C94
:107840000C94513C0C94513C0C94513C0C94513C84
:107850000C94513C0C94513C0C94513C0C94513C74
:107860000C94513C0C94513C11241FBECFEFD8E036
:10787000DEBFCDBF11E0A0E0B1E0ECE9FFE702C060
:1078800005900D92A230B107D9F712E0A2E0B1E065
:1078900001C01D92AD30B107E1F70E942D3D0C945F
:1078A000CC3F0C94003C982F959595959595959582
:1078B000905D8F708A307CF0282F295A8091C0000B
:1078C00085FFFCCF9093C6008091C00085FFFCCF60
:1078D0002093C6000895282F205DF0CF982F809127
:1078E000C00085FFFCCF9093C6000895EF92FF92F1
:1078F0000F931F93EE24FF2487018091C00087FD22
:1079000017C00894E11CF11C011D111D81E4E8164B
:1079100082E4F8068FE0080780E0180770F3E09132
:107920000401F091050109958091C00087FFE9CF1E
:107930008091C6001F910F91FF90EF9008950E94D3
:10794000763C982F8091C00085FFFCCF9093C600B5
:1079500091362CF490330CF09053892F089597555D
:10796000892F08951F930E949F3C182F0E949F3CCF
:107970001295107F810F1F9108951F93182F882350
:1079800021F00E94763C1150E1F71F9108951F935A
:10799000182F0E94763C803249F0809103018F5F5E
:1079A000809303018530C1F01F9108958091C0003C
:1079B00085FFFCCF84E18093C6008091C00085FFE5
:1079C000FCCF1093C6008091C00085FFFCCF80E102
:1079D0008093C6001F910895E0910401F091050184
:1079E00009951F9108950E94763C803241F0809164
:1079F00003018F5F80930301853081F008958091AA
:107A0000C00085FFFCCF84E18093C6008091C00058
:107A100085FFFCCF80E18093C6000895E0910401CA
:107A2000F09105010995089540E951E08823A1F0FE
:107A30002D9A28EE33E0FA013197F1F721503040CA
:107A4000D1F72D9828EE33E0FA013197F1F7215064
:107A50003040D1F7815061F708953F924F925F9285
:107A60006F927F928F929F92AF92BF92CF92DF924E
:107A7000EF92FF920F931F93CF93DF93000080E16B
:107A80008093C4001092C50088E18093C10086E015
:107A90008093C2005098589A259A81E00E94143D24
:107AA00024E1F22E9EE1E92E85E9D82E0FE0C02ECA
:107AB00010E1B12EAA24A394B1E49B2EA6E58A2E50
:107AC000F2E57F2EE0E26E2E79E4572E63E5462E36
:107AD00050E5352E0E94763C8033B1F18133B9F107
:107AE000803409F46FC0813409F476C0823409F41B
:107AF00085C0853409F488C0803531F1823521F1A3
:107B0000813511F1853509F485C0863509F48DC0BC
:107B1000843609F496C0843709F403C1853709F423
:107B200072C1863709F466C0809103018F5F80932C
:107B30000301853079F6E0910401F0910501099582
:107B40000E94763C803351F60E94F33CC3CF0E94E2
:107B5000763C803249F78091C00085FFFCCFF092DF
:107B6000C6008091C00085FFFCCF9092C600809136
:107B7000C00085FFFCCF8092C6008091C00085FFC9
:107B8000FCCF7092C6008091C00085FFFCCF609250
:107B9000C6008091C00085FFFCCF5092C600809146
:107BA000C00085FFFCCF4092C6008091C00085FFD9
:107BB000FCCF3092C6008091C00085FFFCCFB09210
:107BC000C60088CF0E94763C863808F4BDCF0E945C
:107BD000763C0E94F33C7ECF0E94763C803809F4CC
:107BE0009CC0813809F40BC1823809F43CC1883942
:107BF00009F48FC080E00E94C73C6CCF84E10E94F2
:107C0000BD3C0E94F33C66CF85E00E94BD3C0E94D3
:107C1000F33C60CF0E94763C809306010E94763C44
:107C2000809307010E94F33C55CF0E94763C80333D
:107C300009F41DC183E00E94BD3C80E00E94C73C66
:107C400049CF0E94763C809309020E94763C809343
:107C5000080280910C028E7F80930C020E94763C79
:107C6000853409F415C18091080290910902892B8D
:107C700089F000E010E00E94763CF801E85FFE4FDA
:107C800080830F5F1F4F80910802909109020817AF
:107C9000190788F30E94763C803209F045CF809125
:107CA0000C0280FF01C16091060170910701660F0F
:107CB000771F7093070160930601A0910802B091AD
:107CC00009021097C9F0E8E0F1E09B01AD014E0F09
:107CD0005F1FF999FECF32BD21BD819180BDFA9A17
:107CE000F99A2F5F3F4FE417F50799F76A0F7B1F4B
:107CF00070930701609306018091C00085FFFCCF5F
:107D0000F092C6008091C00085FFFCCFB092C60003
:107D1000E1CE83E00E94C73CDDCE82E00E94C73CFA
:107D2000D9CE0E94763C809309020E94763C8093D3
:107D300008028091060190910701880F991F909386
:107D40000701809306010E94763C853409F4A6C0A1
:107D500080910C028E7F80930C020E94763C8032D0
:107D600009F0B8CE8091C00085FFFCCFF092C6002C
:107D7000609108027091090261157105B9F140E046
:107D800050E080910C02A82FA170B82FB27011C0E2
:107D9000BB2309F45CC0E0910601F0910701319624
:107DA000F0930701E09306014F5F5F4F46175707B7
:107DB000E8F4AA2369F3F999FECF209106013091E6
:107DC000070132BD21BDF89A90B58091C00085FFB2
:107DD000FCCF9093C6002F5F3F4F30930701209355
:107DE00006014F5F5F4F4617570718F38091C00099
:107DF00085FDE5CE8091C00085FFF8CFE0CE81E023
:107E00000E94C73C67CE0E94763C803209F08CCE3F
:107E10008091C00085FFFCCFF092C6008091C00029
:107E200085FFFCCFE092C6008091C00085FFFCCFAB
:107E3000D092C6008091C00085FFFCCFC092C600E2
:107E40008091C00085FFFCCFB092C60043CEE09188
:107E50000601F091070194918091C00085FFFCCF4D
:107E60009093C6009CCF80E10E94C73C33CE0E9415
:107E7000763C0E94763C182F0E94763C112309F430
:107E800083C0113009F484C08FE00E94C73C22CE29
:107E900080910C02816080930C02E5CE80910C02EF
:107EA000816080930C0259CF809107018823880F4D
:107EB000880B8A2180930B02809106019091070123
:107EC000880F991F90930701809306018091080203
:107ED00080FF09C080910802909109020196909359
:107EE000090280930802F894F999FECF1127E091D6
:107EF0000601F0910701C8E0D1E08091080290915D
:107F00000902103091F40091570001700130D9F34B
:107F100003E000935700E89500915700017001308D
:107F2000D9F301E100935700E89509901990009169
:107F3000570001700130D9F301E000935700E89534
:107F40001395103498F011270091570001700130FB
:107F5000D9F305E000935700E895009157000170B0
:107F60000130D9F301E100935700E895329602976A
:107F700009F0C7CF103011F00296E5CF112480919F
:107F8000C00085FFB9CEBCCE8EE10E94C73CA2CD19
:0E7F900085E90E94C73C9ECDF894FFCF80008B
:00000001FF
