:100000000C9462000C947F000C947F000C947F0091
:100010000C947F000C947F000C947F000C94EC02F5
:100020000C947F000C947F000C947F000C947F0054
:100030000C947F000C947F000C947F000C947F0044
:100040000C94A2020C947F000C947F000C947F000F
:100050000C947F000C947F000C947F000C947F0024
:100060000C947F000C947F00000000002400270007
:100070002A000000000023002600290000000008DC
:10008000000201000003040700000000000000005F
:10009000010204081020408001020408102001021F
:1000A0000408102000000000250028002B00040494
:1000B0000404040404040202020202020303030310
:1000C0000303020011241FBECFEFD8E0DEBFCDBF77
:1000D00011E0A0E0B1E0E0EBF8E002C005900D9285
:1000E000A230B107D9F721E0A2E0B1E001C01D9232
:1000F000AC31B207E1F70E9448030C9456040C940B
:100100000000833081F028F4813099F08230A9F02A
:1001100008958730A9F08830C9F08430B1F4809117
:1001200080008F7D03C0809180008F778093800056
:10013000089584B58F7784BD089584B58F7DFBCFF6
:100140008091B0008F778093B00008958091B000C7
:100150008F7DF9CFCF93DF939091000189130BC06E
:10016000E2ECF0E0E4919FEF90930001E13059F16F
:1001700038F1E23071F1282F30E0F901E458FF4FF7
:100180008491F901E057FF4FD491F901E255FF4FF7
:10019000C491CC2391F081110E948100EC2FF0E0FA
:1001A000EE0FFF1FEC55FF4FA591B4918FB7F89458
:1001B000EC91D095DE23DC938FBFDF91CF91089532
:1001C00010926E00D8CF90916F009D7F90936F003A
:1001D000D2CF909170009D7F9093700091E09093AA
:1001E000B0009091B100987F94609093B10010920C
:1001F000B300C1CFCF93DF93282F30E0F901E4584B
:10020000FF4F8491F901E057FF4FD491F901E25576
:10021000FF4FC491CC23A1F081110E948100EC2FEB
:10022000F0E0EE0FFF1FEE58FF4FA591B491EC9157
:10023000ED2381E090E009F480E0DF91CF91089513
:1002400080E090E0FACFCF93DF9390E0FC01E0579D
:10025000FF4F249182559F4FFC0184918823D1F058
:1002600090E0880F991FFC01E859FF4FA591B491C8
:10027000FC01EC55FF4FC591D49161110EC09FB7A1
:10028000F8948C91E22FE0958E238C932881E223C1
:10029000E8839FBFDF91CF9108958FB7F894EC91D9
:1002A000E22BEC938FBFF6CFCF92DF92EF92FF92CB
:1002B000CF936B0190910001891749F09F3F09F49A
:1002C0004EC0CF91FF90EF90DF90CF900895E2EC79
:1002D000F0E0C491C7FDF5CF61E00E942301CC237B
:1002E00019F0C23009F0E3C0F12CE12C68E478EE9B
:1002F00081E090E0A70196010E941504BA01A901CE
:100300004150510961097109CC2309F410C1C2306F
:1003100009F09EC04F3F51056105710509F00CF4CD
:10032000C4C064E274EF80E090E0A70196010E94EF
:100330001504BA01A901415051096109710995E0FB
:100340008091B100887F892B8093B100C13009F47E
:10035000C6C0C23009F4D8C0C111B3CF94C08093D5
:100360000001E2ECF0E0C491CF3F09F4AACFC13024
:1003700039F148F0C23009F445C0C7FDA2CF61E0B1
:100380000E942301AECF14BC15BC94B5926094BDFD
:1003900095B5916095BD282F30E0F901E255FF4FEA
:1003A000E491F0E0EE0FFF1FEC55FF4F45915491A3
:1003B000F901E057FF4FE491E0930F01C0E08CCFCB
:1003C000109280001092810090918100986090932B
:1003D000810090918100916090938100282F30E0FE
:1003E000F901E255FF4FE491F0E0EE0FFF1FEC55ED
:1003F000FF4F45915491F901E057FF4FE491E0938D
:100400000E016ACF1092B0001092B1009091B0002E
:1004100092609093B0009091B10091609093B10080
:10042000282F30E0F901E255FF4FE491F0E0EE0FA4
:10043000FF1FEC55FF4F4591549150930D01409390
:100440000C01F901E057FF4FE491E0930B0144CF19
:100450004F3F51056105710541F13CF162E17AE7D9
:1004600080E090E0A70196010E941504BA01A9015D
:100470004150510961097109C11162C094E085B50B
:10048000887F892B85BD47BD8FEF9FEFDC0180936F
:10049000180190931901A0931A01B0931B01809148
:1004A0006E00826080936E000CCF94E049CF96017D
:1004B00050E040E060E072E18AE790E00E941504BD
:1004C000BA01A9014150510961097109C13009F00E
:1004D0003DCF80918100887F81608093810050931F
:1004E0008900409388008FEF9FEFDC018093140117
:1004F00090931501A0931601B093170180916F009E
:10050000826080936F00DDCE4093B3008FEF9FEF4A
:10051000DC018093100190931101A0931201B0931C
:10052000130180917000826080937000CACE93E0C6
:100530004F3F51056105710511F00CF08FCF9FCF32
:1005400096E0FECE1F920F920FB60F9211242F93BA
:100550003F938F939F93AF93BF93809107019091A7
:100560000801A0910901B0910A013091060123E030
:10057000230F2D3758F50196A11DB11D20930601BB
:100580008093070190930801A0930901B0930A0199
:100590008091020190910301A0910401B0910501A5
:1005A0000196A11DB11D8093020190930301A093B8
:1005B0000401B0930501BF91AF919F918F913F913D
:1005C0002F910F900FBE0F901F90189526E8230FC4
:1005D0000296A11DB11DD2CF1F920F920FB60F929E
:1005E00011242F933F934F935F936F937F938F9338
:1005F0009F93AF93BF93EF93FF93809110019091DE
:100600001101A0911201B0911301892B8A2B8B2B20
:10061000D1F190910B01E0910C01F0910D018081DD
:10062000892780838091100190911101A09112017E
:10063000B0911301181619061A061B069CF4809136
:10064000100190911101A0911201B0911301019735
:10065000A109B1098093100190931101A093120197
:10066000B0931301FF91EF91BF91AF919F918F9143
:100670007F916F915F914F913F912F910F900FBE9E
:100680000F901F901895809100010E94AA00EACF58
:10069000789484B5826084BD84B5816084BD85B55D
:1006A000826085BD85B5816085BD80916E00816069
:1006B00080936E001092810080918100826080930F
:1006C0008100809181008160809381008091800011
:1006D0008160809380008091B10084608093B1003C
:1006E0008091B00081608093B00080917A00846036
:1006F00080937A0080917A00826080937A00809162
:100700007A00816080937A0080917A00806880937B
:100710007A001092C10060E082E00E94230160E054
:1007200083E00E94230160E084E00E94230160E0F6
:1007300085E00E94230160E086E00E94230160E0E2
:1007400087E00E94230160E088E00E94230161E0CD
:100750008AE00E942301C0E0D0E082E00E94FA001B
:10076000019731F465E071E08AE00E945401F5CF11
:100770008AE00E94AA0083E00E94FA00019731F407
:1007800065E271E08AE00E945401F5CF8AE00E94A0
:10079000AA0084E00E94FA00019731F469E471E054
:1007A0008AE00E945401F5CF8AE00E94AA0085E009
:1007B0000E94FA00019731F46DE571E08AE00E9431
:1007C0005401F5CF8AE00E94AA0086E00E94FA0058
:1007D000019731F467E871E08AE00E945401F5CF97
:1007E0008AE00E94AA0087E00E94FA00019731F493
:1007F00068EB71E08AE00E945401F5CF8AE00E9424
:10080000AA0088E00E94FA00019731F46DEE71E0D1
:100810008AE00E945401F5CF8AE00E94AA00209746
:1008200009F49BCF0E94000098CF052E97FB1EF481
:1008300000940E942C0457FD07D00E94340407FC4A
:1008400003D04EF40C942C0450954095309521958E
:100850003F4F4F4F5F4F08959095809570956195EC
:100860007F4F8F4F9F4F0895A1E21A2EAA1BBB1BEB
:10087000FD010DC0AA1FBB1FEE1FFF1FA217B3076C
:10088000E407F50720F0A21BB30BE40BF50B661F82
:10089000771F881F991F1A9469F760957095809546
:1008A00090959B01AC01BD01CF010895F894FFCF55
:0208B000FF0047
:00000001FF
