:100000000C945E000C9486000C9486000C94860080
:100010000C9486000C9486000C9486000C94860048
:100020000C9486000C9486000C9486000C94860038
:100030000C9486000C9486000C9486000C94860028
:100040000C948F020C9486000C9486000C9486000D
:100050000C9486000C9486000C9486000C94860008
:100060000C94D9020C9486000000000024002700A4
:100070002A0000000000250028002B0004040404CE
:100080000404040402020202020203030303030342
:10009000010204081020408001020408102001021F
:1000A00004081020000000080002010000030407FB
:1000B0000000000000000000F803B50511241FBE79
:1000C000CFEFD8E0DEBFCDBF22E0ACE3B1E001C0AE
:1000D0001D92A933B207E1F711E0A0E0B1E0EAE137
:1000E000F0E102C005900D92AC33B107D9F710E0F2
:1000F000CDE5D0E004C02197FE010E940806CC3572
:10010000D107C9F70E9424040C9400080C94000045
:100110000895089590E0FC01EC55FF4F2491FC01F7
:10012000E057FF4F3491FC01E458FF4FE491EE2378
:10013000C9F0222339F0233001F1A8F4213019F15C
:10014000223029F1F0E0EE0FFF1FEE58FF4FA5918E
:10015000B4918FB7F894EC91611126C030953E238D
:100160003C938FBF08952730A9F02830C9F0243080
:1001700049F7809180008F7D03C0809180008F7748
:1001800080938000DFCF84B58F7784BDDBCF84B5CB
:100190008F7DFBCF8091B0008F778093B000D2CF5E
:1001A0008091B0008F7DF9CF3E2BDACFCF93DF93D4
:1001B00090E0FC01E057FF4F249184589F4FFC01D1
:1001C00084918823D1F090E0880F991FFC01E859B1
:1001D000FF4FA591B491FC01EE58FF4FC591D4910A
:1001E00061110EC09FB7F8948C91E22FE0958E2399
:1001F0008C932881E223E8839FBFDF91CF910895FC
:100200008FB7F894EC91E22BEC938FBFF6CF3FB70A
:10021000F8948091A5019091A601A091A701B091B9
:10022000A80126B5A89B05C02F3F19F00196A11D76
:10023000B11D3FBFBA2FA92F982F8827BC01CD0130
:10024000620F711D811D911D42E0660F771F881F8F
:10025000991F4A95D1F7089520917D01260F3327E4
:10026000331F21323105ECF42091CF01FC0190E0E5
:1002700080E0243069F082E00895A0917D01219111
:10028000AC01435A5E4FA40FB52FB11D2C930196BC
:10029000861798F380917D01680F60937D0180E05F
:1002A000089581E008951092CF0181E08093CE01FE
:1002B0001092A90161E082E10E948A0061E083E17D
:1002C0000E948A00E9EBF0E080818E7F808380814C
:1002D0008D7F808388E48093B80085E48093BC00A0
:1002E0000895CF93DF9391E090935C018823B9F058
:1002F000C091B800D091BA008091BC008A7B8093F5
:10030000BC0060E082E10E948A0060E083E10E941C
:100310008A000E945301D093BA00C093B800DF91C5
:10032000CF9108950895E091FE018091FD01E817B5
:1003300030F4F0E0E45CFE4F808190E008958FEFB0
:100340009FEF08959091FE018091FD012FEF3FEF07
:10035000981748F4E92FF0E0E45CFE4F208130E08C
:100360009F5F9093FE01C90108958091FD019091D6
:10037000FE01891B990B0895CF92DF92EF92FF92B5
:100380000F931F93CF93DF937C01CB018A012091C0
:10039000F601222389F0EB016B01C40ED51ECC15AA
:1003A000DD0569F06991D701ED91FC910190F08133
:1003B000E02DC7010995F3CF642F0E942C01C801DD
:1003C000DF91CF911F910F91FF90EF90DF90CF9031
:1003D0000895CF93DF931F92CDB7DEB76983209145
:1003E000F6012223F9F02091FB01203258F021E0A0
:1003F00030E0FC013383228390E080E00F90DF91B6
:10040000CF9108958091FC01E82FF0E0EB52FE4F70
:10041000998190838F5F8093FC018093FB0181E041
:1004200090E0ECCF61E0CE0101960E942C01F7CF65
:1004300090E080E00895CF93DF93EC011982188259
:100440001B821A821D821C8261E070E090E080E0D5
:100450000E9433070097A1F0998388831B821A8238
:100460002C813D81232B11F4FC0110821D821C8202
:100470006AE371E088819981DF91CF910C94F9074B
:1004800088819981009711F00E94AA06198218822A
:100490001D821C821B821A82DF91CF910895FC017C
:1004A00080819181009711F00C94AA06089585ED42
:1004B0008093BC008091D1019091D201A091D30191
:1004C000B091D4010796A11DB11D23E0B695A79563
:1004D000979587952A95D1F72091BC0024FD03C0FC
:1004E0001092CF0108954091D1015091D2016091B5
:1004F000D3017091D401452B462B472B69F300970C
:10050000A105B10541F025E32A95F1F70000019717
:10051000A109B109E1CF8091D0010C9471011F9222
:100520000F920FB60F9211242F933F938F939F93A7
:10053000AF93BF938091A1019091A201A091A301DB
:10054000B091A4013091A00123E0230F2D3758F57D
:100550000196A11DB11D2093A0018093A10190934C
:10056000A201A093A301B093A4018091A501909151
:10057000A601A091A701B091A8010196A11DB11DEE
:100580008093A5019093A601A093A701B093A80121
:10059000BF91AF919F918F913F912F910F900FBE7F
:1005A0000F901F90189526E8230F0296A11DB11DEC
:1005B000D2CF1F920F920FB60F9211242F933F9319
:1005C0004F935F936F937F938F939F93AF93BF935B
:1005D000EF93FF938091B900887F803609F44AC079
:1005E000F0F5883209F4A7C018F5803109F49BC0F2
:1005F000B8F4882309F4F9C0883009F494C0FF9155
:10060000EF91BF91AF919F918F917F916F915F918A
:100610004F913F912F910F900FBE0F901F90189503
:10062000883109F488C0803251F78093CD0114C01D
:10063000803409F49DC040F48033B9F38833F9F66F
:100640008093CD0185ECB0C0803509F485C0883534
:1006500009F496C0883499F60E945702D0CF8839A1
:1006600009F48CC038F5883729F050F4883611F039
:10067000803729F683E08093CF0110929F0157C005
:10068000883809F47BC0803919F0803809F0B7CF79
:1006900080919F01803208F071C0E0919F0181E05C
:1006A0008E0F80939F018091BB00F0E0E158FE4FD8
:1006B00080833DC0803B39F0E0F4803A09F479C092
:1006C000883A09F09CCF84E08093CF0110927E019C
:1006D00010927D01E091F901F091FA010995809164
:1006E0007D0181110FC081E080937D0110925D0139
:1006F00009C0803C09F4A6CF883C09F4A3CF883B0D
:1007000009F07DCFE0917E0181E08E0F80937E0124
:10071000F0E0E35AFE4F80818093BB0090917E0110
:1007200080917D0129C08091AA018093BB0085EC56
:100730008093BC0064CF9091CC018091CB0198173D
:1007400058F5E091CC0181E08E0F8093CC01F0E070
:10075000E555FE4F8081E9CFE091CC0181E08E0F1D
:100760008093CC018091BB00F0E0E555FE4F808383
:100770009091CC018091CB019817C8F285E8D8CF31
:10078000E091CC0181E08E0F8093CC018091BB0081
:10079000F0E0E555FE4F80838091CE0181115CCF62
:1007A00081E08093A90184EA8093BC001092CF017C
:1007B00026CF85EC8093BC001092CF0180919F01E1
:1007C000803230F4E0919F01F0E0E158FE4F10825A
:1007D00060919F0170E0E091F701F091F8018FE7DF
:1007E00091E0099510929F010ACF1092CD0134CF6C
:1007F000EFEFF1E01382128288EE93E0A0E0B0E028
:1008000084839583A683B7838CE291E09183808370
:100810008FE292E00E941B0289E292E00E941B029A
:1008200083E292E00E941B028DE192E00E941B0293
:1008300087E192E00E941B0281E192E00E941B028C
:100840008BE092E00C941B02789484B5826084BDA6
:1008500084B5816084BD85B5826085BD85B58160C4
:1008600085BD80916E00816080936E001092810042
:1008700080918100826080938100809181008160FD
:1008800080938100809180008160809380008091BE
:10089000B10084608093B1008091B000816080934A
:1008A000B00080917A00846080937A0080917A0011
:1008B000826080937A0080917A00816080937A00D0
:1008C00080917A00806880937A001092C100109223
:1008D000FE011092FD011092FC011092FB010E949A
:1008E000530188E890E09093FA018093F90189E838
:1008F00090E09093F8018093F70181E08093F601F6
:1009000088E68093F5010E9407016B017C018091CC
:10091000CF0181115DC082E08093CF0181E080939F
:10092000CE018FEF8093CD011092CC011092CB01BC
:100930001092AA018091AA01806D8093AA018091F2
:10094000A901813009F0EDC01092A9010E940701B0
:100950006B017C018091AA018093BB008091D10141
:100960009091D201A091D301B091D401892B8A2B0F
:100970008B2B99F00E9407010091D1011091D201B7
:100980002091D3013091D4016C197D098E099F0902
:100990000617170728073907E0F18091BC0083FD8F
:1009A000D9CF85EC8093BC000E9407016B017C01CC
:1009B0008091CF01823009F4B6C08091CD018F3F84
:1009C00061F18091CD01803241F18091CD0125C04E
:1009D0008091D1019091D201A091D301B091D40125
:1009E000892B8A2B8B2B09F492CF0E94070100914F
:1009F000D1011091D2012091D3013091D4016C1911
:100A00007D098E099F09061717072807390708F07F
:100A10007ECF8091D0010E9471011092FC01109252
:100A2000FB011092F60106E011E02AE1E22E21E03E
:100A3000F22EE8018881229661E00E94D600EC1631
:100A4000FD06C1F7F80180810E5F1F4F60E00E9434
:100A50008A00C017D107B1F7CAE1D1E08881229698
:100A600061E00E94D600F1E0C832DF07B9F7CAE1C1
:100A7000D1E08881229660E00E948A0021E0C8329D
:100A8000D207B9F760E080E00E94D60060E080E025
:100A90000E94D60060E080E00E94D60060E080E026
:100AA0000E94D60060E080E00E94D60090E0A92E6F
:100AB00090E0B92E0AE111E0F80180810E5F1F4F2E
:100AC00060E00E948A000E9407012B013C0188EE31
:100AD000C82E83E0D82EE12CF12C0E940701641966
:100AE000750986099709683E734081059105A8F349
:100AF000F1E0CF1AD108E108F10828EE420E23E018
:100B0000521E611C711CC114D104E104F10429F7C7
:100B1000C017D10789F6A114B10461F20E94000048
:100B2000C9CF85EE3FCF8091D1019091D201A091A4
:100B3000D301B091D401892B8A2B8B2B09F438CFA8
:100B40000E9407010091D1011091D2012091D3019F
:100B50003091D4016C197D098E099F09061717077A
:100B60002807390708F024CF54CF8BE092E00E9489
:100B70004F0281E192E00E944F0287E192E00E94E1
:100B80004F028DE192E00E944F0283E292E00E94C8
:100B90004F0289E292E00E944F028FE292E00C94B1
:100BA0004F022F923F924F925F926F927F928F925D
:100BB0009F92AF92BF92CF92DF92EF92FF920F93EC
:100BC0001F93CF93DF93CDB7DEB7CA1BDB0B0FB6F6
:100BD000F894DEBF0FBECDBF09942A8839884888B3
:100BE0005F846E847D848C849B84AA84B984C88449
:100BF000DF80EE80FD800C811B81AA81B981CE0F40
:100C0000D11D0FB6F894DEBF0FBECDBFED01089524
:100C1000EE0FFF1F0590F491E02D09940F931F93A1
:100C2000CF93DF938230910510F482E090E0E09161
:100C30003702F091380230E020E0B0E0A0E03097D9
:100C400099F42115310509F44AC0281B390B2430C9
:100C50003105D8F58A819B816115710589F1FB0108
:100C600093838283FE0111C04081518102811381EF
:100C700048175907E0F04817590799F4109761F0A1
:100C800012960C93129713961C933296CF01DF9114
:100C9000CF911F910F91089500933702109338025E
:100CA000F4CF2115310551F04217530738F0A9014F
:100CB000DB019A01BD01DF01F801C1CFEF01F9CFDE
:100CC0009093380280933702CDCFFE01E20FF31FDD
:100CD000819391932250310939832883D7CF209172
:100CE000350230913602232B41F4209102013091DC
:100CF0000301309336022093350220910001309198
:100D000001012115310541F42DB73EB74091040191
:100D100050910501241B350BE0913502F09136020C
:100D2000E217F307A0F42E1B3F0B2817390778F0C2
:100D3000AC014E5F5F4F2417350748F04E0F5F1F21
:100D40005093360240933502819391939FCFF0E008
:100D5000E0E09CCFCF93DF930097E9F0FC0132975E
:100D600013821282A0913702B0913802ED0130E077
:100D700020E01097A1F420813181820F931F2091F0
:100D80003502309136022817390709F061C0F09317
:100D90003602E0933502DF91CF910895EA01CE1734
:100DA000DF07E8F54A815B819E0141155105B1F7E6
:100DB000E901FB83EA8349915991C40FD51FEC17D0
:100DC000FD0761F4808191810296840F951FE901EE
:100DD00099838883828193819B838A83F0E0E0E01A
:100DE00012968D919C9113970097B9F52D913C9196
:100DF0001197CD010296820F931F209135023091F9
:100E000036022817390739F6309751F51092380213
:100E100010923702B0933602A0933502BCCFD38331
:100E2000C28340815181840F951FC817D90761F48F
:100E30004E5F5F4F88819981480F591F51834083CE
:100E40008A819B81938382832115310509F0B0CF7C
:100E5000F0933802E09337029ECFFD01DC01C0CF52
:100E600013821282D7CFB0E0A0E0E9E3F7E00C9460
:100E7000D3058C01009751F4CB010E940E068C0122
:100E8000C801CDB7DEB7E0E10C94EF05FC01E60F39
:100E9000F71F9C0122503109E217F30708F49DC0A7
:100EA000D901CD91DC911197C617D70798F0C530BD
:100EB000D10530F3CE0104978617970708F3C61BB8
:100EC000D70B2297C193D1936D937C93CF010E944E
:100ED000AA06D6CF5B01AC1ABD0A4C018C0E9D1E32
:100EE000A0913702B0913802512C412CF12CE12C09
:100EF000109731F580913502909136028815990549
:100F000009F05CC04616570608F058C080910001F1
:100F100090910101009741F48DB79EB74091040173
:100F200050910501841B950BE817F90708F055C08F
:100F3000F0933602E0933502F90171836083A0CF0C
:100F40008D919C91119712966C90129713967C90AC
:100F50001397A815B90559F56C0142E0C40ED11CD0
:100F6000CA14DB0420F1AC014A195B09DA011296BC
:100F7000159780F06282738251834083D9016D930B
:100F80007C93E114F10471F0D7011396FC93EE9376
:100F9000129776CF22968C0F9D1FF9019183808343
:100FA000F301EFCFF0933802E093370269CF481690
:100FB000590608F42C017D01D3019ACFCB010E9480
:100FC0000E067C01009749F0AE01B8010E94F007BF
:100FD000C8010E94AA06870153CF10E000E050CF5D
:100FE000FB01DC0102C001900D9241505040D8F746
:100FF0000895FB01DC0101900D920020E1F70895B6
:1010000010E0CDE5D0E004C0FE010E940806219664
:0A101000CE35D107C9F7F894FFCFE1
:10101A000000390280000B000A00090008000C00D9
:10102A000D000E000F001100100001000200050063
:10103A00060003000400070000000000E901BC01EB
:0C104A0018029201B501A2019301000000
:00000001FF
