:020000040000FA
:100000000C94E0000C9408010C9408010C94080175
:100010000C9408010C9408010C9408010C9408013C
:100020000C9408010C9408010C9408010C9408012C
:100030000C9408010C9408010C9408010C9408011C
:100040000C9486050C9408010C9454050C942E0510
:100050000C9408010C9408010C9408010C940801FC
:100060000C9408010C94080100407A10F35A00A087
:10007000724E18090010A5D4E80000E87648170071
:1000800000E40B54020000CA9A3B000000E1F505B1
:10009000000080969800000040420F000000A086FB
:1000A00001000000102700000000E803000000002D
:1000B0006400000000000A000000000001000000D1
:1000C00000002C76D888DC674F0823DFC1DFAE59EB
:1000D000E1B1B796E5E3E453C63AE651997696E87E
:1000E000E6C28426EB898C9B62ED407C6FFCEFBC02
:1000F0009C9F40F2BAA56FA5F490055A2AF75C932D
:100100006B6CF9676DC11BFCE0E40D47FEF520E662
:10011000B500D0ED902E0300943577050080841E45
:10012000080000204E0A000000C80C333333330FA0
:10013000986E12831141EF8D2114893BE65516CF3D
:10014000FEE6DB18D1844B381BF77C1D901DA4BB49
:10015000E424203284725E228100C9F124ECA1E5FE
:100160003D2700000000240027002A0000000000B6
:10017000250028002B0000000008000201000003F9
:100180000407000000000000000000000000230041
:1001900026002900040404040404040402020202E8
:1001A000020203030303030301020408102040803A
:1001B000010204081020010204081020D005030ADF
:1001C00011241FBECFEFD8E0DEBFCDBF22E0A0E3F9
:1001D000B1E001C01D92A531B207E1F711E0A0E046
:1001E000B1E0EAE9F0E202C005900D92A033B10758
:1001F000D9F710E0CFEDD0E004C02197FE010E94B6
:100200003F0ECE3DD107C9F70E942D060C94401039
:100210000C940000CF92DF92EF92FF92CF93DF9386
:10022000B0910502A0E08111AB2F8091060290E011
:10023000880F991FAC0146575E4FC0900B02D090BB
:100240000C02E0900D02F0900E0230E020E0FA0186
:10025000C591D491E881B90190E080E0EB23EA13E5
:100260000AC02F5F3F4F6C157D058E059F0578F303
:100270006FEF7FEFCB01DF91CF91FF90EF90DF9099
:10028000CF900895FC01538D448D252F30E0842FAD
:1002900090E0821B930B541710F0CF9608950197AE
:1002A0000895FC01918D828D981761F0A28DAE0F9B
:1002B000BF2FB11D5D968C91928D9F5F9F73928F22
:1002C00090E008958FEF9FEF0895FC01918D828D4E
:1002D000981731F0828DE80FF11D858D90E008951B
:1002E0008FEF9FEF0895FC01918D228D892F90E073
:1002F000805C9F4F821B91098F7399270895FC01A1
:10030000A48DA80FB92FB11DA35ABF4F2C91848D76
:1003100090E001968F739927848FA689B7892C93D3
:10032000A089B1898C91837080648C93938D848D26
:10033000981306C00288F389E02D80818F7D808329
:100340000895EF92FF920F931F93CF93DF93EC01E9
:1003500081E0888F9B8D8C8D98131AC0E889F9896C
:10036000808185FF15C09FB7F894EE89FF8960836F
:10037000E889F98980818370806480839FBF81E0F0
:1003800090E0DF91CF911F910F91FF90EF90089532
:10039000F62E0B8D10E00F5F1F4F0F731127E02E0D
:1003A0008C8D8E110CC00FB607FCFACFE889F98945
:1003B000808185FFF5CFCE010E947F01F1CFEB8DCB
:1003C000EC0FFD2FF11DE35AFF4FF0829FB7F89419
:1003D0000B8FEA89FB8980818062CFCFCF93DF9337
:1003E000EC01888D8823B9F0AA89BB89E889F9894D
:1003F0008C9185FD03C0808186FD0DC00FB607FC82
:10040000F7CF8C9185FFF2CF808185FFEDCFCE01B4
:100410000E947F01E9CFDF91CF9108958FE491E0B1
:100420000E94730121E0892B09F420E0822F0895B6
:1004300080E090E0892B29F00E940E0281110C943B
:10044000000008950895AF92BF92CF92DF92EF928D
:10045000FF920F931F93CF93DF936C017B018B016E
:10046000040F151FEB015E01AE18BF08C017D107BE
:1004700059F06991D601ED91FC910190F081E02D48
:10048000C6010995892B79F7C501DF91CF911F919D
:100490000F91FF90EF90DF90CF90BF90AF900895B5
:1004A00090E0FC01EA58FE4F2491FC01E855FE4F14
:1004B0003491FC01EC56FE4FE491EE23C9F0222367
:1004C00039F0233001F1A8F4213019F1223029F15B
:1004D000F0E0EE0FFF1FE459FE4FA591B4918FB7E6
:1004E000F894EC91611126C030953E233C938FBF68
:1004F00008952730A9F02830C9F0243049F78091B9
:1005000080008F7D03C0809180008F778093800072
:10051000DFCF84B58F7784BDDBCF84B58F7DFBCFF4
:100520008091B0008F778093B000D2CF8091B000DF
:100530008F7DF9CF3E2BDACFCF93DF9390E0FC0194
:10054000E855FE4F24918C569E4FFC0184918823E0
:10055000D1F090E0880F991FFC01EE59FE4FA59154
:10056000B491FC01E459FE4FC591D491623071F40D
:100570009FB7F8943C91822F809583238C93E881D8
:100580002E2B28839FBFDF91CF9108958FB7F894CA
:10059000EC912E2B2C938FBFF6CF3FB7F894809120
:1005A000310190913201A0913301B091340126B50F
:1005B000A89B05C02F3F19F00196A11DB11D3FBF9B
:1005C000BA2FA92F982F8827BC01CD01620F711D6A
:1005D000811D911D42E0660F771F881F991F4A9564
:1005E000D1F708958F929F92AF92BF92CF92DF92F0
:1005F000EF92FF926B017C010E94CD024B015C01E6
:10060000C114D104E104F104B9F00E94CD026819CB
:1006100079098A099B09683E73408105910580F339
:1006200021E0C21AD108E108F10888EE880E83E0C3
:10063000981EA11CB11CE4CFFF90EF90DF90CF90EB
:10064000BF90AF909F908F900895CF92DF92EF92DE
:10065000FF920F931F93CF93DF93CDB7DEB7C054B4
:10066000D1400FB6F894DEBF0FBECDBF2FB7F894C0
:1006700080914B0190914C01A0914D01B0914E01A0
:100680002FBF4091070250910802609109027091BA
:100690000A028C019D01041B150B260B370BB901B7
:1006A000A801403D57406105710590F480910F020B
:1006B000C05CDE4F0FB6F894DEBF0FBECDBFDF913A
:1006C000CF911F910F91FF90EF90DF90CF90089501
:1006D0008093070290930802A0930902B0930A0244
:1006E0001092020210920102109200021092FF0179
:1006F0001092FE0162E0809103020E949C0261E080
:1007000070E080E090E00E94F20261E080910302DC
:100710000E949C0260E0809103020E94500280913E
:1007200004028551823020F58BE291E10197F1F7C7
:1007300062E0809103020E949C028091100290E08E
:100740008230910538F0880F991F880F991F0597FF
:100750000197F1F7F89480E00E940A016F3F7F4F04
:100760008F4F9F4F61F410920F02789480E0A0CFDA
:1007700064E170E080E090E00E94F202D9CF81E075
:100780000E940A016F3F7F4F8F4F9F4F61F38E0191
:100790000F5F1F4F6E018FEBC81A8EEFD80A7801DA
:1007A00080E00E940A01F701608371838283938352
:1007B00081E00E940A01F701648375838683978331
:1007C000F8E0EF0EF11CEC14FD0451F7789430E0E2
:1007D00020E0F801C080D180E280F380448155811F
:1007E00066817781FFEFCF16DF06EF06FF0631F057
:1007F0004F3F8FEF58076807780719F410920F02E0
:10080000B5CFF90183E0F595E7958A95E1F7E250D8
:10081000FE4F8081880FC416D506E606F70610F154
:1008200080832F5F3F4F085F1F4F2832310589F6C5
:10083000409102022091FE018091FF01280F332791
:10084000331F80910002280F311D80910102820F19
:10085000932F911D99274817190681F681E08093FF
:100860000F0226CF8160DCCF0F931F93CF93DF93CE
:100870008C01EB01FC01808191810097E1F068819E
:10088000798161157105A9F0428153812C813D81E7
:100890004217530770F00E9439108C819D81F80136
:1008A000958384831D821C82DF91CF911F910F91CC
:1008B00008950E94E10E88819981F80191838083D7
:1008C0008A819B81938382838C819D81958384839C
:1008D000198218821B821A82E5CFCF93DF93EC0135
:1008E00088819981009711F00E94E10E1982188287
:1008F0001D821C821B821A82DF91CF910895FC0118
:1009000080819181009711F00C94E10E08950F936E
:100910001F93CF93DF93EC0188819981009759F061
:100920002A813B812617370730F081E0DF91CF9194
:100930001F910F9108958B016F5F7F4F0E946A0F87
:10094000009759F0998388831B830A832C813D810A
:10095000232B59F7FC011082E8CF80E0E7CFEF921C
:10096000FF920F931F93CF93DF936115710541F4AD
:1009700080E0DF91CF911F910F91FF90EF9008954C
:1009800041155105B1F07B01EC010C811D81040F73
:10099000151FB8010E948704882351F328813981EB
:1009A0008C819D81B701820F931F0E9439101D8396
:1009B0000C8381E0DECFEF92FF920F931F93CF93D2
:1009C000DF93EC017B018A01BA010E948704811147
:1009D0000BC0CE010E946D04CE01DF91CF911F911B
:1009E0000F91FF90EF9008951D830C83B7018881CC
:1009F00099810E943910F0CFFB0101900020E9F7A6
:100A00003197AF01461B570B0C94DB04CF93DF9358
:100A1000EC01FB018617970749F060817181611530
:100A2000710541F0448155810E94DB04CE01DF91C4
:100A3000CF9108950E946D04F9CFFC0111821082BC
:100A40001382128215821482FB0101900020E9F7C3
:100A50003197AF01461B570B0C94DB041F920F928A
:100A60000FB60F9211242F933F934F935F936F9381
:100A70007F938F939F93AF93BF93EF93FF938FE4F5
:100A800091E00E947F01FF91EF91BF91AF919F9103
:100A90008F917F916F915F914F913F912F910F9027
:100AA0000FBE0F901F9018951F920F920FB60F92C6
:100AB00011242F938F939F93EF93FF93E0915F0106
:100AC000F09160018081E0916501F091660182FD05
:100AD0001BC09081809168018F5F8F7320916901A5
:100AE000821741F0E0916801F0E0E15BFE4F958FE5
:100AF00080936801FF91EF919F918F912F910F90BB
:100B00000FBE0F901F9018958081F4CF1F920F9207
:100B10000FB60F9211242F933F938F939F93AF9310
:100B2000BF9380914B0190914C01A0914D01B091E8
:100B30004E013091300123E0230F2D3758F50196F7
:100B4000A11DB11D2093300180934B0190934C0166
:100B5000A0934D01B0934E018091310190913201EB
:100B6000A0913301B09134010196A11DB11D809374
:100B7000310190933201A0933301B0933401BF91BE
:100B8000AF919F918F913F912F910F900FBE0F903A
:100B90001F90189526E8230F0296A11DB11DD2CFF4
:100BA000EFE4F1E01382128288EE93E0A0E0B0E07F
:100BB00084839583A683B7838EE191E091838083BC
:100BC00085EC90E09587848784EC90E09787868712
:100BD00080EC90E0918B808B81EC90E0938B828B0A
:100BE00082EC90E0958B848B86EC90E0978B868BE3
:100BF000118E128E138E148EAEEFB1E08BE015962F
:100C00008C93159716968C931697E3EBF1E0E4918D
:100C10001796EC931797EFE9F1E0E4911896EC93AF
:100C2000189740E85EE360E070E01D964D935D9399
:100C30006D937C9350976FE271E088EF91E00E9492
:100C40001D056FE271E082EF91E00E941D056FE2E9
:100C500071E08CEE91E00C941D05CF93DF93CDB73E
:100C6000DEB7A7970FB6F894DEBF0FBECDBF78945E
:100C700084B5826084BD84B5816084BD85B58260A1
:100C800085BD85B5816085BD80916E008160809352
:100C90006E001092810080918100826080938100BB
:100CA00080918100816080938100809180008160CB
:100CB000809380008091B10084608093B100809126
:100CC000B00081608093B00080917A00846080934E
:100CD0007A0080917A00826080937A0080917A0015
:100CE000816080937A0080917A00806880937A0096
:100CF0001092C10062E0809103020E949C022FB713
:100D0000F89480914B0190914C01A0914D01B091CC
:100D10004E012FBF805D9740A109B1098093070262
:100D200090930802A0930902B0930A0287E380938C
:100D3000100261E088E00E949C0261E089E00E946C
:100D40009C0261E08AE00E949C0260E088E00E94D0
:100D5000500260E089E00E94500260E08AE00E9458
:100D6000500206E011E07801D7018C91B2E0EB0E61
:100D7000F11C61E00E949C02E4E1EE16E1E0FE0657
:100D800099F7D8018C910E5F1F4F60E00E945002CE
:100D9000B1E004311B07A9F730E0432E30E0532EB9
:100DA000EE24E394F12C0E942503882341F08091E6
:100DB00004028C3009F42FC138F48B30F1F060E07C
:100DC00070E080EC9FE741C085518230C0F7109100
:100DD0000002612F70E0762F662766277F7780916B
:100DE0000102682B90E080E00E94A00C2DEC3CEC0E
:100DF0004CEC5DE30E94DD0C2AC16091000270E0C2
:100E000090E080E00E94A00C4B015C011091010277
:100E100017FF0AC0AC019B0160E070E080E89FEB27
:100E20000E94D20D4B015C011F70612F70E090E0B9
:100E300080E00E94A20C2DEC3CEC4CEC5DE30E94A7
:100E4000DD0CA50194010E94D30D1BA21AA21DA2C4
:100E50001CA21FA21EA28E010F5F1F4F22E044E0C2
:100E60000E940F0A009709F4F6C0BC01CE018296D9
:100E70000E94FC04BE016E5D7F4F88EF91E00E94EE
:100E80003404CE0182960E947F048091FC019091EF
:100E9000FD010091F8011091F901892B09F4E0C0DE
:100EA0006EE271E0C8010E943010892B09F0D8C0B1
:100EB0006CE271E088EF91E00E94FC0468EF71E061
:100EC00082EF91E00E94060595E4692E91E0792E6B
:100ED000530110E000E00F5F1F4F4801E1E08E1A60
:100EE00091086FE271E0CE0101960E941D0580918C
:100EF000F6019091F7018816990618F56801801798
:100F0000910708F46C01E091F201F091F301EC0D0E
:100F1000FD1D308010826091F2017091F301680D27
:100F2000791DCE0101966115710509F4D1C00E94A9
:100F3000FC048091F2019091F301C80ED91ED601F4
:100F40003C92BE016F5F7F4F8CEE91E00E943404B3
:100F5000CE0101960E947F048091EC019091ED01F9
:100F6000009709F4B8C00E942D0AF50161937193AE
:100F70005F010330110509F0AECF84E1882E81E0D6
:100F8000982E10E000E060E08AE00115110519F0EC
:100F9000F401329780810E945002D4018C91B2E01A
:100FA0008B0E911C61E00E945002D301ED91FD91E6
:100FB0003D01F0934401E0934301A0904101B090C2
:100FC0004201EA30F10508F0B4C0EF5FF74FC0907E
:100FD0003F01D0904001A0913D01B0913E01609150
:100FE0003B0170913C014091390150913A012091AF
:100FF00037013091380180913501909136010C9480
:101000003F0E6F080C093609630983099E09BF0961
:10101000E609EE09FB0910910002612F70E090E0F3
:1010200080E00E94A00C4B015C01609101026F7096
:1010300070E090E080E00E94A20C2DEC3CEC4CECC7
:101040005DE30E94DD0CA50194010E94D30D17FF02
:10105000FCCE9058FACECE0182960E946D040ACF43
:101060000115110541F0C8010E942D0A6A30710571
:101070008105910524F56DE271E0CE0101960E9493
:101080001D054091FC015091FD016091F8017091A6
:10109000F901CE0101960E94AF04811104C0CE0176
:1010A00001960E946D04BE016F5F7F4F88EF91E053
:1010B0000E940605CE0101960E947F04FFCE643691
:1010C0007105810591050CF0F9CE6EE271E0D5CF86
:1010D0000E946D042ECF60E070E0CB0146CFAB28BC
:1010E00021F4F0924201E0924101CD2821F4F092E6
:1010F0004001E0923F01AB2B21F4F0923E01E092DF
:101100003D01672B21F4F0923C01E0923B01452B1D
:1011100021F4F0923A01E0923901232B21F4F0926C
:101120003801E0923701019721F4109236011092B4
:101130003501809141019091420160E0009719F0E2
:10114000019721F461E081E00E94500280913F010B
:101150009091400160E0009719F0019721F461E05F
:1011600082E00E94500280913D0190913E0160E03A
:10117000009719F0019721F461E083E00E9450028A
:1011800080913B0190913C0160E0009719F001973C
:1011900021F461E084E00E94500280913901909135
:1011A0003A0160E0009719F0019721F461E085E0D1
:1011B0000E945002809137019091380160E00097C1
:1011C00019F0019721F461E086E00E9450028091BD
:1011D00035019091360160E0009719F0019721F4F4
:1011E00061E087E00E9450026AE070E080E090E0F9
:1011F0000E94F2020F5F1F4F0330110509F0C3CEAA
:101200004114510409F4CFCD0E940E02882309F441
:10121000CACD0E940000C7CDAA94AB2821F4109239
:10122000420110924101CD2821F4F0924001E09258
:101230003F01AB2B21F4F0923E01E0923D01613081
:10124000710521F410923C0110923B01413051058F
:1012500021F410923A01109239012130310509F040
:1012600062CF10923801109237015DCFAB2821F484
:10127000F0924201E0924101CD2821F4F092400128
:10128000E0923F01119721F410923E0110923D012E
:10129000672B21F4F0923C01E0923B01452B21F4B5
:1012A000F0923A01E09239012130310521F4109297
:1012B000380110923701892B09F03BCFF0923601AB
:1012C000E092350136CFAB2821F4F0924201E09252
:1012D0004101CD2821F4F0924001E0923F01AB2B77
:1012E00021F4F0923E01E0923D01672B21F4F0924F
:1012F0003C01E0923B0141305105B1F610923A01B8
:1013000010923901D1CFAA94AB2821F41092420156
:1013100010924101CD2821F4F0924001E0923F016A
:10132000AB2B21F4F0923E01E0923D01613071055A
:10133000F1F410923C0110923B0119C0AB2821F44A
:10134000F0924201E0924101CA94CD2821F410921A
:10135000400110923F01AB2B21F4F0923E01E0924C
:101360003D01672B21F4F0923C01E0923B014130BA
:10137000510521F510923A01109239011FC0AB2896
:1013800021F4F0924201E0924101CA94CD2821F467
:101390001092400110923F01AB2B21F4F0923E01DC
:1013A000E0923D01672B21F4F0923C01E0923B0179
:1013B000452B21F4F0923A01E0923901232B09F0F8
:1013C0007ACFF0923801E092370175CFAB2809F05F
:1013D0002ACFF0924201E092410125CFAB2821F4BF
:1013E000F0924201E0924101CD28B1F6F092400125
:1013F000E0923F01D1CFAB2809F08CCFF0924201AF
:10140000E092410187CF8CEE91E00E947F0482EF51
:1014100091E00E947F0488EF91E00C947F04EF92AA
:101420000F931F93CF93DF93E80134E047FD34E13E
:10143000042E000C550B57FF03C0519541955109DF
:10144000E32E022F242FAE010E94690ACE01DF9104
:10145000CF911F910F91EF9008951F93FC01992751
:101460008827BC01E89411911032E9F3193010F08B
:101470001E30C8F31B3251F01D3249F4689406C087
:101480000E94540A610F711D811D911D119110530D
:101490001A30B0F33EF490958095709561957F4F2A
:1014A0008F4F9F4F1F910895592F482F372F262F69
:1014B000660F771F881F991F660F771F881F991F58
:1014C000620F731F841F951F660F771F881F991F58
:1014D0000895A9E0B0E0EFE6FAE00C94A10D6A01EE
:1014E000F22EB02E102FFBE3AF2EA01608F41BE354
:1014F0001F5F012F27E0AE014F5F5F4F0E94C80BB7
:10150000BC018981982F9970913009F43FC09BE20A
:10151000E1FC04C09E2D9170E0FC3AC05E2D50713C
:10152000E82FE87083FF46C084E0911101C083E09A
:10153000EF2DE81B8F1508F0E0E0D6018E2F20E29A
:10154000552351F1992329F0D6019C93C6010196A8
:101550006C0196012D5F3F4FE2FE24C08EE4D60160
:101560008C9391E411969C93119712968C93D901C8
:101570008E2F90E281111BC0E20FF32FF11D10821C
:101580008EEF9FEF2996ECE00C94BD0D9DE2C6CF47
:1015900090E2C4CF2D9381508111FCCFCE0ED11C8F
:1015A000E0E0D0CF8EE6D6018C9391E6DBCF9D9321
:1015B0008150E0CF482F447082FF3DC084E09111FC
:1015C00001C083E08F1510F4EF2DE81BD6018E2F9C
:1015D00020E2552309F1992329F0D6019C93C601F5
:1015E00001966C0196012D5F3F4FE2FE1BC089E41E
:1015F000D6018C938EE411968C93119786E4129603
:101600008C93D9018E2F90E2882309F4B5CF9D9356
:101610008150FACF2D9381508111FCCFCE0ED11C79
:10162000E0E0D9CF89E6D6018C938EE611968C93B3
:10163000119786E6E4CF9B0177FF02C030E020E0FF
:10164000A1E0B0E0911102C0B0E0A0E0F901319654
:10165000AE0FBF1F8B2C912CBB2009F461C054012D
:10166000EFEFAE1ABE0AAA0DBB1DFA161B0619F043
:1016700014F04F2D4A1B511188C0E3FC59C076016C
:10168000A42FB0E2A1114FC0C40ED11C992309F4BC
:101690005BC040E0D6011196F60190836D015523A1
:1016A00009F448C0012F060F9A81582F507184FF0A
:1016B00003C0913309F4015010160CF047C00930F3
:1016C00008F008E0EEE2FE2E5B01A01AB1088501E9
:1016D0009194819491082F3F320729F4D601FC920E
:1016E000F60131966F016217730794F10217130721
:1016F0007CF5DB01A21BB30BAA24A394B12CAC0E86
:10170000BD1EAA0DBB1D11968C9121503109D60129
:10171000119628153905F4F0F60180836D01DBCFB1
:10172000B12CA12CA0CFF701B1937F01A150AACF7A
:101730009111B0CFD601942F50E302C05D93915028
:101740009111FCCFC40ED11C40E0ACCF01E0BACF68
:1017500080E3DBCF6217730731F4963388F4953357
:1017600011F4552369F0F6018083FD01842F90E286
:10177000811108C0A40FB11D1C9290E080E002CF3F
:1017800081E3F1CF91938150F3CF911183CF8ACF31
:10179000283008F027E03327DA01990F311D87FD43
:1017A000916000966105710539F432602E5F3D93BA
:1017B00030E32A95E1F708959F3F30F080387105B6
:1017C000610509F03C5F3C5F3D93913008F0806813
:1017D000911DDF93CF931F930F93FF92EF92192FD9
:1017E000987F9695E92F96959695E90FFF27EE53EA
:1017F000FF4F99273327EE24FF24A701E701059027
:101800000894079428F4360FE71EF81E491F511D4F
:10181000660F771F881F991F0694A1F705900794FC
:1018200028F4E70EF81E491F561FC11D770F881FA9
:10183000991F661F0694A1F70590079428F4F80EE7
:10184000491F561FC71FD11D880F991F661F771F7D
:101850000694A1F70590079420F4490F561FC71F5F
:10186000D81F990F661F771F881F0694A9F78491C8
:101870001095177041F0D695C79557954795F794F1
:10188000E7941A95C1F7E8E6F0E068941590159191
:1018900035916591959105907FE27395E118F10A74
:1018A000430B560BC90BD009C0F7E10CF11E431FC7
:1018B000561FC91FD01D7EF4703311F48A95E6CFF0
:1018C000E894015030F0080F0AF40027021708F4DA
:1018D000202F2395022F7A3328F079E37D932A95E0
:1018E000E9F710C07D932A9589F606949795679538
:1018F000379517951794E118F10A430B560BC90B4E
:10190000D00998F023957E9173957A3308F070E3AF
:101910007C932013B8F77E9170617D9330F08395AE
:1019200071E37D9370E32A95E1F71124EF90FF9026
:101930000F911F91CF91DF91992787FD9095089581
:10194000E89409C097FB3EF4909580957095619559
:101950007F4F8F4F9F4F9923A9F0F92F96E9BB270F
:101960009395F695879577956795B795F111F8CF8B
:10197000FAF4BB0F11F460FF1BC06F5F7F4F8F4FF6
:101980009F4F16C0882311F096E911C0772321F0EC
:101990009EE8872F762F05C0662371F096E8862F84
:1019A00070E060E02AF09A95660F771F881FDAF7DB
:1019B000880F9695879597F908950E94F00C0C94DE
:1019C000610D0E94530D38F00E945A0D20F09523AE
:1019D00011F00C944A0D0C94500D11240C94950D9B
:1019E0000E94720D70F3959FC1F3950F50E0551F43
:1019F000629FF001729FBB27F00DB11D639FAA2764
:101A0000F00DB11DAA1F649F6627B00DA11D661FB2
:101A1000829F2227B00DA11D621F739FB00DA11DD3
:101A2000621F839FA00D611D221F749F3327A00D8D
:101A3000611D231F849F600D211D822F762F6A2F29
:101A400011249F5750409AF0F1F088234AF0EE0F8E
:101A5000FF1FBB1F661F771F881F91505040A9F7BB
:101A60009E3F510580F00C944A0D0C94950D5F3FFC
:101A7000E4F3983ED4F3869577956795B795F795F7
:101A8000E7959F5FC1F7FE2B880F911D969587956F
:101A900097F9089597F99F6780E870E060E00895EE
:101AA0009FEF80EC089500240A9416161706180676
:101AB0000906089500240A94121613061406050652
:101AC0000895092E0394000C11F4882352F0BB0FE3
:101AD00040F4BF2B11F460FF04C06F5F7F4F8F4F46
:101AE0009F4F089557FD9058440F551F59F05F3F81
:101AF00071F04795880F97FB991F61F09F3F79F030
:101B000087950895121613061406551FF2CF4695B1
:101B1000F1DF08C0161617061806991FF1CF869533
:101B20007105610508940895E894BB276627772717
:101B3000CB0197F908952F923F924F925F926F9247
:101B40007F928F929F92AF92BF92CF92DF92EF924D
:101B5000FF920F931F93CF93DF93CDB7DEB7CA1BCE
:101B6000DB0B0FB6F894DEBF0FBECDBF09942A88F9
:101B7000398848885F846E847D848C849B84AA84A1
:101B8000B984C884DF80EE80FD800C811B81AA812E
:101B9000B981CE0FD11D0FB6F894DEBF0FBECDBFF9
:101BA000ED0108955058BB27AA270E94EA0D0C9416
:101BB000610D0E94530D38F00E945A0D20F039F447
:101BC0009F3F19F426F40C94500D0EF4E095E7FBBA
:101BD0000C944A0DE92F0E94720D58F3BA17620750
:101BE00073078407950720F079F4A6F50C94940DFB
:101BF0000EF4E0950B2EBA2FA02D0B01B901900128
:101C00000C01CA01A0011124FF27591B99F0593F6B
:101C100050F4503E68F11A16F040A22F232F342FB3
:101C20004427585FF3CF469537952795A795F04001
:101C30005395C9F77EF41F16BA0B620B730B840B16
:101C4000BAF09150A1F0FF0FBB1F661F771F881FCE
:101C5000C2F70EC0BA0F621F731F841F48F4879526
:101C600077956795B795F7959E3F08F0B0CF939518
:101C7000880F08F09927EE0F979587950895EE0F36
:101C8000FF1F0590F491E02D09940F931F93CF93BC
:101C9000DF938230910510F482E090E0E09113022E
:101CA000F091140230E020E0B0E0A0E0309799F429
:101CB0002115310509F44AC0281B390B24303105A0
:101CC000D8F58A819B816115710589F1FB019383A8
:101CD0008283FE0111C04081518102811381481726
:101CE0005907E0F04817590799F4109761F01296D8
:101CF0000C93129713961C933296CF01DF91CF91DC
:101D00001F910F9108950093130210931402F4CFC2
:101D10002115310551F04217530738F0A901DB01B5
:101D20009A01BD01DF01F801C1CFEF01F9CF909316
:101D3000140280931302CDCFFE01E20FF31F8193B3
:101D400091932250310939832883D7CF20911102F2
:101D500030911202232B41F42091020130910301B2
:101D60003093120220931102209100013091010161
:101D70002115310541F42DB73EB740910401509132
:101D80000501241B350BE0911102F0911202E217BC
:101D9000F307A0F42E1B3F0B2817390778F0AC018E
:101DA0004E5F5F4F2417350748F04E0F5F1F50936B
:101DB000120240931102819391939FCFF0E0E0E0F3
:101DC0009CCFCF93DF930097E9F0FC013297138209
:101DD0001282A0911302B0911402ED0130E020E0D4
:101DE0001097A1F420813181820F931F209111025D
:101DF000309112022817390709F061C0F0931202DE
:101E0000E0931102DF91CF910895EA01CE17DF0729
:101E1000E8F54A815B819E0141155105B1F7E90161
:101E2000FB83EA8349915991C40FD51FEC17FD0735
:101E300061F4808191810296840F951FE901998355
:101E40008883828193819B838A83F0E0E0E012960D
:101E50008D919C9113970097B9F52D913C91119715
:101E6000CD010296820F931F209111023091120230
:101E70002817390739F6309751F51092140210924D
:101E80001302B0931202A0931102BCCFD383C2837A
:101E900040815181840F951FC817D90761F44E5FA7
:101EA0005F4F88819981480F591F518340838A81F0
:101EB0009B81938382832115310509F0B0CFF09384
:101EC0001402E09313029ECFFD01DC01C0CF138208
:101ED0001282D7CFB0E0A0E0E0E7FFE00C949D0DC8
:101EE0008C01009751F4CB010E94450E8C01C80172
:101EF000CDB7DEB7E0E10C94B90DFC01E60FF71F9A
:101F00009C0122503109E217F30708F49DC0D90162
:101F1000CD91DC911197C617D70798F0C530D10540
:101F200030F3CE0104978617970708F3C61BD70B2B
:101F30002297C193D1936D937C93CF010E94E10EC0
:101F4000D6CF5B01AC1ABD0A4C018C0E9D1EA09130
:101F50001302B0911402512C412CF12CE12C10975A
:101F600031F580911102909112028815990509F0BE
:101F70005CC04616570608F058C080910001909149
:101F80000101009741F48DB79EB740910401509133
:101F90000501841B950BE817F90708F055C0F0936D
:101FA0001202E0931102F90171836083A0CF8D9139
:101FB0009C91119712966C90129713967C901397A0
:101FC000A815B90559F56C0142E0C40ED11CCA141C
:101FD000DB0420F1AC014A195B09DA01129615976E
:101FE00080F06282738251834083D9016D937C9328
:101FF000E114F10471F0D7011396FC93EE9312975C
:1020000076CF22968C0F9D1FF90191838083F30177
:10201000EFCFF0931402E093130269CF48165906EC
:1020200008F42C017D01D3019ACFCB010E94450E0B
:102030007C01009749F0AE01B8010E942710C80149
:102040000E94E10E870153CF10E000E050CFFB016A
:10205000DC0102C001900D9241505040D8F7089524
:10206000FB01DC018D91019080190110D9F3990BCE
:102070000895FB01DC0101900D920020E1F7089525
:1020800010E0CFEDD0E004C0FE010E943F0E21968B
:10209000C03ED107C9F7F894FFCF000015028000B9
:1020A000010002000300040005000600070008000C
:1020B00009000A0000000000A10123024201EE0114
:0A20C000730151016501303030005A
:107E0000112484B714BE81FFF0D085E080938100F7
:107E100082E08093C00088E18093C10086E0809377
:107E2000C20080E18093C4008EE0C9D0259A86E02C
:107E300020E33CEF91E0309385002093840096BBD3
:107E4000B09BFECF1D9AA8958150A9F7CC24DD24C4
:107E500088248394B5E0AB2EA1E19A2EF3E0BF2EE7
:107E6000A2D0813461F49FD0082FAFD0023811F036
:107E7000013811F484E001C083E08DD089C08234E0
:107E800011F484E103C0853419F485E0A6D080C0E4
:107E9000853579F488D0E82EFF2485D0082F10E0AE
:107EA000102F00270E291F29000F111F8ED06801E7
:107EB0006FC0863521F484E090D080E0DECF843638
:107EC00009F040C070D06FD0082F6DD080E0C81688
:107ED00080E7D80618F4F601B7BEE895C0E0D1E017
:107EE00062D089930C17E1F7F0E0CF16F0E7DF06D8
:107EF00018F0F601B7BEE89568D007B600FCFDCFD4
:107F0000A601A0E0B1E02C9130E011968C91119780
:107F100090E0982F8827822B932B1296FA010C0160
:107F200087BEE89511244E5F5F4FF1E0A038BF0790
:107F300051F7F601A7BEE89507B600FCFDCF97BE46
:107F4000E89526C08437B1F42ED02DD0F82E2BD052
:107F50003CD0F601EF2C8F010F5F1F4F84911BD097
:107F6000EA94F801C1F70894C11CD11CFA94CF0C13
:107F7000D11C0EC0853739F428D08EE10CD085E9AC
:107F80000AD08FE07ACF813511F488E018D01DD067
:107F900080E101D065CF982F8091C00085FFFCCF94
:107FA0009093C60008958091C00087FFFCCF809118
:107FB000C00084FD01C0A8958091C6000895E0E648
:107FC000F0E098E1908380830895EDDF803219F02E
:107FD00088E0F5DFFFCF84E1DECF1F93182FE3DFCA
:107FE0001150E9F7F2DF1F91089580E0E8DFEE27F6
:047FF000FF270994CA
:027FFE00040479
:00000001FF
