:020000040000FA
:100000000C945D000C9485000C9485000C94850084
:100010000C9485000C9485000C9485000C9485004C
:100020000C9485000C9485000C9485000C9485003C
:100030000C9485000C9485000C9485000C9485002C
:100040000C9419030C9485000C9489030C9463039D
:100050000C9485000C9485000C9485000C9485000C
:100060000C9485000C9485000000000024002700FB
:100070002A0000000000250028002B0004040404CE
:100080000404040402020202020203030303030342
:10009000010204081020408001020408102001021F
:1000A00004081020000000080002010000030407FB
:1000B00000000000000000004A0711241FBECFEF1F
:1000C000D8E0DEBFCDBF11E0A0E0B1E0E4EDFFE09D
:1000D00002C005900D92A633B107D9F721E0A6E33F
:1000E000B1E001C01D92A03EB207E1F710E0CDE5FE
:1000F000D0E004C02197FE010E94E207CC35D10771
:10010000C9F70E94BB030C94E8070C940000AF925F
:10011000BF92CF92DF92EF92FF920F931F93CF93F4
:10012000DF936C017B018B01040F151FEB015E0156
:10013000AE18BF08C017D10759F06991D601ED91EB
:10014000FC910190F081E02DC6010995892B79F78A
:10015000C501DF91CF911F910F91FF90EF90DF903C
:10016000CF90BF90AF900895FC01538D448D252F03
:1001700030E0842F90E0821B930B541710F0CF9641
:10018000089501970895FC01918D828D981761F073
:10019000A28DAE0FBF2FB11D5D968C91928D9F5F8A
:1001A0009F73928F90E008958FEF9FEF0895FC0169
:1001B000918D828D981731F0828DE80FF11D858D1C
:1001C00090E008958FEF9FEF0895FC01918D228DAF
:1001D000892F90E0805C9F4F821B91098F73992734
:1001E000089583E491E00E94E50021E0892B09F461
:1001F00020E0822F089580E090E0892B29F00E9472
:10020000F10081110C9400000895FC01A48DA80F49
:10021000B92FB11DA35ABF4F2C91848D90E0019648
:100220008F739927848FA689B7892C93A089B18968
:100230008C91837080648C93938D848D981306C009
:100240000288F389E02D80818F7D80830895EF926D
:10025000FF920F931F93CF93DF93EC0181E0888F80
:100260009B8D8C8D98131AC0E889F989808185FF50
:1002700015C09FB7F894EE89FF896083E889F989F2
:1002800080818370806480839FBF81E090E0DF91F4
:10029000CF911F910F91FF90EF900895F62E0B8D47
:1002A00010E00F5F1F4F0F731127E02E8C8D8E1102
:1002B0000CC00FB607FCFACFE889F989808185FF69
:1002C000F5CFCE010E940501F1CFEB8DEC0FFD2F94
:1002D000F11DE35AFF4FF0829FB7F8940B8FEA8924
:1002E000FB8980818062CFCFCF93DF93EC01888D33
:1002F0008823B9F0AA89BB89E889F9898C9185FDA1
:1003000003C0808186FD0DC00FB607FCF7CF8C912E
:1003100085FFF2CF808185FFEDCFCE010E940501E0
:10032000E9CFDF91CF91089590E0FC01EC55FF4FAC
:100330002491FC01E057FF4F3491FC01E458FF4F3A
:10034000E491EE23C9F0222339F0233001F1A8F41F
:10035000213019F1223029F1F0E0EE0FFF1FEE58A5
:10036000FF4FA591B4918FB7F894EC91611126C01D
:1003700030953E233C938FBF08952730A9F0283055
:10038000C9F0243049F7809180008F7D03C08091AF
:1003900080008F7780938000DFCF84B58F7784BD16
:1003A000DBCF84B58F7DFBCF8091B0008F778093BA
:1003B000B000D2CF8091B0008F7DF9CF3E2BDACF45
:1003C000CF93DF9390E0FC01E057FF4F24918458D6
:1003D0009F4FFC0184918823D1F090E0880F991FF2
:1003E000FC01E859FF4FA591B491FC01EE58FF4F75
:1003F000C591D49161110EC09FB7F8948C91E22FF2
:10040000E0958E238C932881E223E8839FBFDF91C0
:10041000CF9108958FB7F894EC91E22BEC938FBFB6
:10042000F6CF1F93CF93DF93182FEB0161E00E946B
:10043000E001209739F460E0812FDF91CF911F9187
:100440000C949401CF3FD10511F461E0F5CFE12F79
:10045000F0E0EC55FF4FE491E33031F140F4E1304E
:10046000B1F0E230E1F0C038D1057CF7E4CFE730FD
:1004700029F1E83059F1E430B1F7809180008062D1
:1004800080938000D0938B00C0938A0004C084B511
:10049000806884BDC7BDDF91CF911F91089584B559
:1004A000806284BDC8BDF7CF809180008068809352
:1004B0008000D0938900C0938800EDCF8091B00078
:1004C00080688093B000C093B300E5CF8091B00006
:1004D00080628093B000C093B400DDCF8E3008F00E
:1004E0008E508770806480937C0080917A00806455
:1004F00080937A0080917A0086FDFCCF809178000D
:10050000909179000895FC0101900020E9F731975E
:10051000AF01481B590BBC0183E491E00C948700A8
:100520008F929F92AF92BF920F931F93CF93DF93BF
:10053000CDB7DEB7A1970FB6F894DEBF0FBECDBF23
:1005400019A2423008F44AE08E010F5D1F4F842E3D
:10055000912CB12CA12CA50194010E94A107E62F9A
:10056000B901CA01EA30F4F4E05DD801EE938D01DF
:10057000232B242B252B79F790E080E0109719F09E
:10058000CD010E948302A1960FB6F894DEBF0FBE84
:10059000CDBFDF91CF911F910F91BF90AF909F90F2
:1005A0008F900895E95CE1CFCF92DF92EF92FF92B6
:1005B000CF93DF936B017C016DE283E491E00E94B5
:1005C0002701EC0166277727CB016C197D098E097D
:1005D0009F094AE00E9490028C0F9D1FDF91CF91EE
:1005E000FF90EF90DF90CF9008950C948302CF930B
:1005F000DF93BC01990F880B990B97FF0CC00E94E9
:10060000D402EC0182E191E00E9483028C0F9D1FD5
:10061000DF91CF9108954AE00E949002F2CFBC0191
:10062000990F880B990B97FD0C94D4024AE00C9417
:1006300090021F920F920FB60F9211242F933F93A7
:100640008F939F93AF93BF9380913F01909140010F
:10065000A0914101B091420130913E0123E0230F6E
:100660002D3758F50196A11DB11D20933E018093B1
:100670003F0190934001A0934101B09342018091CA
:100680003A0190913B01A0913C01B0913D0101964E
:10069000A11DB11D80933A0190933B01A0933C01B1
:1006A000B0933D01BF91AF919F918F913F912F9159
:1006B0000F900FBE0F901F90189526E8230F0296FB
:1006C000A11DB11DD2CF1F920F920FB60F92112410
:1006D0002F933F934F935F936F937F938F939F934A
:1006E000AF93BF93EF93FF9383E491E00E940501E2
:1006F000FF91EF91BF91AF919F918F917F916F91FA
:100700005F914F913F912F910F900FBE0F901F90CF
:1007100018951F920F920FB60F9211242F938F935B
:100720009F93EF93FF93E0915301F09154018081E7
:10073000E0915901F0915A0182FD1BC09081809196
:100740005C018F5F8F7320915D01821741F0E09112
:100750005C01F0E0ED5BFE4F958F80935C01FF91B3
:10076000EF919F918F912F910F900FBE0F901F903F
:1007700018958081F4CFCF93DF93CDB7DEB728975C
:100780000FB6F894DEBF0FBECDBF789484B58260FB
:1007900084BD84B5816084BD85B5826085BD85B525
:1007A000816085BD80916E00816080936E001092A3
:1007B000810080918100826080938100809181001E
:1007C00081608093810080918000816080938000AF
:1007D0008091B10084608093B1008091B00081600D
:1007E0008093B00080917A00846080937A00809139
:1007F0007A00826080937A0080917A008160809391
:100800007A0080917A00806880937A001092C1000B
:10081000E0915301F091540182E08083E0914F0117
:10082000F09150011082E0915101F09152018FEC52
:10083000808310925B01E0915701F091580186E0AE
:100840008083E0915501F091560180818061808321
:10085000E0915501F0915601808188608083E0919C
:100860005501F0915601808180688083E0915501A7
:10087000F091560180818F7D808361E085E00E9448
:10088000E00161E086E00E94E00161E084E00E9416
:10089000E00161E087E00E94E00160E08EE00E94FC
:1008A000E00160E08FE00E94E00184EF882E99244F
:1008B0009394A12CB12C00E010E08EE00E946E0217
:1008C0006C0190933901809338018FE00E946E0291
:1008D0009A8389839093370180933601C601855F9F
:1008E000914029813A81255F31408631910538F563
:1008F0002631310520F560E084E00E94940160E03B
:1009000087E00E94940170E060E085E00E9411029F
:1009100070E060E086E00E94110285E191E00E94B3
:10092000830282E191E00E9483020115110529F200
:100930000E94F100882309F20E940000BECF2631F8
:10094000310508F05DC02CE0C21622E0D2067CF131
:1009500061E084E00E94940161E087E00E949401DC
:100960000D2C000CEE08FF08A70196012B50324019
:1009700041095109AEEFB0E00E949607A50194012C
:100980000E94770769017A018FEFC81AD80AE80A2E
:10099000F80AB60185E00E941102B60186E00E94C5
:1009A00011028DE191E00E94F502C601FBC0A4EFA7
:1009B000CA16A1E0DA0624F560E084E00E94940102
:1009C00060E087E00E9494010D2C000CEE08FF0807
:1009D000A7019601245F314041095109AEEFB0E013
:1009E0000E9496072CE03EEF4FEF5FEF0E947707E3
:1009F00069017A01BFEFCB1ADB0AEB0AFB0AC9CF08
:100A0000469708F048C029813A81243F314024F5B7
:100A100060E084E00E94940161E087E00E9494011C
:100A200089819A819C01990F440B550B245F3140B9
:100A300041095109AEEFB0E00E9496072CE03EEF6D
:100A40004FEF5FEF0E94770769017A019FEFC91AA4
:100A5000D90AE90AF90A9DCFA981BA81AC30B2401E
:100A60000CF463CF61E084E00E94940160E087E0D1
:100A70000E94940189819A819C01990F440B550B26
:100A80002B50324041095109AEEFB0E00E94960769
:100A9000A5019401D7CFA981BA81AC30B2400CF442
:100AA00084C03CE0C31632E0D3060CF414C161E00C
:100AB00084E00E94940161E087E00E9494010D2C83
:100AC000000CEE08FF084BE0C41A42E0D40AE1082B
:100AD000F10889819A819C01990F440B550B2B5089
:100AE000324041095109AEEFB0E00E949607A501DE
:100AF00094010E94770729013A01AEEFB0E0A70107
:100B000096010E949607A50194010E947707D301E0
:100B1000C2010196A11DB11D89839A83AB83BC8359
:100B20002419350946095709C701B6010E94D207A1
:100B3000A50194010E947707C980DA80EB80FC80D0
:100B4000C20ED31EE41EF51E26010D2C000C6608F5
:100B5000770822273327A90124193509460957099F
:100B6000C301B2010E94D2072FEF30E040E050E015
:100B70000E947707420E531E641E751EB60185E063
:100B80000E941102B20186E00E94110284E291E00B
:100B90000E94F502C6010E940F038CE291E00E94C0
:100BA000F502C2010E94F702C0CEA981BA81A43F1A
:100BB000B1400CF0BACE3CE0C31632E0D3060CF4E0
:100BC000FEC061E084E00E94940161E087E00E9441
:100BD00094010D2C000CEE08FF084BE0C41A42E013
:100BE000D40AE108F10889819A819C01990F440B8C
:100BF000550B245F314041095109AEEFB0E00E942E
:100C000096072CE03EEF4FEF5FEF0E947707290138
:100C10003A01AEEFB0E0A70196010E949607A50148
:100C200094010E947707D301C2010196A11DB11D55
:100C300089839A83AB83BC83DA01C901841995093E
:100C4000A609B7092C013D01AD019C01C701B60100
:100C50000E94D2076B017C01A50194010E947707D5
:100C600089819A81AB81BC81820F931FA41FB51F1C
:100C70008D839E83AF83B887A7E1B0E0A301920183
:100C80000E9496076C0D7D1D8E1D9F1D2CE03EEF72
:100C90004FEF5FEF0E94770749805A806B807C801E
:100CA000420E531E641E751EB20185E00E941102A1
:100CB0006D817E8186E00E94110284E291E00E94B3
:100CC000F502C2010E940F038CE291E00E94F5023E
:100CD0008D819E8167CF94EFC91691E0D9060CF003
:100CE00024CE60E084E00E94940160E087E00E94EE
:100CF00094010D2C000CEE08FF08A4EFCA1AA1E025
:100D0000DA0AE108F10889819A819C01990F440B64
:100D1000550B2B50324041095109AEEFB0E00E9413
:100D20009607A50194010E94770729013A01AEEFC9
:100D3000B0E0A70196010E9496072CE03EEF4FEF2E
:100D40005FEF0E947707D301C2010196A11DB11D7B
:100D500089839A83AB83BC83DA01C901841995091D
:100D6000A609B7092C013D01AD019C01C701B601DF
:100D70000E94D2076B017C012CE03EEF4FEF5FEF4A
:100D80000E94770789819A81AB81BC81820F931F72
:100D9000A41FB51F8D839E83AF83B887A7E1B0E002
:100DA000A30192010E949607A7019601261B370B0B
:100DB000480B590BCA01B901A50194016BCF34EF5F
:100DC000C31631E0D3060CF0B0CD60E084E00E94A1
:100DD000940160E087E00E9494010D2C000CEE0865
:100DE000FF0844EFC41A41E0D40AE108F108898100
:100DF0009A819C01990F440B550B245F31404109A6
:100E00005109AEEFB0E00E9496072CE03EEF4FEFA5
:100E10005FEF0E94770729013A01AEEFB0E0A7012A
:100E200096010E9496072CE03EEF4FEF5FEF0E9485
:100E30007707D301C2010196A11DB11D89839A8351
:100E4000AB83BC832419350946095709C701B6018C
:100E50000E94D2072CE03EEF4FEF5FEF0E94770732
:100E6000C980DA80EB80FC80C20ED31EE41EF51E22
:100E7000B60185E00E941102B60186E00E941102CF
:100E800084E291E00E94F502C6010E940F038CE209
:100E900091E089CDE3E4F1E01382128288EE93E0E1
:100EA000A0E0B0E084839583A683B78384E091E0DB
:100EB0009183808385EC90E09587848784EC90E033
:100EC0009787868780EC90E0918B808B81EC90E017
:100ED000938B828B82EC90E0958B848B86EC90E0F8
:100EE000978B868B118E128E138E148E0895052E7D
:100EF00097FB1EF400940E948E0757FD07D00E94B6
:100F0000A10707FC03D04EF40C948E075095409532
:100F1000309521953F4F4F4F5F4F089590958095A5
:100F2000709561957F4F8F4F9F4F08950E94C30723
:100F3000A59F900DB49F900DA49F800D911D11242D
:100F40000895A1E21A2EAA1BBB1BFD010DC0AA1F0A
:100F5000BB1FEE1FFF1FA217B307E407F50720F022
:100F6000A21BB30BE40BF50B661F771F881F991F9D
:100F70001A9469F760957095809590959B01AC01E6
:100F8000BD01CF010895A29FB001B39FC001A39FEF
:100F9000700D811D1124911DB29F700D811D1124B2
:100FA000911D0895DB018F939F930E949607BF9137
:100FB000AF91A29F800D911DA39F900DB29F900DA8
:100FC00011240895EE0FFF1F0590F491E02D099470
:100FD000F894FFCF0000000027018700B4007401DF
:100FE000E500C300D7000D0A0053746F707065648C
:100FF000006C6576203D20006C657641203D200028
:0A1000002C206C657642203D200094
:107800000C94343C0C94513C0C94513C0C94513CE1
:107810000C94513C0C94513C0C94513C0C94513CB4
:107820000C94513C0C94513C0C94513C0C94513CA4
:107830000C94513C0C94513C0C94513C0C94513C94
:107840000C94513C0C94513C0C94513C0C94513C84
:107850000C94513C0C94513C0C94513C0C94513C74
:107860000C94513C0C94513C11241FBECFEFD8E036
:10787000DEBFCDBF11E0A0E0B1E0ECE9FFE702C060
:1078800005900D92A230B107D9F712E0A2E0B1E065
:1078900001C01D92AD30B107E1F70E942D3D0C945F
:1078A000CC3F0C94003C982F959595959595959582
:1078B000905D8F708A307CF0282F295A8091C0000B
:1078C00085FFFCCF9093C6008091C00085FFFCCF60
:1078D0002093C6000895282F205DF0CF982F809127
:1078E000C00085FFFCCF9093C6000895EF92FF92F1
:1078F0000F931F93EE24FF2487018091C00087FD22
:1079000017C00894E11CF11C011D111D81E4E8164B
:1079100082E4F8068FE0080780E0180770F3E09132
:107920000401F091050109958091C00087FFE9CF1E
:107930008091C6001F910F91FF90EF9008950E94D3
:10794000763C982F8091C00085FFFCCF9093C600B5
:1079500091362CF490330CF09053892F089597555D
:10796000892F08951F930E949F3C182F0E949F3CCF
:107970001295107F810F1F9108951F93182F882350
:1079800021F00E94763C1150E1F71F9108951F935A
:10799000182F0E94763C803249F0809103018F5F5E
:1079A000809303018530C1F01F9108958091C0003C
:1079B00085FFFCCF84E18093C6008091C00085FFE5
:1079C000FCCF1093C6008091C00085FFFCCF80E102
:1079D0008093C6001F910895E0910401F091050184
:1079E00009951F9108950E94763C803241F0809164
:1079F00003018F5F80930301853081F008958091AA
:107A0000C00085FFFCCF84E18093C6008091C00058
:107A100085FFFCCF80E18093C6000895E0910401CA
:107A2000F09105010995089540E951E08823A1F0FE
:107A30002D9A28EE33E0FA013197F1F721503040CA
:107A4000D1F72D9828EE33E0FA013197F1F7215064
:107A50003040D1F7815061F708953F924F925F9285
:107A60006F927F928F929F92AF92BF92CF92DF924E
:107A7000EF92FF920F931F93CF93DF93000080E16B
:107A80008093C4001092C50088E18093C10086E015
:107A90008093C2005098589A259A81E00E94143D24
:107AA00024E1F22E9EE1E92E85E9D82E0FE0C02ECA
:107AB00010E1B12EAA24A394B1E49B2EA6E58A2E50
:107AC000F2E57F2EE0E26E2E79E4572E63E5462E36
:107AD00050E5352E0E94763C8033B1F18133B9F107
:107AE000803409F46FC0813409F476C0823409F41B
:107AF00085C0853409F488C0803531F1823521F1A3
:107B0000813511F1853509F485C0863509F48DC0BC
:107B1000843609F496C0843709F403C1853709F423
:107B200072C1863709F466C0809103018F5F80932C
:107B30000301853079F6E0910401F0910501099582
:107B40000E94763C803351F60E94F33CC3CF0E94E2
:107B5000763C803249F78091C00085FFFCCFF092DF
:107B6000C6008091C00085FFFCCF9092C600809136
:107B7000C00085FFFCCF8092C6008091C00085FFC9
:107B8000FCCF7092C6008091C00085FFFCCF609250
:107B9000C6008091C00085FFFCCF5092C600809146
:107BA000C00085FFFCCF4092C6008091C00085FFD9
:107BB000FCCF3092C6008091C00085FFFCCFB09210
:107BC000C60088CF0E94763C863808F4BDCF0E945C
:107BD000763C0E94F33C7ECF0E94763C803809F4CC
:107BE0009CC0813809F40BC1823809F43CC1883942
:107BF00009F48FC080E00E94C73C6CCF84E10E94F2
:107C0000BD3C0E94F33C66CF85E00E94BD3C0E94D3
:107C1000F33C60CF0E94763C809306010E94763C44
:107C2000809307010E94F33C55CF0E94763C80333D
:107C300009F41DC183E00E94BD3C80E00E94C73C66
:107C400049CF0E94763C809309020E94763C809343
:107C5000080280910C028E7F80930C020E94763C79
:107C6000853409F415C18091080290910902892B8D
:107C700089F000E010E00E94763CF801E85FFE4FDA
:107C800080830F5F1F4F80910802909109020817AF
:107C9000190788F30E94763C803209F045CF809125
:107CA0000C0280FF01C16091060170910701660F0F
:107CB000771F7093070160930601A0910802B091AD
:107CC00009021097C9F0E8E0F1E09B01AD014E0F09
:107CD0005F1FF999FECF32BD21BD819180BDFA9A17
:107CE000F99A2F5F3F4FE417F50799F76A0F7B1F4B
:107CF00070930701609306018091C00085FFFCCF5F
:107D0000F092C6008091C00085FFFCCFB092C60003
:107D1000E1CE83E00E94C73CDDCE82E00E94C73CFA
:107D2000D9CE0E94763C809309020E94763C8093D3
:107D300008028091060190910701880F991F909386
:107D40000701809306010E94763C853409F4A6C0A1
:107D500080910C028E7F80930C020E94763C8032D0
:107D600009F0B8CE8091C00085FFFCCFF092C6002C
:107D7000609108027091090261157105B9F140E046
:107D800050E080910C02A82FA170B82FB27011C0E2
:107D9000BB2309F45CC0E0910601F0910701319624
:107DA000F0930701E09306014F5F5F4F46175707B7
:107DB000E8F4AA2369F3F999FECF209106013091E6
:107DC000070132BD21BDF89A90B58091C00085FFB2
:107DD000FCCF9093C6002F5F3F4F30930701209355
:107DE00006014F5F5F4F4617570718F38091C00099
:107DF00085FDE5CE8091C00085FFF8CFE0CE81E023
:107E00000E94C73C67CE0E94763C803209F08CCE3F
:107E10008091C00085FFFCCFF092C6008091C00029
:107E200085FFFCCFE092C6008091C00085FFFCCFAB
:107E3000D092C6008091C00085FFFCCFC092C600E2
:107E40008091C00085FFFCCFB092C60043CEE09188
:107E50000601F091070194918091C00085FFFCCF4D
:107E60009093C6009CCF80E10E94C73C33CE0E9415
:107E7000763C0E94763C182F0E94763C112309F430
:107E800083C0113009F484C08FE00E94C73C22CE29
:107E900080910C02816080930C02E5CE80910C02EF
:107EA000816080930C0259CF809107018823880F4D
:107EB000880B8A2180930B02809106019091070123
:107EC000880F991F90930701809306018091080203
:107ED00080FF09C080910802909109020196909359
:107EE000090280930802F894F999FECF1127E091D6
:107EF0000601F0910701C8E0D1E08091080290915D
:107F00000902103091F40091570001700130D9F34B
:107F100003E000935700E89500915700017001308D
:107F2000D9F301E100935700E89509901990009169
:107F3000570001700130D9F301E000935700E89534
:107F40001395103498F011270091570001700130FB
:107F5000D9F305E000935700E895009157000170B0
:107F60000130D9F301E100935700E895329602976A
:107F700009F0C7CF103011F00296E5CF112480919F
:107F8000C00085FFB9CEBCCE8EE10E94C73CA2CD19
:0E7F900085E90E94C73C9ECDF894FFCF80008B
:00000001FF
