:020000040000FA
:100000000C9462000C948A000C948A000C948A0070
:100010000C948A000C948A000C948A000C948A0038
:100020000C948A000C948A000C948A000C948A0028
:100030000C948A000C948A000C948A000C948A0018
:100040000C9403070C948A000C948A000C948A0088
:100050000C948A000C948A000C948A000C948A00F8
:100060000C948A000C948A000000000024002700F1
:100070002A0000000000250028002B0000000008D6
:10008000000201000003040700000000000000005F
:1000900000000000230026002900040404040404D6
:1000A0000404020202020202030303030303010227
:1000B00004081020408001020408102001020408F6
:1000C00010201A0B11241FBECFEFD8E0DEBFCDBF2A
:1000D00011E0A0E0B1E0ECE3FBE102C005900D927D
:1000E000A039B107D9F721E0A0E9B1E001C01D9224
:1000F000A53CB207E1F710E0C2E6D0E004C02197CA
:10010000FE010E94960DC136D107C9F70E949207E1
:100110000C949C0D0C940000AF92BF92CF92DF9292
:10012000EF92FF920F931F93CF93DF936C017B01AC
:100130008B01040F151FEB015E01AE18BF08C0173D
:10014000D10759F06991D601ED91FC910190F081B0
:10015000E02DC6010995892B79F7C501DF91CF9173
:100160001F910F91FF90EF90DF90CF90BF90AF90D5
:100170000895833081F028F4813099F08230A9F01D
:1001800008958730A9F08830C9F08430B1F48091A7
:1001900080008F7D03C0809180008F7780938000E6
:1001A000089584B58F7784BD089584B58F7DFBCF86
:1001B0008091B0008F778093B00008958091B00057
:1001C0008F7DF9CFCF93DF93282F30E0F901E458EA
:1001D000FF4F8491F901E255FF4FD491F901E656A2
:1001E000FF4FC491CC23A1F081110E94B900EC2FE4
:1001F000F0E0EE0FFF1FE057FF4FA591B491EC9197
:10020000ED2381E090E009F480E0DF91CF91089543
:1002100080E090E0FACF1F93CF93DF93282F30E058
:10022000F901E458FF4F8491F901E255FF4FD49151
:10023000F901E656FF4FC491CC23A9F0162F811186
:100240000E94B900EC2FF0E0EE0FFF1FEE58FF4FB9
:10025000A591B4918FB7F894EC91111108C0D09585
:10026000DE23DC938FBFDF91CF911F910895DE2BAA
:10027000F8CFCF93DF9390E0FC01E255FF4F24913C
:1002800086569F4FFC0184918823C9F090E0880F27
:10029000991FFC01E859FF4FA591B491FC01EE585C
:1002A000FF4FC591D49161110DC09FB7F8948C9107
:1002B000209582238C938881282328839FBFDF91F8
:1002C000CF910895623051F49FB7F8943C91822FFA
:1002D000809583238C93E8812E2BEFCF8FB7F894F2
:1002E000EC912E2B2C938FBFEACF3FB7F8948091DF
:1002F000950190919601A0919701B091980126B532
:10030000A89B05C02F3F19F00196A11DB11D3FBF4D
:10031000BA2FA92F982F8827BC01CD01620F711D1C
:10032000811D911D42E0660F771F881F991F4A9516
:10033000D1F708958F929F92AF92BF92CF92DF92A2
:10034000EF92FF924B015C010E9475016B017C01F1
:100350000E9475016C197D098E099F09683E7340E2
:1003600081059105A8F321E0821A9108A108B1083E
:1003700088EEC80E83E0D81EE11CF11C81149104A4
:10038000A104B10429F7FF90EF90DF90CF90BF90C8
:10039000AF909F908F900895089590E080E0089529
:1003A000FC0101900020E9F73197AF01481B590B80
:1003B000BC018DEA91E00C948C008F929F92AF92D9
:1003C000BF920F931F93CF93DF93CDB7DEB7A19763
:1003D0000FB6F894DEBF0FBECDBF19A2423008F4AD
:1003E0004AE08E010F5D1F4F842E912CB12CA12C61
:1003F000A50194010E94740DE62FB901CA01EA30EB
:10040000F4F4E05DD801EE938D01232B242B252BF2
:1004100079F790E080E0109719F0CD010E94D001AB
:10042000A1960FB6F894DEBF0FBECDBFDF91CF917E
:100430001F910F91BF90AF909F908F900895E95CAE
:10044000E1CF0C94D001CF93DF93EC0160E08E817B
:100450000E940B0161E08E810E940B0160E08E81A1
:100460000E940B018BE891E00197F1F7DF91CF91AA
:100470000895CF92DF92EF92FF920F931F93CF9345
:10048000DF936C017C0187E0E80EF11CD0E0C0E056
:10049000062F10E0B8010C2E02C0759567950A94DE
:1004A000E2F76170F70181917F010E940B012196B3
:1004B000C430D10579F7C601DF91CF911F910F911B
:1004C000FF90EF90DF90CF900C942302CF92DF92B9
:1004D000EF92FF920F931F93CF93DF93EC01F62ED1
:1004E000642F8C810E940B018D818F3F19F060E099
:1004F0000E940B010F2D10E08F8584FF25C06E0137
:1005000087E0C80ED11CF12CE12CB8010E2C02C0E2
:10051000759567950A94E2F76170F60181916F0114
:100520000E940B01FFEFEF1AFF0A88E0E816F104C2
:1005300061F7CE01DF91CF911F910F91FF90EF9066
:10054000DF90CF900C942302B80184E075956795F5
:100550008A95E1F7CE010E9439026F2DCE01DF911D
:10056000CF911F910F91FF90EF90DF90CF900C945F
:10057000390240E0682F8DEA91E00C946602CF9337
:10058000DF93823029F49091BC0198609093BC0174
:100590008093C0011092C10180E48093C20180E188
:1005A0008093C30180E58093C40161E08091B10133
:1005B0000E9439018091B2018F3F19F061E00E94E1
:1005C000390161E08091B3010E943901CDEAD1E0A7
:1005D0009E012D5A31408091BC0184FD0BC084E006
:1005E00090E021962817390744F461E08E810E943B
:1005F0003901EECF88E090E0F4CF8BE39DE00197E6
:10060000F1F760E08091B1010E940B0160E0809100
:10061000B3010E940B018091B2018F3F19F060E09D
:100620000E940B018091BC0184FD39C063E08DEA1A
:1006300091E00E943902CBE4D6E4CE010197F1F7B4
:1006400063E08DEA91E00E9439022197F1F763E0BF
:100650008DEA91E00E94390283E592E00197F1F77B
:1006600062E08DEA91E00E9439028091BC018062D3
:100670000E94B90284E08093BD018CE00E94B9021F
:1006800081E00E94B9028BE39FE10197F1F782E0DC
:100690008093BE0186E0DF91CF910C94B902806215
:1006A0000E94B9028BE496E40197F1F78091BC01B6
:1006B00080620E94B90283E592E00197F1F7809190
:1006C000BC0180620E94B902D0CF9091C00169172D
:1006D00010F06FEF690FE62FF0E0E355FE4F9489BD
:1006E000890F80680C94B90241E00E94660281E0A3
:1006F00090E008954F925F926F927F928F929F92B7
:10070000AF92BF92CF92DF92EF92FF92CF93DF939F
:100710006B017C01AC019B010E946F0D882391F05D
:1007200080E191E0DF91CF91FF90EF90DF90CF904B
:10073000BF90AF909F908F907F906F905F904F9001
:100740000C94D00146015701E894B7F82FEF3FEF22
:100750004FE75FE7C501B4010E946F0D81110DC025
:100760002FEF3FEF4FE75FE7C501B4010E94A50BF4
:1007700018161CF484E191E0D5CF2FEF3FEF4FE73F
:100780005FE4C701B6010E94FD0C18161CF488E155
:1007900091E0C8CF2FEF3FEF4FE75FECC701B60105
:1007A0000E94A50B87FDF3CF20E030E0A901C7012F
:1007B000B6010E94A50BD0E0C0E087FF0CC041E06D
:1007C0006DE28DEA91E00E946602F7FAF094F7F884
:1007D000F094C1E0D0E02AE037ED43EA5BE3C701E3
:1007E000B6010E94390B4B015C010E941C0C6B018D
:1007F0007C010E944B0C9B01AC01C501B4010E941D
:10080000380B4B015C014AE0C701B6010E94DD01D3
:100810007C01EC0EFD1E41E06EE28DEA91E00E944B
:1008200066028FEFE81AF80A20E030E040E251E477
:10083000C501B4010E94020D2B013C010E941C0C59
:100840004B01B12CA12C4AE0C501B4010E94DD018D
:10085000E80EF91EC501B4010E944B0C9B01AC01CE
:10086000C301B2010E94380B20E030E040E251E4C5
:100870000E94020D0E941C0C90E080E04AE00E9461
:10088000DD018E0D9F1DDF91CF91FF90EF90DF90E6
:10089000CF90BF90AF909F908F907F906F905F9020
:1008A0004F900895CF92DF92EF92FF92CF93DF9314
:1008B00081E00E94B902CBE3DFE1CE010197F1F7BD
:1008C00082E00E94B9022197F1F78CE191E00E9449
:1008D0002102C090A501D090A601E090A701F09060
:1008E000A80120E034E244E759E4C701B6010E94C0
:1008F000FD0C181604F520E034E244E759E4C70182
:10090000B6010E94AA0B6093A5017093A601809383
:10091000A7019093A8010E947A0360E08CE00E94F6
:10092000650381E291E0DF91CF91FF90EF90DF903E
:10093000CF900C94210220E030E04AE754E4C70154
:10094000B6010E94FD0C1816CCF420E030E04AE716
:1009500054E4C701B6010E94AA0B6093A5017093ED
:10096000A6018093A7019093A8010E947A0360E0FA
:100970008CE00E94650386E291E0D5CF20E030E074
:1009800040E85FE3C701B6010E94FD0C18165CF455
:10099000C701B6010E947A0360E08CE00E94650303
:1009A0008BE291E0C0CF2FE632E143E85AE3C70182
:1009B000B6010E94FD0C1816CCF420E030E04AE7A6
:1009C00054E4C701B6010E94020D6093A501709323
:1009D000A6018093A7019093A8010E947A0360E08A
:1009E0008CE00E94650380E391E09DCF2DEB37E31F
:1009F00046E855E3C701B6010E94FD0C1816CCF479
:100A000020E034E244E759E4C701B6010E94020D38
:100A10006093A5017093A6018093A7019093A8010C
:100A20000E947A0360E08CE00E94650385E391E018
:100A30007ACF2FE530E749E850E3C701B6010E94BD
:100A4000FD0C1816CCF428E23BE64EE65EE4C70146
:100A5000B6010E94020D6093A5017093A6018093D8
:100A6000A7019093A8010E947A0360E08CE00E94A5
:100A700065038AE391E057CF2CEC3CEB4CE85BE25A
:100A8000C701B6010E94FD0C18160CF081CF25EAB3
:100A900034ED48E653E5C701B6010E94020D6093AC
:100AA000A5017093A6018093A7019093A8010E94CD
:100AB0007A0360E08CE00E9465038FE391E033CF1E
:100AC0000F931F93E3EBF0E06491EFE9F0E0E49122
:100AD000F0E0EE0FFF1FE057FF4F8591949108E87B
:100AE00013E120E030E0462F0E944D0761157105AB
:100AF0008105910529F06F5F7F4F8F4F9F4F9F704A
:100B00001F910F910895CF92DF92EF92FF9261E0D3
:100B100082E00E940B0165E070E080E090E00E94BE
:100B20009A0160E082E00E940B018BE891E001975E
:100B3000F1F70E9460050E944B0C6B017C012DECCB
:100B40003CEC4CEC5DE30E94FD0C18166CF0C0927E
:100B5000A101D092A201E092A301F092A401FF9022
:100B6000EF90DF90CF900895A7019601C701B601DD
:100B70000E94390B9B01AC0160E074E284E799E4C8
:100B80000E94AA0B6093A1017093A2018093A3011C
:100B90009093A4016093A5017093A6018093A7018F
:100BA0009093A8010E945204C090A101D090A2018C
:100BB000E090A301F090A4012DEB37E346E855E364
:100BC000C701B6010E94020DA70196010E94020D05
:100BD00020E030E040E850E40E94020D20ED3FE0CC
:100BE00049E450E40E94020D20ED3FE049E450E466
:100BF0000E94020D9B01AC0160E070E080E89FE381
:100C00000E94AA0B6093000170930101809302017E
:100C10009093030161E080E00E94650384E491E029
:100C20000E942102C0900001D0900101E0900201D9
:100C3000F090030120E034E244E759E4C701B60133
:100C40000E94FD0C1816F4F420E034E244E759E465
:100C5000C701B6010E94AA0B6093000170930101C5
:100C600080930201909303010E947A0361E08DE07A
:100C70000E94650389E491E0FF90EF90DF90CF90B0
:100C80000C94210220E030E04AE754E4C701B601A9
:100C90000E94FD0C1816CCF420E030E04AE754E442
:100CA000C701B6010E94AA0B609300017093010175
:100CB00080930201909303010E947A0361E08DE02A
:100CC0000E9465038DE491E0D7CF20E030E040E85A
:100CD0005FE3C701B6010E94FD0C18165CF4C70162
:100CE000B6010E947A0361E08DE00E94650381E510
:100CF00091E0C2CF2FE632E143E85AE3C701B601E3
:100D00000E94FD0C1816CCF420E030E04AE754E4D1
:100D1000C701B6010E94020D6093000170930101AA
:100D200080930201909303010E947A0361E08DE0B9
:100D30000E94650385E591E09FCF2DEB37E346E800
:100D400055E3C701B6010E94FD0C1816CCF420E053
:100D500034E244E759E4C701B6010E94020D6093F2
:100D600000017093010180930201909303010E949E
:100D70007A0361E08DE00E94650389E591E07CCF14
:100D80002FE530E749E850E3C701B6010E94FD0CAA
:100D90001816ACF428E23BE64EE65EE4C701B60165
:100DA0000E94020D60930001709301018093020183
:100DB000909303010E947A038DE591E05DCF2CECC6
:100DC0003CEB4CE85BE2C701B6010E94FD0C181633
:100DD0000CF085CF25EA34ED48E653E5C701B601AE
:100DE0000E94020D60930001709301018093020143
:100DF000909303010E947A0361E08DE00E946503F5
:100E000081E691E039CF1F920F920FB60F92112415
:100E10002F933F938F939F93AF93BF9380919101B3
:100E200090919201A0919301B09194013091900121
:100E300023E0230F2D3758F50196A11DB11D2093F6
:100E400090018093910190939201A0939301B093AC
:100E500094018091950190919601A0919701B09194
:100E600098010196A11DB11D809395019093960163
:100E7000A0939701B0939801BF91AF919F918F91EB
:100E80003F912F910F900FBE0F901F90189526E85D
:100E9000230F0296A11DB11DD2CFCF92DF92EF9208
:100EA000FF920F931F93E82FF92F05C001501109EE
:100EB0002109310961F1908196239417B9F305C096
:100EC000015011092109310911F1908196239413E0
:100ED000F7CFC12CD12CE12CF12C0AC08FEFC81A0E
:100EE000D80AE80AF80A0C151D052E053F0579F009
:100EF00080818623841791F36C2D7D2D8E2D9F2D5F
:100F00001F910F91FF90EF90DF90CF90089560E0D8
:100F100070E080E090E01F910F91FF90EF90DF90E4
:100F2000CF900895789484B5826084BD84B5816043
:100F300084BD85B5826085BD85B5816085BD8091A4
:100F40006E00816080936E0010928100809181001C
:100F50008260809381008091810081608093810014
:100F6000809180008160809380008091B1008460D6
:100F70008093B1008091B00081608093B000809137
:100F80007A00846080937A0080917A0082608093F6
:100F90007A0080917A00816080937A0080917A0053
:100FA000806880937A001092C10082E00E94BF02A4
:100FB00085E691E00E94210260E085E00E9439010F
:100FC00062E083E00E94390162E084E00E9439011E
:100FD00061E082E00E943901C5E0D0E00E94830513
:100FE00065E070E080E090E00E949A012197B1F7FF
:100FF000CBE8D1E000E010E084E00E94E200892B21
:1010000019F584E00E94E200892BD9F30E94830540
:1010100065E070E080E090E00E949A010E94830504
:1010200065E070E080E090E00E949A010E948305F4
:1010300065E070E080E090E00E949A0160ED77E06A
:1010400080E090E00E949A0161E082E00E940B0142
:1010500065E070E080E090E00E949A0160E082E04C
:101060000E940B01CE010197F1F70E9460050E94DA
:101070004B0C6B017C012DEC3CEC4CEC5DE30E94D5
:10108000FD0C1816D4F0C092A901D092AA01E092EA
:10109000AB01F092AC0183E00E94E200892BD9F30E
:1010A0006AE070E080E090E00E949A01011511056D
:1010B00009F4A2CF0E9400009FCFA7019601C701AB
:1010C000B6010E94390B9B01AC0160E074E284E739
:1010D00099E40E94AA0B6093A9017093AA018093DE
:1010E000AB019093AC016093A5017093A60180932E
:1010F000A7019093A8010E9452048090A9019090AA
:10110000AA01A090AB01B090AC01C090A101D09019
:10111000A201E090A301F090A401A7019601C501EE
:10112000B4010E94FD0C18160CF042C18090000121
:1011300090900101A0900201B09003012DEB37E3E4
:1011400046E855E3C501B4010E94020DA7019601CE
:101150000E94020DA70196010E94020D20E030E0DE
:1011600040E850E40E94020D20ED3FE049E450E4E5
:101170000E94020D20ED3FE049E450E40E94020D80
:1011800020E030E040E85FE30E94380B9B01AC01B7
:10119000C501B4010E94AA0B6093990170939A0152
:1011A00080939B0190939C0161E080E00E94650325
:1011B00084E491E00E942102C0909901D0909A01AC
:1011C000E0909B01F0909C0120E034E244E759E478
:1011D000C701B6010E94FD0C1816DCF420E034E2D1
:1011E00044E759E4C701B6010E94AA0B6093990134
:1011F00070939A0180939B0190939C010E947A03C3
:1012000061E08DE00E94650389E491E00E94210283
:1012100042CF20E030E04AE754E4C701B6010E9423
:10122000FD0C1816CCF420E030E04AE754E4C70186
:10123000B6010E94AA0B6093990170939A01809362
:101240009B0190939C010E947A0361E08DE00E94D3
:1012500065038DE491E0DACF20E030E040E85FE321
:10126000C701B6010E94FD0C18165CF4C701B60157
:101270000E947A0361E08DE00E94650382E591E0BF
:10128000C5CF2FE632E143E85AE3C701B6010E9419
:10129000FD0C1816CCF420E030E04AE754E4C70116
:1012A000B6010E94020D6093990170939A01809398
:1012B0009B0190939C010E947A0361E08DE00E9463
:1012C000650385E591E0A2CF2DEB37E346E855E3D2
:1012D000C701B6010E94FD0C1816CCF420E034E2E0
:1012E00044E759E4C701B6010E94020D60939901D9
:1012F00070939A0180939B0190939C010E947A03C2
:1013000061E08DE00E94650389E591E07FCF2FE5E4
:1013100030E749E850E3C701B6010E94FD0C1816FA
:10132000CCF428E23BE64EE65EE4C701B6010E943B
:10133000020D6093990170939A0180939B019093A1
:101340009C010E947A0361E08DE00E9465038DE5B7
:1013500091E05CCF2CEC3CEB4CE85BE2C701B601C2
:101360000E94FD0C1816CCF425EA34ED48E653E54E
:10137000C701B6010E94020D6093990170939A0112
:1013800080939B0190939C010E947A0361E08DE021
:101390000E94650381E691E039CFC701B6010E9442
:1013A0007A0361E08DE00E94650381E591E02ECF34
:1013B000A7019601C501B4010E94A50B87FF6BCE62
:1013C00020910001309101014091020150910301EF
:1013D000C701B6010E94020DA70196010E94020DED
:1013E00020E030E040E850E40E94020D20ED3FE0B4
:1013F00049E450E40E94020D20ED3FE049E450E44E
:101400000E94020D9B01AC0160E070E080E89FE368
:101410000E94AA0B2DEB37E346E855E30E94380BF8
:1014200060939D0170939E0180939F019093A00112
:1014300061E080E00E9465038AE691E00E9421025B
:10144000C0909D01D0909E01E0909F01F090A0017E
:1014500020E034E244E759E4C701B6010E94FD0CE4
:101460001816CCF420E034E244E759E4C701B60191
:101470000E94AA0B60939D0170939E0180939F012F
:101480009093A0010E947A0361E08DE00E946503C1
:101490008FE691E0BBCE20E030E04AE754E4C7019C
:1014A000B6010E94FD0C1816CCF420E030E04AE7AB
:1014B00054E4C701B6010E94AA0B60939D0170938A
:1014C0009E0180939F019093A0010E947A0361E0A6
:1014D0008DE00E94650383E791E098CE20E030E044
:1014E00040E85FE3C701B6010E94FD0C18165CF4EA
:1014F000C701B6010E947A0361E08DE00E94650396
:1015000087E791E083CE2FE632E143E85AE3C70153
:10151000B6010E94FD0C1816CCF420E030E04AE73A
:1015200054E4C701B6010E94020D60939D017093BF
:101530009E0180939F019093A0010E947A0361E035
:101540008DE00E9465038BE791E060CE2DEB37E3E1
:1015500046E855E3C701B6010E94FD0C1816CCF40D
:1015600020E034E244E759E4C701B6010E94020DCD
:1015700060939D0170939E0180939F019093A001C1
:101580000E947A0361E08DE00E9465038FE791E09D
:101590003DCE2FE530E749E850E3C701B6010E9490
:1015A000FD0C1816CCF428E23BE64EE65EE4C701DB
:1015B000B6010E94020D60939D0170939E0180937D
:1015C0009F019093A0010E947A0361E08DE00E9448
:1015D000650383E891E01ACE2CEC3CEB4CE85BE22F
:1015E000C701B6010E94FD0C1816CCF425EA34EDB3
:1015F00048E653E5C701B6010E94020D60939D01C4
:1016000070939E0180939F019093A0010E947A03A2
:1016100061E08DE00E94650387E891E0F7CDC701A6
:10162000B6010E947A0361E08DE00E9465038BE8B9
:1016300091E0ECCDEDEAF1E01382128288E091E0D6
:101640009183808388E084838FEF858389E086831C
:101650008AE087838BE080878CE081878DE08287BA
:101660001386148615861686178681E00C94BF02B1
:101670005058BB27AA270E94500B0C94C30C0E9401
:10168000B50C38F00E94BC0C20F039F49F3F19F4DF
:1016900026F40C94B20C0EF4E095E7FB0C94AC0C21
:1016A000E92F0E94D40C58F3BA1762077307840716
:1016B000950720F079F4A6F50C94F60C0EF4E0955D
:1016C0000B2EBA2FA02D0B01B90190010C01CA01FC
:1016D000A0011124FF27591B99F0593F50F4503EA7
:1016E00068F11A16F040A22F232F342F4427585F99
:1016F000F3CF469537952795A795F0405395C9F7B1
:101700007EF41F16BA0B620B730B840BBAF0915068
:10171000A1F0FF0FBB1F661F771F881FC2F70EC007
:10172000BA0F621F731F841F48F4879577956795DA
:10173000B795F7959E3F08F0B0CF9395880F08F0C6
:101740009927EE0F9795879508950E94880C08F4C5
:1017500081E008950E94BE0B0C94C30C0E94BC0C47
:1017600058F00E94B50C40F029F45F3F29F00C942A
:10177000AC0C51110C94F70C0C94B20C0E94D40CCC
:1017800068F39923B1F3552391F3951B550BBB27B0
:10179000AA2762177307840738F09F5F5F4F220FF5
:1017A000331F441FAA1FA9F335D00E2E3AF0E0E8EC
:1017B00032D091505040E695001CCAF72BD0FE2F36
:1017C00029D0660F771F881FBB1F261737074807CA
:1017D000AB07B0E809F0BB0B802DBF01FF27935882
:1017E0005F4F3AF09E3F510578F00C94AC0C0C948E
:1017F000F70C5F3FE4F3983ED4F3869577956795B1
:10180000B795F7959F5FC9F7880F911D96958795B6
:1018100097F90895E1E0660F771F881FBB1F6217D5
:1018200073078407BA0720F0621B730B840BBA0B93
:10183000EE1F88F7E09508950E94DC0C88F09F5712
:1018400098F0B92F9927B751B0F0E1F0660F771FE4
:10185000881F991F1AF0BA95C9F714C0B13091F0DA
:101860000E94F60CB1E008950C94F60C672F782FC7
:101870008827B85F39F0B93FCCF38695779567959F
:10188000B395D9F73EF490958095709561957F4F0B
:101890008F4F9F4F0895E89409C097FB3EF49095B1
:1018A0008095709561957F4F8F4F9F4F9923A9F039
:1018B000F92F96E9BB279395F695879577956795C8
:1018C000B795F111F8CFFAF4BB0F11F460FF1BC00C
:1018D0006F5F7F4F8F4F9F4F16C0882311F096E99F
:1018E00011C0772321F09EE8872F762F05C066234D
:1018F00071F096E8862F70E060E02AF09A95660F06
:10190000771F881FDAF7880F9695879597F90895BE
:10191000990F0008550FAA0BE0E8FEEF1616170600
:10192000E807F907C0F012161306E407F50798F068
:10193000621B730B840B950B39F40A2661F0232B81
:10194000242B252B21F408950A2609F4A140A695FD
:101950008FEF811D811D089597F99F6780E870E0E2
:1019600060E008959FEF80EC089500240A94161615
:10197000170618060906089500240A94121613067D
:10198000140605060895092E0394000C11F488230B
:1019900052F0BB0F40F4BF2B11F460FF04C06F5F27
:1019A0007F4F8F4F9F4F089557FD9058440F551FFD
:1019B00059F05F3F71F04795880F97FB991F61F0D1
:1019C0009F3F79F087950895121613061406551F48
:1019D000F2CF4695F1DF08C0161617061806991FB4
:1019E000F1CF86957105610508940895E894BB27A9
:1019F00066277727CB0197F908950E94880C08F491
:101A00008FEF08950E94150D0C94C30C0E94B50C25
:101A100038F00E94BC0C20F0952311F00C94AC0C13
:101A20000C94B20C11240C94F70C0E94D40C70F39B
:101A3000959FC1F3950F50E0551F629FF001729F73
:101A4000BB27F00DB11D639FAA27F00DB11DAA1F82
:101A5000649F6627B00DA11D661F829F2227B00DCF
:101A6000A11D621F739FB00DA11D621F839FA00D5A
:101A7000611D221F749F3327A00D611D231F849FAA
:101A8000600D211D822F762F6A2F11249F57504001
:101A90009AF0F1F088234AF0EE0FFF1FBB1F661F7C
:101AA000771F881F91505040A9F79E3F510580F045
:101AB0000C94AC0C0C94F70C5F3FE4F3983ED4F319
:101AC000869577956795B795F795E7959F5FC1F7E9
:101AD000FE2B880F911D9695879597F908950E9482
:101AE000880C880B990B0895A1E21A2EAA1BBB1B28
:101AF000FD010DC0AA1FBB1FEE1FFF1FA217B307DA
:101B0000E407F50720F0A21BB30BE40BF50B661FEF
:101B1000771F881F991F1A9469F7609570958095B3
:101B200090959B01AC01BD01CF010895EE0FFF1F01
:101B30000590F491E02D0994F894FFCFBD378635D8
:101B40000000000074038C00CD01CC016E616E00BA
:101B5000696E66006F76660046203D2000204D4885
:101B60007A00206B487A0020487A2000206D487A5D
:101B7000002075487A00206E487A002070487A006C
:101B80004C203D2000204D4800206B48002020487C
:101B900000206D480020754800206E4800207048E5
:101BA0000065617A790043203D2000204D460020E9
:101BB0006B460020462000206D4600207546002020
:0C1BC0006E460020704600202046000009
:107800000C94343C0C94513C0C94513C0C94513CE1
:107810000C94513C0C94513C0C94513C0C94513CB4
:107820000C94513C0C94513C0C94513C0C94513CA4
:107830000C94513C0C94513C0C94513C0C94513C94
:107840000C94513C0C94513C0C94513C0C94513C84
:107850000C94513C0C94513C0C94513C0C94513C74
:107860000C94513C0C94513C11241FBECFEFD8E036
:10787000DEBFCDBF11E0A0E0B1E0ECE9FFE702C060
:1078800005900D92A230B107D9F712E0A2E0B1E065
:1078900001C01D92AD30B107E1F70E942D3D0C945F
:1078A000CC3F0C94003C982F959595959595959582
:1078B000905D8F708A307CF0282F295A8091C0000B
:1078C00085FFFCCF9093C6008091C00085FFFCCF60
:1078D0002093C6000895282F205DF0CF982F809127
:1078E000C00085FFFCCF9093C6000895EF92FF92F1
:1078F0000F931F93EE24FF2487018091C00087FD22
:1079000017C00894E11CF11C011D111D81E4E8164B
:1079100082E4F8068FE0080780E0180770F3E09132
:107920000401F091050109958091C00087FFE9CF1E
:107930008091C6001F910F91FF90EF9008950E94D3
:10794000763C982F8091C00085FFFCCF9093C600B5
:1079500091362CF490330CF09053892F089597555D
:10796000892F08951F930E949F3C182F0E949F3CCF
:107970001295107F810F1F9108951F93182F882350
:1079800021F00E94763C1150E1F71F9108951F935A
:10799000182F0E94763C803249F0809103018F5F5E
:1079A000809303018530C1F01F9108958091C0003C
:1079B00085FFFCCF84E18093C6008091C00085FFE5
:1079C000FCCF1093C6008091C00085FFFCCF80E102
:1079D0008093C6001F910895E0910401F091050184
:1079E00009951F9108950E94763C803241F0809164
:1079F00003018F5F80930301853081F008958091AA
:107A0000C00085FFFCCF84E18093C6008091C00058
:107A100085FFFCCF80E18093C6000895E0910401CA
:107A2000F09105010995089540E951E08823A1F0FE
:107A30002D9A28EE33E0FA013197F1F721503040CA
:107A4000D1F72D9828EE33E0FA013197F1F7215064
:107A50003040D1F7815061F708953F924F925F9285
:107A60006F927F928F929F92AF92BF92CF92DF924E
:107A7000EF92FF920F931F93CF93DF93000080E16B
:107A80008093C4001092C50088E18093C10086E015
:107A90008093C2005098589A259A81E00E94143D24
:107AA00024E1F22E9EE1E92E85E9D82E0FE0C02ECA
:107AB00010E1B12EAA24A394B1E49B2EA6E58A2E50
:107AC000F2E57F2EE0E26E2E79E4572E63E5462E36
:107AD00050E5352E0E94763C8033B1F18133B9F107
:107AE000803409F46FC0813409F476C0823409F41B
:107AF00085C0853409F488C0803531F1823521F1A3
:107B0000813511F1853509F485C0863509F48DC0BC
:107B1000843609F496C0843709F403C1853709F423
:107B200072C1863709F466C0809103018F5F80932C
:107B30000301853079F6E0910401F0910501099582
:107B40000E94763C803351F60E94F33CC3CF0E94E2
:107B5000763C803249F78091C00085FFFCCFF092DF
:107B6000C6008091C00085FFFCCF9092C600809136
:107B7000C00085FFFCCF8092C6008091C00085FFC9
:107B8000FCCF7092C6008091C00085FFFCCF609250
:107B9000C6008091C00085FFFCCF5092C600809146
:107BA000C00085FFFCCF4092C6008091C00085FFD9
:107BB000FCCF3092C6008091C00085FFFCCFB09210
:107BC000C60088CF0E94763C863808F4BDCF0E945C
:107BD000763C0E94F33C7ECF0E94763C803809F4CC
:107BE0009CC0813809F40BC1823809F43CC1883942
:107BF00009F48FC080E00E94C73C6CCF84E10E94F2
:107C0000BD3C0E94F33C66CF85E00E94BD3C0E94D3
:107C1000F33C60CF0E94763C809306010E94763C44
:107C2000809307010E94F33C55CF0E94763C80333D
:107C300009F41DC183E00E94BD3C80E00E94C73C66
:107C400049CF0E94763C809309020E94763C809343
:107C5000080280910C028E7F80930C020E94763C79
:107C6000853409F415C18091080290910902892B8D
:107C700089F000E010E00E94763CF801E85FFE4FDA
:107C800080830F5F1F4F80910802909109020817AF
:107C9000190788F30E94763C803209F045CF809125
:107CA0000C0280FF01C16091060170910701660F0F
:107CB000771F7093070160930601A0910802B091AD
:107CC00009021097C9F0E8E0F1E09B01AD014E0F09
:107CD0005F1FF999FECF32BD21BD819180BDFA9A17
:107CE000F99A2F5F3F4FE417F50799F76A0F7B1F4B
:107CF00070930701609306018091C00085FFFCCF5F
:107D0000F092C6008091C00085FFFCCFB092C60003
:107D1000E1CE83E00E94C73CDDCE82E00E94C73CFA
:107D2000D9CE0E94763C809309020E94763C8093D3
:107D300008028091060190910701880F991F909386
:107D40000701809306010E94763C853409F4A6C0A1
:107D500080910C028E7F80930C020E94763C8032D0
:107D600009F0B8CE8091C00085FFFCCFF092C6002C
:107D7000609108027091090261157105B9F140E046
:107D800050E080910C02A82FA170B82FB27011C0E2
:107D9000BB2309F45CC0E0910601F0910701319624
:107DA000F0930701E09306014F5F5F4F46175707B7
:107DB000E8F4AA2369F3F999FECF209106013091E6
:107DC000070132BD21BDF89A90B58091C00085FFB2
:107DD000FCCF9093C6002F5F3F4F30930701209355
:107DE00006014F5F5F4F4617570718F38091C00099
:107DF00085FDE5CE8091C00085FFF8CFE0CE81E023
:107E00000E94C73C67CE0E94763C803209F08CCE3F
:107E10008091C00085FFFCCFF092C6008091C00029
:107E200085FFFCCFE092C6008091C00085FFFCCFAB
:107E3000D092C6008091C00085FFFCCFC092C600E2
:107E40008091C00085FFFCCFB092C60043CEE09188
:107E50000601F091070194918091C00085FFFCCF4D
:107E60009093C6009CCF80E10E94C73C33CE0E9415
:107E7000763C0E94763C182F0E94763C112309F430
:107E800083C0113009F484C08FE00E94C73C22CE29
:107E900080910C02816080930C02E5CE80910C02EF
:107EA000816080930C0259CF809107018823880F4D
:107EB000880B8A2180930B02809106019091070123
:107EC000880F991F90930701809306018091080203
:107ED00080FF09C080910802909109020196909359
:107EE000090280930802F894F999FECF1127E091D6
:107EF0000601F0910701C8E0D1E08091080290915D
:107F00000902103091F40091570001700130D9F34B
:107F100003E000935700E89500915700017001308D
:107F2000D9F301E100935700E89509901990009169
:107F3000570001700130D9F301E000935700E89534
:107F40001395103498F011270091570001700130FB
:107F5000D9F305E000935700E895009157000170B0
:107F60000130D9F301E100935700E895329602976A
:107F700009F0C7CF103011F00296E5CF112480919F
:107F8000C00085FFB9CEBCCE8EE10E94C73CA2CD19
:0E7F900085E90E94C73C9ECDF894FFCF80008B
:00000001FF
