:020000040000FA
:100000000C9462000C948A000C948A000C948A0070
:100010000C948A000C948A000C948A000C948A0038
:100020000C948A000C948A000C9464070C948A0047
:100030000C948A000C94D4070C948A000C948A00C7
:100040000C941A070C948A000C948A000C948A0071
:100050000C948A000C948A000C948A000C948A00F8
:100060000C948A000C948A000000000024002700F1
:100070002A0000000000250028002B0000000000DE
:1000800023002600290004040404040404040202DA
:100090000202020203030303030301020408102007
:1000A0004080010204081020010204081020000012
:1000B0000008000201000003040700000000000027
:1000C0000000A70B11241FBECFEFD8E0DEBFCDBFCD
:1000D00011E0A0E0B1E0E6EAFCE102C005900D927B
:1000E000A039B107D9F722E0A0E9B1E001C01D9223
:1000F000A130B207E1F710E0C2E6D0E004C02197DA
:10010000FE010E944B0EC136D107C9F70E94EB07D2
:100110000C94510E0C940000AF92BF92CF92DF92DC
:10012000EF92FF920F931F93CF93DF936C017B01AC
:100130008B01040F151FEB015E01AE18BF08C0173D
:10014000D10759F06991D601ED91FC910190F081B0
:10015000E02DC6010995892B79F7C501DF91CF9173
:100160001F910F91FF90EF90DF90CF90BF90AF90D5
:100170000895833081F028F4813099F08230A9F01D
:1001800008958730A9F08830C9F08430B1F48091A7
:1001900080008F7D03C0809180008F7780938000E6
:1001A000089584B58F7784BD089584B58F7DFBCF86
:1001B0008091B0008F778093B00008958091B00057
:1001C0008F7DF9CFCF93DF93282F30E0F901E255EF
:1001D000FF4F8491F901E656FF4FD491F901EA5798
:1001E000FF4FC491CC23A1F081110E94B900EC2FE4
:1001F000F0E0EE0FFF1FE458FF4FA591B491EC9192
:10020000ED2381E090E009F480E0DF91CF91089543
:1002100080E090E0FACF1F93CF93DF93282F30E058
:10022000F901E255FF4F8491F901E656FF4FD49151
:10023000F901EA57FF4FC491CC23A9F0162F811181
:100240000E94B900EC2FF0E0EE0FFF1FEE58FF4FB9
:10025000A591B4918FB7F894EC91111108C0D09585
:10026000DE23DC938FBFDF91CF911F910895DE2BAA
:10027000F8CFCF93DF9390E0FC01E656FF4F249137
:100280008A579F4FFC0184918823D1F090E0880F1A
:10029000991FFC01E859FF4FA591B491FC01EE585C
:1002A000FF4FC591D491623071F49FB7F8943C919F
:1002B000822F809583238C93E8812E2B28839FBFE8
:1002C000DF91CF9108958FB7F894EC912E2B2C935A
:1002D0008FBFF6CF3FB7F8948091C5019091C601CA
:1002E000A091C701B091C80126B5A89B05C02F3FBA
:1002F00019F00196A11DB11D3FBFBA2FA92F982F4C
:100300008827BC01CD01620F711D811D911D42E046
:10031000660F771F881F991F4A95D1F708958F920E
:100320009F92AF92BF92CF92DF92EF92FF924B01DA
:100330005C010E946A016B017C010E946A016C19D8
:100340007D098E099F09683E734081059105A8F3D8
:1003500021E0821A9108A108B10888EEC80E83E056
:10036000D81EE11CF11C81149104A104B10429F7E9
:10037000FF90EF90DF90CF90BF90AF909F908F90C5
:100380000895089590E080E008959091D0018091C3
:10039000CF01981791F021E0280F2C3008F020E0D1
:1003A00084E0289FF0011124E057FE4F60817181A5
:1003B000828193812093CF0108956FEF7FEFCB016E
:1003C0000895FC0101900020E9F73197AF01481B27
:1003D000590BBC0189EE91E00C948C008F929F9296
:1003E000AF92BF920F931F93CF93DF93CDB7DEB73A
:1003F000A1970FB6F894DEBF0FBECDBF19A2423051
:1004000008F44AE08E010F5D1F4F842E912CB12C11
:10041000A12CA50194010E94150EE62FB901CA0175
:10042000EA30F4F4E05DD801EE938D01232B242B08
:10043000252B79F790E080E0109719F0CD010E940C
:10044000E101A1960FB6F894DEBF0FBECDBFDF91DC
:10045000CF911F910F91BF90AF909F908F90089573
:10046000E95CE1CF0C94E101CF93DF93EC0160E014
:100470008E810E940B0161E08E810E940B0160E081
:100480008E810E940B018BE891E00197F1F7DF91DB
:10049000CF910895CF92DF92EF92FF920F931F9327
:1004A000CF93DF936C017C0187E0E80EF11CD0E074
:1004B000C0E0062F10E0B8010C2E02C075956795BC
:1004C0000A94E2F76170F70181917F010E940B01AC
:1004D0002196C430D10579F7C601DF91CF911F91E4
:1004E0000F91FF90EF90DF90CF900C943402CF9259
:1004F000DF92EF92FF920F931F93CF93DF93EC0164
:10050000F62E642F8C810E940B018D818F3F19F094
:1005100060E00E940B010F2D10E08F8584FF25C045
:100520006E0187E0C80ED11CF12CE12CB8010E2C15
:1005300002C0759567950A94E2F76170F6018191A2
:100540006F010E940B01FFEFEF1AFF0A88E0E81627
:10055000F10461F7CE01DF91CF911F910F91FF90D0
:10056000EF90DF90CF900C943402B80184E0759541
:1005700067958A95E1F7CE010E944A026F2DCE0160
:10058000DF91CF911F910F91FF90EF90DF90CF906F
:100590000C944A0240E0682F89EE91E00C947702B7
:1005A000CF93DF93823029F49091F8019860909373
:1005B000F8018093FC011092FD0180E48093FE011C
:1005C00080E18093FF0180E58093000261E08091EB
:1005D000ED010E9439018091EE018F3F19F061E039
:1005E0000E94390161E08091EF010E943901C9EE5A
:1005F000D1E09E01295E31408091F80184FD0BC05D
:1006000084E090E021962817390744F461E08E8158
:100610000E943901EECF88E090E0F4CF8BE39DE0BB
:100620000197F1F760E08091ED010E940B0160E01D
:100630008091EF010E940B018091EE018F3F19F034
:1006400060E00E940B018091F80184FD39C063E0F5
:1006500089EE91E00E944A02CBE4D6E4CE010197F4
:10066000F1F763E089EE91E00E944A022197F1F7E9
:1006700063E089EE91E00E944A0283E592E00197EF
:10068000F1F762E089EE91E00E944A028091F80160
:1006900080620E94CA0284E08093F9018CE00E948B
:1006A000CA0281E00E94CA028BE39FE10197F1F741
:1006B00082E08093FA0186E0DF91CF910C94CA0228
:1006C00080620E94CA028BE496E40197F1F7809160
:1006D000F80180620E94CA0283E592E00197F1F777
:1006E0008091F80180620E94CA02D0CF9091FC01F3
:1006F000691710F06FEF690FE62FF0E0E751FE4F3A
:100700009489890F80680C94CA0241E00E947702A4
:1007100081E090E008954F925F926F927F928F9266
:100720009F92AF92BF92CF92DF92EF92FF92CF93C0
:10073000DF936B017C01AC019B010E94FC0D8823BF
:1007400091F080E191E0DF91CF91FF90EF90DF9009
:10075000CF90BF90AF909F908F907F906F905F9061
:100760004F900C94E10146015701E894B7F82FEF40
:100770003FEF4FE75FE7C501B4010E94FC0D811117
:100780000DC02FEF3FEF4FE75FE7C501B4010E94B7
:10079000320C18161CF484E191E0D5CF2FEF3FEF17
:1007A0004FE75FE4C701B6010E948A0D18161CF4DA
:1007B00088E191E0C8CF2FEF3FEF4FE75FECC70133
:1007C000B6010E94320C87FDF3CF20E030E0A90192
:1007D000C701B6010E94320CD0E0C0E087FF0CC018
:1007E00041E06DE289EE91E00E947702F7FAF09421
:1007F000F7F8F094C1E0D0E02AE037ED43EA5BE39C
:10080000C701B6010E94C60B4B015C010E94A90CF6
:100810006B017C010E94D80C9B01AC01C501B401A5
:100820000E94C50B4B015C014AE0C701B6010E9462
:10083000EE017C01EC0EFD1E41E06EE289EE91E0DE
:100840000E9477028FEFE81AF80A20E030E040E2D9
:1008500051E4C501B4010E948F0D2B013C010E949F
:10086000A90C4B01B12CA12C4AE0C501B4010E9496
:10087000EE01E80EF91EC501B4010E94D80C9B01DF
:10088000AC01C301B2010E94C50B20E030E040E2A0
:1008900051E40E948F0D0E94A90C90E080E04AE094
:1008A0000E94EE018E0D9F1DDF91CF91FF90EF9082
:1008B000DF90CF90BF90AF909F908F907F906F9080
:1008C0005F904F900895CF92DF92EF92FF92CF9377
:1008D000DF9381E00E94CA02CBE3DFE1CE01019702
:1008E000F1F782E00E94CA022197F1F78CE191E0D2
:1008F0000E943202C090DD01D090DE01E090DF0165
:10090000F090E00120E034E244E759E4C701B60189
:100910000E948A0D181604F520E034E244E759E4F9
:10092000C701B6010E94370C6093DD017093DE01B0
:100930008093DF019093E0010E948B0360E08CE0E4
:100940000E94760381E291E0DF91CF91FF90EF90DA
:10095000DF90CF900C94320220E030E04AE754E47C
:10096000C701B6010E948A0D1816CCF420E030E0D1
:100970004AE754E4C701B6010E94370C6093DD01D9
:100980007093DE018093DF019093E0010E948B035E
:1009900060E08CE00E94760386E291E0D5CF20E013
:1009A00030E040E85FE3C701B6010E948A0D1816E7
:1009B0005CF4C701B6010E948B0360E08CE00E94EA
:1009C00076038BE291E0C0CF2FE632E143E85AE3B1
:1009D000C701B6010E948A0D1816CCF420E030E061
:1009E0004AE754E4C701B6010E948F0D6093DD0110
:1009F0007093DE018093DF019093E0010E948B03EE
:100A000060E08CE00E94760380E391E09DCF2DEBC7
:100A100037E346E855E3C701B6010E948A0D181670
:100A2000CCF420E034E244E759E4C701B6010E9467
:100A30008F0D6093DD017093DE018093DF01909351
:100A4000E0010E948B0360E08CE00E94760385E366
:100A500091E07ACF2FE530E749E850E3C701B601CE
:100A60000E948A0D1816CCF428E23BE64EE65EE4BE
:100A7000C701B6010E948F0D6093DD017093DE0106
:100A80008093DF019093E0010E948B0360E08CE093
:100A90000E9476038AE391E057CF2CEC3CEB4CE8C4
:100AA0005BE2C701B6010E948A0D18160CF081CFD7
:100AB00025EA34ED48E653E5C701B6010E948F0DE3
:100AC0006093DD017093DE018093DF019093E0017C
:100AD0000E948B0360E08CE00E9476038FE391E03C
:100AE00033CFCF92DF92EF92FF928091D00190911D
:100AF000CF01891708F4C8C0891B09F488C12DECFF
:100B00003CEC4CEC5DE36091D9017091DA0180918D
:100B1000DB019091DC010E94320C87FF78C10E94BA
:100B2000C5012091E7013091E801C901860F971FA7
:100B30009093E8018093E7012091E5013091E6016F
:100B40002F5F3F4F3093E6012093E5012F313105B0
:100B50000CF495C0B9010E94010E072E000C880B01
:100B6000990B0E94D80C9B01AC0160E074E284E711
:100B70009BE40E94370C6093D9017093DA01809353
:100B8000DB019093DC016093DD017093DE018093C3
:100B9000DF019093E0010E946304C090D901D090DE
:100BA000DA01E090DB01F090DC012DEB37E346E861
:100BB00055E3C701B6010E948F0DA70196010E945F
:100BC0008F0D20E030E040E850E40E948F0D20EDD2
:100BD0003FE049E450E40E948F0D20ED3FE049E4FE
:100BE00050E40E948F0D9B01AC0160E070E080E852
:100BF0009FE30E94370C6093000170930101809382
:100C000002019093030161E080E00E94760384E496
:100C100091E00E943202C0900001D0900101E0906A
:100C20000201F090030120E034E244E759E4C701F7
:100C3000B6010E948A0D18164CF520E034E244E714
:100C400059E4C701B6010E94370C6093000170930C
:100C5000010180930201909303010E948B0361E0E4
:100C60008DE00E94760389E491E00E9432021092A6
:100C7000E8011092E7011092E6011092E501FF9061
:100C8000EF90DF90CF900895845F36CF20E030E082
:100C90004AE754E4C701B6010E948A0D1816CCF445
:100CA00020E030E04AE754E4C701B6010E94370C67
:100CB00060930001709301018093020190930301FE
:100CC0000E948B0361E08DE00E9476038DE491E049
:100CD000CCCF20E030E040E85FE3C701B6010E94DE
:100CE0008A0D18165CF4C701B6010E948B0361E0FF
:100CF0008DE00E94760381E591E0B7CF2FE632E1E7
:100D000043E85AE3C701B6010E948A0D1816CCF4D5
:100D100020E030E04AE754E4C701B6010E948F0D9D
:100D2000609300017093010180930201909303018D
:100D30000E948B0361E08DE00E94760385E591E0DF
:100D400094CF2DEB37E346E855E3C701B6010E9487
:100D50008A0D1816CCF420E034E244E759E4C701C8
:100D6000B6010E948F0D6093000170930101809382
:100D70000201909303010E948B0361E08DE00E94C9
:100D8000760389E591E071CF2FE530E749E850E33C
:100D9000C701B6010E948A0D1816ACF428E23BE6A2
:100DA0004EE65EE4C701B6010E948F0D609300011C
:100DB0007093010180930201909303010E948B03C1
:100DC0008DE591E052CF2CEC3CEB4CE85BE2C701A7
:100DD000B6010E948A0D18160CF085CF25EA34ED75
:100DE00048E653E5C701B6010E948F0D60930001EC
:100DF0007093010180930201909303010E948B0381
:100E000061E08DE00E94760381E691E02ECF61E003
:100E100082E00E940B0165E070E080E090E00E94BB
:100E20008F0160E082E00E940B018BE891E0019766
:100E3000F1F725CF1F920F920FB60F9211242F9327
:100E40003F938F939F93AF93BF938091C1019091F4
:100E5000C201A091C301B091C4013091C00123E04F
:100E6000230F2D3758F50196A11DB11D2093C00108
:100E70008093C1019093C201A093C301B093C401B8
:100E80008091C5019091C601A091C701B091C801A0
:100E90000196A11DB11D8093C5019093C601A09339
:100EA000C701B093C801BF91AF919F918F913F91BE
:100EB0002F910F900FBE0F901F90189526E8230FCB
:100EC0000296A11DB11DD2CF1F920F920FB60F92A5
:100ED00011242F933F934F935F936F937F938F933F
:100EE0009F93AF93BF93EF93FF93409186005091F0
:100EF0008700B09B0FC041153FEF530758F481E0C6
:100F000086BB8091CD019091CE0101969093CE0148
:100F10008093CD018091CD019091CE01B0E0A0E011
:100F2000DC019927882770E060E0842B952BA62BA5
:100F3000B72B4091C9015091CA016091CB017091CA
:100F4000CC018093C9019093CA01A093CB01B093C7
:100F5000CC012091D0012F5F2C3008F020E030919F
:100F6000CF01321781F0841B950BA60BB70B34E031
:100F7000239FF0011124E057FE4F80839183A283C9
:100F8000B3832093D001FF91EF91BF91AF919F91D7
:100F90008F917F916F915F914F913F912F910F9022
:100FA0000FBE0F901F9018951F920F920FB60F92C1
:100FB00011248F939F938091CD019091CE01019642
:100FC0009093CE018093CD019F918F910F900FBE92
:100FD0000F901F901895789484B5826084BD84B575
:100FE000816084BD85B5826085BD85B5816085BD24
:100FF00080916E00816080936E00109281008091DC
:101000008100826080938100809181008160809363
:101010008100809180008160809380008091B10088
:1010200084608093B1008091B00081608093B000B3
:1010300080917A00846080937A0080917A00826047
:1010400080937A0080917A00816080937A00809109
:101050007A00806880937A001092C10082E00E943A
:10106000D0028091800080918100109281001092C6
:101070008000109285001092840081E286BB8093EC
:101080006F001092CE011092CD011092C901109202
:10109000CA011092CB011092CC011092D001109293
:1010A000CF0181EC8093810085E691E00E943202BD
:1010B00062E083E00E94390162E084E00E9439012D
:1010C00061E082E00E943901C5E0D0E00E94710534
:1010D00065E070E080E090E00E948F012197B1F719
:1010E0000BEC17E0C0E0D0E084E00E94E200892B26
:1010F00019F584E00E94E200892BD9F30E94710562
:1011000065E070E080E090E00E948F010E94710530
:1011100065E070E080E090E00E948F010E94710520
:1011200065E070E080E090E00E948F0160ED77E084
:1011300080E090E00E948F018091D0019091CF01DA
:10114000891708F4DFC0891B09F4EFC20E94C501AA
:101150002091E7013091E801C901860F971F909314
:10116000E8018093E7012091E5013091E6012F5FCE
:101170003F4F3093E6012093E5012F3131050CF408
:10118000B6C0B9010E94010E072E000C880B990B06
:101190000E94D80C9B01AC0160E074E284E79BE400
:1011A0000E94370C6093E1017093E2018093E301A8
:1011B0009093E4016093DD017093DE018093DF0181
:1011C0009093E0010E9463048090E1019090E2011D
:1011D000A090E301B090E401C090D901D090DA0171
:1011E000E090DB01F090DC01A7019601C501B4019C
:1011F0000E948A0D18160CF056C180900001909044
:101200000101A0900201B09003012DEB37E346E805
:1012100055E3C501B4010E948F0DA70196010E94FC
:101220008F0DA70196010E948F0D20E030E040E86D
:1012300050E40E948F0D20ED3FE049E450E40E940D
:101240008F0D20ED3FE049E450E40E948F0D20E037
:1012500030E040E85FE30E94C50B9B01AC01C50193
:10126000B4010E94370C6093D1017093D201809336
:10127000D3019093D40161E080E00E94760384E47E
:1012800091E00E943202C090D101D090D201E09052
:10129000D301F090D40120E034E244E759E4C701DF
:1012A000B6010E948A0D18167CF520E034E244E76E
:1012B00059E4C701B6010E94370C6093D1017093C5
:1012C000D2018093D3019093D4010E948B0361E0FB
:1012D0008DE00E94760389E491E00E943202109230
:1012E000E8011092E7011092E6011092E50183E017
:1012F0000E94E200892BD9F3209709F4F5CE0E94D1
:101300000000F2CE845F1FCF20E030E04AE754E4D3
:10131000C701B6010E948A0D1816CCF420E030E017
:101320004AE754E4C701B6010E94370C6093D1012B
:101330007093D2018093D3019093D4010E948B03C8
:1013400061E08DE00E9476038DE491E0C6CF20E05D
:1013500030E040E85FE3C701B6010E948A0D18162D
:101360005CF4C701B6010E948B0361E08DE00E942E
:10137000760382E591E0B1CF2FE632E143E85AE30C
:10138000C701B6010E948A0D1816CCF420E030E0A7
:101390004AE754E4C701B6010E948F0D6093D10162
:1013A0007093D2018093D3019093D4010E948B0358
:1013B00061E08DE00E94760385E591E08ECF2DEB14
:1013C00037E346E855E3C701B6010E948A0D1816B7
:1013D000CCF420E034E244E759E4C701B6010E94AE
:1013E0008F0D6093D1017093D2018093D3019093BC
:1013F000D4010E948B0361E08DE00E94760389E5B1
:1014000091E06BCF2FE530E749E850E3C701B60123
:101410000E948A0D1816CCF428E23BE64EE65EE404
:10142000C701B6010E948F0D6093D1017093D20164
:101430008093D3019093D4010E948B0361E08DE0EF
:101440000E9476038DE591E048CF2CEC3CEB4CE814
:101450005BE2C701B6010E948A0D1816CCF425EA9A
:1014600034ED48E653E5C701B6010E948F0D609345
:10147000D1017093D2018093D3019093D4010E9443
:101480008B0361E08DE00E94760381E691E025CF39
:10149000C701B6010E948B0361E08DE00E947603D4
:1014A00081E591E01ACFA7019601C501B4010E9420
:1014B000320C87FF14CF209100013091010140913F
:1014C000020150910301C701B6010E948F0DA701CF
:1014D00096010E948F0D20E030E040E850E40E9429
:1014E0008F0D20ED3FE049E450E40E948F0D20ED88
:1014F0003FE049E450E40E948F0D9B01AC0160E0A5
:1015000070E080E89FE30E94370C2DEB37E346E85C
:1015100055E30E94C50B6093D5017093D60180936B
:10152000D7019093D80161E080E00E9476038AE6BB
:1015300091E00E943202C090D501D090D601E09097
:10154000D701F090D80120E034E244E759E4C70124
:10155000B6010E948A0D1816CCF420E034E244E76C
:1015600059E4C701B6010E94370C6093D50170930E
:10157000D6018093D7019093D8010E948B0361E03C
:101580008DE00E9476038FE691E0A7CE20E030E068
:101590004AE754E4C701B6010E948A0D1816CCF43C
:1015A00020E030E04AE754E4C701B6010E94370C5E
:1015B0006093D5017093D6018093D7019093D801A1
:1015C0000E948B0361E08DE00E94760383E791E047
:1015D00084CE20E030E040E85FE3C701B6010E941E
:1015E0008A0D18165CF4C701B6010E948B0361E0F6
:1015F0008DE00E94760387E791E06FCE2FE632E11F
:1016000043E85AE3C701B6010E948A0D1816CCF4CC
:1016100020E030E04AE754E4C701B6010E948F0D94
:101620006093D5017093D6018093D7019093D80130
:101630000E948B0361E08DE00E9476038BE791E0CE
:101640004CCE2DEB37E346E855E3C701B6010E94C7
:101650008A0D1816CCF420E034E244E759E4C701BF
:10166000B6010E948F0D6093D5017093D6018093CF
:10167000D7019093D8010E948B0361E08DE00E9416
:1016800076038FE791E029CE2FE530E749E850E374
:10169000C701B6010E948A0D1816CCF428E23BE679
:1016A0004EE65EE4C701B6010E948F0D6093D5013E
:1016B0007093D6018093D7019093D8010E948B0339
:1016C00061E08DE00E94760383E891E006CE2CEC89
:1016D0003CEB4CE85BE2C701B6010E948A0D18168C
:1016E000CCF425EA34ED48E653E5C701B6010E9483
:1016F0008F0D6093D5017093D6018093D70190939D
:10170000D8010E948B0361E08DE00E94760387E898
:1017100091E0E3CDC701B6010E948B0361E08DE04B
:101720000E9476038BE891E0D8CD61E082E00E94D0
:101730000B0165E070E080E090E00E948F0160E0C6
:1017400082E00E940B01C8010197F1F7D0CDE9EECC
:10175000F1E01382128288E091E09183808385E03A
:1017600084838FEF858389E086838AE087838BE09B
:1017700080878CE081878DE08287138614861586AA
:101780001686178681E00C94D0025058BB27AA27F2
:101790000E94DD0B0C94500D0E94420D38F00E9407
:1017A000490D20F039F49F3F19F426F40C943F0DB5
:1017B0000EF4E095E7FB0C94390DE92F0E94610DC2
:1017C00058F3BA17620773078407950720F079F476
:1017D000A6F50C94830D0EF4E0950B2EBA2FA02DD8
:1017E0000B01B90190010C01CA01A0011124FF27CE
:1017F000591B99F0593F50F4503E68F11A16F040C9
:10180000A22F232F342F4427585FF3CF46953795C7
:101810002795A795F0405395C9F77EF41F16BA0B8C
:10182000620B730B840BBAF09150A1F0FF0FBB1F3A
:10183000661F771F881FC2F70EC0BA0F621F731F83
:10184000841F48F4879577956795B795F7959E3FE0
:1018500008F0B0CF9395880F08F09927EE0F979571
:10186000879508950E94150D08F481E008950E945F
:101870004B0C0C94500D0E94490D58F00E94420DE3
:1018800040F029F45F3F29F00C94390D51110C946C
:10189000840D0C943F0D0E94610D68F39923B1F300
:1018A000552391F3951B550BBB27AA276217730786
:1018B000840738F09F5F5F4F220F331F441FAA1F1A
:1018C000A9F335D00E2E3AF0E0E832D091505040D6
:1018D000E695001CCAF72BD0FE2F29D0660F771F84
:1018E000881FBB1F261737074807AB07B0E809F06A
:1018F000BB0B802DBF01FF2793585F4F3AF09E3FEF
:10190000510578F00C94390D0C94840D5F3FE4F38D
:10191000983ED4F3869577956795B795F7959F5F31
:10192000C9F7880F911D9695879597F90895E1E07D
:10193000660F771F881FBB1F621773078407BA07DC
:1019400020F0621B730B840BBA0BEE1F88F7E09537
:1019500008950E94690D88F09F5798F0B92F992734
:10196000B751B0F0E1F0660F771F881F991F1AF08A
:10197000BA95C9F714C0B13091F00E94830DB1E05F
:1019800008950C94830D672F782F8827B85F39F05E
:10199000B93FCCF3869577956795B395D9F73EF423
:1019A00090958095709561957F4F8F4F9F4F0895CB
:1019B000E89409C097FB3EF49095809570956195E9
:1019C0007F4F8F4F9F4F9923A9F0F92F96E9BB279F
:1019D0009395F695879577956795B795F111F8CF1B
:1019E000FAF4BB0F11F460FF1BC06F5F7F4F8F4F86
:1019F0009F4F16C0882311F096E911C0772321F07C
:101A00009EE8872F762F05C0662371F096E8862F13
:101A100070E060E02AF09A95660F771F881FDAF76A
:101A2000880F9695879597F90895990F0008550F97
:101A3000AA0BE0E8FEEF16161706E807F907C0F054
:101A400012161306E407F50798F0621B730B840B5C
:101A5000950B39F40A2661F0232B242B252B21F436
:101A600008950A2609F4A140A6958FEF811D811DD6
:101A7000089597F99F6780E870E060E008959FEF10
:101A800080EC089500240A94161617061806090615
:101A9000089500240A9412161306140605060895E4
:101AA000092E0394000C11F4882352F0BB0F40F46C
:101AB000BF2B11F460FF04C06F5F7F4F8F4F9F4FAC
:101AC000089557FD9058440F551F59F05F3F71F02E
:101AD0004795880F97FB991F61F09F3F79F0879595
:101AE0000895121613061406551FF2CF4695F1DF1E
:101AF00008C0161617061806991FF1CF86957105AE
:101B0000610508940895E894BB2766277727CB01E1
:101B100097F908950E94150D08F48FEF08950E941B
:101B2000A20D0C94500D0E94420D38F00E94490DF8
:101B300020F0952311F00C94390D0C943F0D1124D5
:101B40000C94840D0E94610D70F3959FC1F3950F65
:101B500050E0551F629FF001729FBB27F00DB11D31
:101B6000639FAA27F00DB11DAA1F649F6627B00DC1
:101B7000A11D661F829F2227B00DA11D621F739FAA
:101B8000B00DA11D621F839FA00D611D221F749FB8
:101B90003327A00D611D231F849F600D211D822FFF
:101BA000762F6A2F11249F5750409AF0F1F0882326
:101BB0004AF0EE0FFF1FBB1F661F771F881F915053
:101BC0005040A9F79E3F510580F00C94390D0C94BC
:101BD000840D5F3FE4F3983ED4F38695779567953F
:101BE000B795F795E7959F5FC1F7FE2B880F911D7D
:101BF0009695879597F908950E94150D880B990B76
:101C0000089597FB072E16F4009407D077FD09D0AE
:101C10000E94370E07FC05D03EF4909581959F4FAA
:101C20000895709561957F4F0895A1E21A2EAA1B21
:101C3000BB1BFD010DC0AA1FBB1FEE1FFF1FA2177C
:101C4000B307E407F50720F0A21BB30BE40BF50B79
:101C5000661F771F881F991F1A9469F76095709502
:101C6000809590959B01AC01BD01CF010895AA1B01
:101C7000BB1B51E107C0AA1FBB1FA617B70710F077
:101C8000A61BB70B881F991F5A95A9F780959095A9
:101C9000BC01CD010895EE0FFF1F0590F491E02DDA
:101CA0000994F894FFCFBD37863500000000850306
:101CB0008C00C201C1016E616E00696E66006F76B4
:101CC000660046203D2000204D487A00206B487A6F
:101CD0000020487A2000206D487A002075487A005C
:101CE000206E487A002070487A004C203D20002069
:101CF0004D4800206B480020204800206D480020FF
:101D0000754800206E48002070480065617A7900AF
:101D100043203D2000204D4600206B4600204620F9
:101D200000206D460020754600206E46002070465B
:061D300000202046000027
:107800000C94343C0C94513C0C94513C0C94513CE1
:107810000C94513C0C94513C0C94513C0C94513CB4
:107820000C94513C0C94513C0C94513C0C94513CA4
:107830000C94513C0C94513C0C94513C0C94513C94
:107840000C94513C0C94513C0C94513C0C94513C84
:107850000C94513C0C94513C0C94513C0C94513C74
:107860000C94513C0C94513C11241FBECFEFD8E036
:10787000DEBFCDBF11E0A0E0B1E0ECE9FFE702C060
:1078800005900D92A230B107D9F712E0A2E0B1E065
:1078900001C01D92AD30B107E1F70E942D3D0C945F
:1078A000CC3F0C94003C982F959595959595959582
:1078B000905D8F708A307CF0282F295A8091C0000B
:1078C00085FFFCCF9093C6008091C00085FFFCCF60
:1078D0002093C6000895282F205DF0CF982F809127
:1078E000C00085FFFCCF9093C6000895EF92FF92F1
:1078F0000F931F93EE24FF2487018091C00087FD22
:1079000017C00894E11CF11C011D111D81E4E8164B
:1079100082E4F8068FE0080780E0180770F3E09132
:107920000401F091050109958091C00087FFE9CF1E
:107930008091C6001F910F91FF90EF9008950E94D3
:10794000763C982F8091C00085FFFCCF9093C600B5
:1079500091362CF490330CF09053892F089597555D
:10796000892F08951F930E949F3C182F0E949F3CCF
:107970001295107F810F1F9108951F93182F882350
:1079800021F00E94763C1150E1F71F9108951F935A
:10799000182F0E94763C803249F0809103018F5F5E
:1079A000809303018530C1F01F9108958091C0003C
:1079B00085FFFCCF84E18093C6008091C00085FFE5
:1079C000FCCF1093C6008091C00085FFFCCF80E102
:1079D0008093C6001F910895E0910401F091050184
:1079E00009951F9108950E94763C803241F0809164
:1079F00003018F5F80930301853081F008958091AA
:107A0000C00085FFFCCF84E18093C6008091C00058
:107A100085FFFCCF80E18093C6000895E0910401CA
:107A2000F09105010995089540E951E08823A1F0FE
:107A30002D9A28EE33E0FA013197F1F721503040CA
:107A4000D1F72D9828EE33E0FA013197F1F7215064
:107A50003040D1F7815061F708953F924F925F9285
:107A60006F927F928F929F92AF92BF92CF92DF924E
:107A7000EF92FF920F931F93CF93DF93000080E16B
:107A80008093C4001092C50088E18093C10086E015
:107A90008093C2005098589A259A81E00E94143D24
:107AA00024E1F22E9EE1E92E85E9D82E0FE0C02ECA
:107AB00010E1B12EAA24A394B1E49B2EA6E58A2E50
:107AC000F2E57F2EE0E26E2E79E4572E63E5462E36
:107AD00050E5352E0E94763C8033B1F18133B9F107
:107AE000803409F46FC0813409F476C0823409F41B
:107AF00085C0853409F488C0803531F1823521F1A3
:107B0000813511F1853509F485C0863509F48DC0BC
:107B1000843609F496C0843709F403C1853709F423
:107B200072C1863709F466C0809103018F5F80932C
:107B30000301853079F6E0910401F0910501099582
:107B40000E94763C803351F60E94F33CC3CF0E94E2
:107B5000763C803249F78091C00085FFFCCFF092DF
:107B6000C6008091C00085FFFCCF9092C600809136
:107B7000C00085FFFCCF8092C6008091C00085FFC9
:107B8000FCCF7092C6008091C00085FFFCCF609250
:107B9000C6008091C00085FFFCCF5092C600809146
:107BA000C00085FFFCCF4092C6008091C00085FFD9
:107BB000FCCF3092C6008091C00085FFFCCFB09210
:107BC000C60088CF0E94763C863808F4BDCF0E945C
:107BD000763C0E94F33C7ECF0E94763C803809F4CC
:107BE0009CC0813809F40BC1823809F43CC1883942
:107BF00009F48FC080E00E94C73C6CCF84E10E94F2
:107C0000BD3C0E94F33C66CF85E00E94BD3C0E94D3
:107C1000F33C60CF0E94763C809306010E94763C44
:107C2000809307010E94F33C55CF0E94763C80333D
:107C300009F41DC183E00E94BD3C80E00E94C73C66
:107C400049CF0E94763C809309020E94763C809343
:107C5000080280910C028E7F80930C020E94763C79
:107C6000853409F415C18091080290910902892B8D
:107C700089F000E010E00E94763CF801E85FFE4FDA
:107C800080830F5F1F4F80910802909109020817AF
:107C9000190788F30E94763C803209F045CF809125
:107CA0000C0280FF01C16091060170910701660F0F
:107CB000771F7093070160930601A0910802B091AD
:107CC00009021097C9F0E8E0F1E09B01AD014E0F09
:107CD0005F1FF999FECF32BD21BD819180BDFA9A17
:107CE000F99A2F5F3F4FE417F50799F76A0F7B1F4B
:107CF00070930701609306018091C00085FFFCCF5F
:107D0000F092C6008091C00085FFFCCFB092C60003
:107D1000E1CE83E00E94C73CDDCE82E00E94C73CFA
:107D2000D9CE0E94763C809309020E94763C8093D3
:107D300008028091060190910701880F991F909386
:107D40000701809306010E94763C853409F4A6C0A1
:107D500080910C028E7F80930C020E94763C8032D0
:107D600009F0B8CE8091C00085FFFCCFF092C6002C
:107D7000609108027091090261157105B9F140E046
:107D800050E080910C02A82FA170B82FB27011C0E2
:107D9000BB2309F45CC0E0910601F0910701319624
:107DA000F0930701E09306014F5F5F4F46175707B7
:107DB000E8F4AA2369F3F999FECF209106013091E6
:107DC000070132BD21BDF89A90B58091C00085FFB2
:107DD000FCCF9093C6002F5F3F4F30930701209355
:107DE00006014F5F5F4F4617570718F38091C00099
:107DF00085FDE5CE8091C00085FFF8CFE0CE81E023
:107E00000E94C73C67CE0E94763C803209F08CCE3F
:107E10008091C00085FFFCCFF092C6008091C00029
:107E200085FFFCCFE092C6008091C00085FFFCCFAB
:107E3000D092C6008091C00085FFFCCFC092C600E2
:107E40008091C00085FFFCCFB092C60043CEE09188
:107E50000601F091070194918091C00085FFFCCF4D
:107E60009093C6009CCF80E10E94C73C33CE0E9415
:107E7000763C0E94763C182F0E94763C112309F430
:107E800083C0113009F484C08FE00E94C73C22CE29
:107E900080910C02816080930C02E5CE80910C02EF
:107EA000816080930C0259CF809107018823880F4D
:107EB000880B8A2180930B02809106019091070123
:107EC000880F991F90930701809306018091080203
:107ED00080FF09C080910802909109020196909359
:107EE000090280930802F894F999FECF1127E091D6
:107EF0000601F0910701C8E0D1E08091080290915D
:107F00000902103091F40091570001700130D9F34B
:107F100003E000935700E89500915700017001308D
:107F2000D9F301E100935700E89509901990009169
:107F3000570001700130D9F301E000935700E89534
:107F40001395103498F011270091570001700130FB
:107F5000D9F305E000935700E895009157000170B0
:107F60000130D9F301E100935700E895329602976A
:107F700009F0C7CF103011F00296E5CF112480919F
:107F8000C00085FFB9CEBCCE8EE10E94C73CA2CD19
:0E7F900085E90E94C73C9ECDF894FFCF80008B
:00000001FF
