:020000040000FA
:100000000C9429030C9451030C9451030C94510348
:100010000C9451030C9451030C9451030C94510310
:100020000C9451030C9451030C9451030C94510300
:100030000C9451030C9451030C9451030C945103F0
:100040000C9486170C9451030C9454170C942E178F
:100050000C9451030C9451030C9451030C945103D0
:100060000C94D0170C94510305A84CCDB2D44EB9C2
:100070003836A9020C50B9918688083CA6AAAA2A4B
:10008000BE000000803F00000000003E5B4F5B3E72
:100090003E6B4F6B3E1C3E7C3E1C183C7E3C181C4D
:1000A000577D571C1C5E7F5E1C00183C1800FFE744
:1000B000C3E7FF0018241800FFE7DBE7FF30483AEA
:1000C000060E2629792926407F050507407F05254C
:1000D0003F5A3CE73C5A7F3E1C1C08081C1C3E7FD4
:1000E00014227F22145F5F005F5F06097F017F009B
:1000F0006689956A606060606094A2FFA2940804BB
:100100007E040810207E201008082A1C08081C2ADB
:1001100008081E101010100C1E0C1E0C30383E3833
:1001200030060E3E0E06000000000000005F0000DA
:100130000007000700147F147F14242A7F2A12234B
:100140001308646236495620500008070300001C5B
:100150002241000041221C002A1C7F1C2A08083E64
:100160000808008070300008080808080000606077
:100170000020100804023E5149453E00427F4000E5
:1001800072494949462141494D331814127F1027BD
:10019000454545393C4A494931412111090736490C
:1001A000494936464949291E0000140000004034E0
:1001B00000000008142241141414141400412214E5
:1001C0000802015909063E415D594E7C1211127C0C
:1001D0007F494949363E414141227F4141413E7F6D
:1001E000494949417F090909013E414151737F084D
:1001F00008087F00417F41002040413F017F0814F3
:1002000022417F404040407F021C027F7F04081053
:100210007F3E4141413E7F090909063E4151215E31
:100220007F09192946264949493203017F01033FC5
:100230004040403F1F2040201F3F4038403F631454
:1002400008146303047804036159494D43007F4156
:1002500041410204081020004141417F0402010293
:1002600004404040404000030708002054547840B8
:100270007F284444383844444428384444287F384C
:100280005454541800087E090218A4A49C787F08CE
:1002900004047800447D40002040403D007F102849
:1002A000440000417F40007C047804787C0804040A
:1002B000783844444438FC1824241818242418FCA2
:1002C0007C08040408485454542404043F44243C47
:1002D0004040207C1C2040201C3C4030403C4428B6
:1002E0001028444C9090907C4464544C4400083650
:1002F00041000000770000004136080002010204BE
:10030000023C2623263C1EA1A161123A4040207ADD
:100310003854545559215555794122545478422125
:100320005554784020545579400C1E52721239555C
:100330005555593954545459395554545800004559
:100340007C410002457D420001457C407D12111236
:100350007DF0282528F07C545545002054547C54C9
:100360007C0A097F4932494949323A4444443A3285
:100370004A4848303A4141217A3A42402078009D2B
:10038000A0A07D3D4242423D3D4040403D3C24FFD7
:100390002424487E4943662B2FFC2F2BFF0929F686
:1003A00020C0887E090320545479410000447D41D7
:1003B0003048484A32384040227A007A0A0A727D30
:1003C0000D19317D2629292F28262929292630484B
:1003D0004D4020380808080808080808382F10C8B9
:1003E000ACBA2F102834FA00007B000008142A143D
:1003F0002222142A14085500550055AA55AA55AAB8
:10040000FF55FF55FF000000FF00101010FF001403
:100410001414FF001010FF00FF1010F010F014145F
:1004200014FC001414F700FF0000FF00FF1414F484
:1004300004FC141417101F10101F101F1414141F85
:1004400000101010F0000000001F101010101F10FE
:10045000101010F010000000FF10101010101010FD
:100460001010FF10000000FF140000FF00FF00004C
:100470001F10170000FC04F414141710171414F4C0
:1004800004F40000FF00F714141414141414F700FB
:10049000F7141414171410101F101F141414F4144C
:1004A0001010F010F000001F101F0000001F1400BB
:1004B0000000FC140000F010F01010FF10FF1414E6
:1004C00014FF141010101F00000000F010FFFFFFB9
:1004D000FFFFF0F0F0F0F0FFFFFF0000000000FF72
:1004E000FF0F0F0F0F0F3844443844FC4A4A4A3478
:1004F0007E02020606027E027E026355494163388F
:1005000044443C04407E201E2006027E020299A53F
:10051000E7A5991C2A492A1C4C7201724C304A4D9D
:100520004D303048784830BC625A463D3E494949D2
:10053000007E0101017E2A2A2A2A2A44445F44447B
:1005400040514A444040444A51400000FF0103E00A
:1005500080FF000008086B6B083612362436060F41
:10056000090F06000018180000001010003040FFAE
:100570000101001F01011E00191D1712003C3C3C27
:100580003C0000000000EF03038002CF0300C130F5
:10059000ED0464031281E803850078CB05392C0053
:1005A0003402F70120EA020000C00123C10110C596
:1005B000023E28C701863601483701003A0155B18D
:1005C000020018B603088227F20100260101E00F9D
:1005D0000F312B0C0E084EF1370710030E0900E106
:1005E0000F000E1403110731C148080F0C31360FEC
:1005F000118029800000000000240027002A00004C
:1006000000000800020100000304070000000000D1
:100610000000000000000023002600290001020461
:100620000810204080010204081020010204081074
:100630002000000000250028002B0004040404040E
:100640000404040202020202020303030303030080
:10065000301911241FBECFEFD8E0DEBFCDBF11E0AF
:10066000A0E0B1E0E0EFF4E502C005900D92AC3BF4
:10067000B107D9F723E0ACEBB1E001C01D92AB3577
:10068000B207E1F713E0C9E2D3E004C02197FE010D
:100690000E946B2AC832D107C9F70E94641A0C94D1
:1006A000762A0C940000AF92BF92CF92DF92EF9225
:1006B000FF920F931F93CF93DF936C017B018B010C
:1006C000040F151FEB015E01AE18BF08C017D1075C
:1006D00059F06991D601ED91FC910190F081E02DE6
:1006E000C6010995892B79F7C501DF91CF911F913B
:1006F0000F91FF90EF90DF90CF90BF90AF90089553
:10070000FC01538D448D252F30E0842F90E0821B17
:10071000930B541710F0CF96089501970895FC019C
:10072000918D828D981761F0A28DAE0FBF2FB11DF4
:100730005D968C91928D9F5F9F73928F90E008954C
:100740008FEF9FEF0895FC01918D828D981731F006
:10075000828DE80FF11D858D90E008958FEF9FEF5A
:100760000895FC01918D228D892F90E0805C9F4F30
:10077000821B91098F739927089583E692E00E9466
:10078000B10321E0892B09F420E0822F089580E055
:1007900090E0892B29F00E94BD0381110C94000088
:1007A0000895FC01A48DA80FB92FB11DA35ABF4F06
:1007B0002C91848D90E001968F739927848FA68960
:1007C000B7892C93A089B1898C91837080648C93B4
:1007D000938D848D981306C00288F389E02D808163
:1007E0008F7D80830895EF92FF920F931F93CF9395
:1007F000DF93EC0181E0888F9B8D8C8D98131AC05C
:10080000E889F989808185FF15C09FB7F894EE8942
:10081000FF896083E889F98980818370806480839F
:100820009FBF81E090E0DF91CF911F910F91FF90EA
:10083000EF900895F62E0B8D10E00F5F1F4F0F7392
:100840001127E02E8C8D8E110CC00FB607FCFACF4D
:10085000E889F989808185FFF5CFCE010E94D10317
:10086000F1CFEB8DEC0FFD2FF11DE35AFF4FF0821E
:100870009FB7F8940B8FEA89FB8980818062CFCF84
:10088000CF93DF93EC01888D8823B9F0AA89BB89C7
:10089000E889F9898C9185FD03C0808186FD0DC0B2
:1008A0000FB607FCF7CF8C9185FFF2CF808185FFD3
:1008B000EDCFCE010E94D103E9CFDF91CF91089512
:1008C000833081F028F4813099F08230A9F00895C6
:1008D0008730A9F08830C9F08430B1F4809180006D
:1008E0008F7D03C0809180008F7780938000089572
:1008F00084B58F7784BD089584B58F7DFBCF8091BB
:10090000B0008F778093B00008958091B0008F7D04
:10091000F9CF1F93CF93DF93282F30E0F901E150F7
:10092000FA4F8491F901E35EF94FD491F901E55C46
:10093000F94FC491CC23A9F0162F81110E946004B5
:10094000EC2FF0E0EE0FFF1FEF5CF94FA591B49193
:100950008FB7F894EC91111108C0D095DE23DC9389
:100960008FBFDF91CF911F910895DE2BF8CFCF93EA
:10097000DF9390E0FC01E35EF94F2491855C994F91
:10098000FC0184918823D1F090E0880F991FFC012D
:10099000EB50FA4FA591B491FC01EF5CF94FC59172
:1009A000D49161110EC09FB7F8948C91E22FE0951D
:1009B0008E238C932881E223E8839FBFDF91CF9120
:1009C00008958FB7F894EC91E22BEC938FBFF6CF9C
:1009D0008E50806480937C0080917A008064809344
:1009E0007A0080917A0086FDFCCF8091780090910A
:1009F000790008953FB7F8948091330290913402C2
:100A0000A0913502B091360226B5A89B05C02F3FB4
:100A100019F00196A11DB11D3FBFBA2FA92F982F24
:100A20008827BC01CD01620F711D811D911D42E01F
:100A3000660F771F881F991F4A95D1F708958F92E7
:100A40009F92AF92BF92CF92DF92EF92FF924B01B3
:100A50005C010E94FA046B017C010E94FA046C198B
:100A60007D098E099F09683E734081059105A8F3B1
:100A700021E0821A9108A108B10888EEC80E83E02F
:100A8000D81EE11CF11C81149104A104B10429F7C2
:100A9000FF90EF90DF90CF90BF90AF909F908F909E
:100AA00008952091E401260F3327331F21323105A9
:100AB000ECF420910802FC0190E080E0243069F021
:100AC00082E00895A091E4012191AC014C535E4F66
:100AD000A40FB52FB11D2C930196861798F3809122
:100AE000E401680F6093E40180E0089581E00895D7
:100AF00008958FEF9FEF08958FEF9FEF08958091F6
:100B0000BD0190E09195819591090895CF93DF9370
:100B1000CB01EA01642F0E945105CE01DF91CF91F4
:100B20000895CF93DF931F92CDB7DEB7698361E05D
:100B3000CE0101960E94510581E090E00F90DF9177
:100B4000CF910895FC01A5A1B6A18C9192A589230E
:100B50008C93A5A1B6A18C9191A5892B8C93089516
:100B60000F931F93CF93DF93EC018B018DA981111C
:100B70000DC01EBD0DB407FEFDCF0EBD0DB407FEAA
:100B8000FDCFDF91CF911F910F9108958130E9F44E
:100B900080E1E9A1FAA1908117FF14C02DA1922B49
:100BA0009083EBA1FCA190812FA1922B9083EBA1CC
:100BB000FCA1908128A592239083000F111F8150E2
:100BC00041F7DFCF2EA19223EBCFEF8DF8A1108359
:100BD000CE010E94A205EF8DF8A10083CE01DF9126
:100BE000CF911F910F910C94A205FC0185A9811151
:100BF00005C06EBD0DB407FEFDCF08958130E1F450
:100C000088E0A1A1B2A19C9167FF13C025A1922BFE
:100C10009C93A3A1B4A19C9127A1922B9C93660FB6
:100C2000A3A1B4A19C9120A592239C93815049F744
:100C3000089526A19223ECCFA78DB0A16C93CF018C
:100C40000C94A205CF93DF93EC01ED8DFE8D808196
:100C50009CA989238083CE010E94F505ED8DFE8D30
:100C600080819BA9892B8083DF91CF910895AF92DA
:100C7000BF92CF92DF92EF92FF920F931F93CF9389
:100C8000DF93EC015B016A01215031097901E60E25
:100C9000F71E01501109040F151F6AE20E94220677
:100CA000B501CE010E94B005B701CE010E94B0058A
:100CB0006BE2CE010E942206B601CE010E94B00571
:100CC000B801CE010E94B0056CE2CE01DF91CF9158
:100CD0001F910F91FF90EF90DF90CF90BF90AF905A
:100CE0000C942206FC0185A9811104C091A182A166
:100CF0009CBD8DBD08951F93CF93DF93EC01162FFC
:100D0000E881F9810284F385E02D0995112371F0C2
:100D10006DADCE010E942206E881F9810688F7892F
:100D2000E02DCE01DF91CF911F9109946EADF1CFEF
:100D3000AF92BF92CF92DF92EF92FF920F931F93E9
:100D4000CF93DF93EC0177FD38C0888599856817CC
:100D500079079CF557FD31C08A859B85481759074F
:100D600064F569017A015B01E881F9810284F38508
:100D7000E02DCE010995E881F98102A4F3A5E02DCB
:100D800001E010E021E030E0A701B501CE010995B6
:100D9000B601CE010E94B005E881F9810688F78985
:100DA000E02DCE01DF91CF911F910F91FF90EF9039
:100DB000DF90CF90BF90AF900994DF91CF911F91BA
:100DC0000F91FF90EF90DF90CF90BF90AF9008957C
:100DD0008F929F92AF92BF92CF92DF92EF92FF924B
:100DE0000F931F93CF93DF93EC0149015701E881E3
:100DF000F98102A4F3A5E02D09959401D8010E9480
:100E00005C2A6B017C01C114D104E104F10409F4F2
:100E100090C08DA9811115C081E0C81AD108E108E0
:100E2000F1088FEFC816D806E806F80609F481C065
:100E3000BEBC0DB407FEFDCFAEBC0DB407FEFDCFAA
:100E4000EBCF813009F045C081E0C81AD108E10834
:100E5000F1088FEFC816D806E806F80609F469C04D
:100E60009B2D88E0E9A1FAA1208197FF2CC03DA12C
:100E7000232B2083EBA1FCA120813FA1232B2083E6
:100E8000EBA1FCA1208138A523232083990F815059
:100E900049F79A2D88E0E9A1FAA1208197FF16C0B1
:100EA0003DA1232B2083EBA1FCA120813FA1232B7B
:100EB0002083EBA1FCA1208138A523232083990F57
:100EC000815049F7C1CF3EA12323D3CF3EA1232395
:100ED000E9CFBA1016C0CC0CDD1CEE1CFF1CEF8D48
:100EE000F8A1B08281E0C81AD108E108F1088FEFBB
:100EF000C816D806E806F806E1F0CE010E94A20561
:100F0000F1CF81E0C81AD108E108F1088FEFC816C7
:100F1000D806E806F80669F0EF8DF8A1B082CE0198
:100F20000E94A205EF8DF8A1A082CE010E94A20529
:100F3000E8CFDF91CF911F910F91FF90EF90DF905D
:100F4000CF90BF90AF909F908F9008958F929F9277
:100F5000AF92BF92CF92DF92EF92FF920F931F93C7
:100F6000CF93DF935C014B016A01E90177FD52C029
:100F7000DC0118968D919C91681779070CF04AC096
:100F8000209709F447C037FF07C0C9010196C80E72
:100F9000D91ED195C195D109F50182859385C816D1
:100FA000D906C4F5A6014C0F5D1F9A0121503109E5
:100FB00037FD30C0D7FE03C0EA01D12CC12C281761
:100FC00039071CF0EC01CC19DD09D501ED91FC913C
:100FD0000284F385E02DC501099578018E0121E099
:100FE00030E0A601B401C5010E94E806D501ED91EB
:100FF000FC910688F789E02DC501DF91CF911F9103
:101000000F91FF90EF90DF90CF90BF90AF909F90A7
:101010008F900994DF91CF911F910F91FF90EF90E6
:10102000DF90CF90BF90AF909F908F9008958F9258
:101030009F92AF92BF92CF92DF92EF92FF920F9367
:101040001F93CF93DF935C016B014A01E90157FDC8
:1010500052C0DC011A968D919C91481759070CF0EB
:101060004AC0209709F447C037FF07C0C90101965D
:10107000C80ED91ED195C195D109F50180859185FC
:10108000C816D906C4F5A6014C0F5D1F9A01215060
:10109000310937FD30C0D7FE03C0EA01D12CC12C85
:1010A000281739071CF0EC01CC19DD09D501ED91A9
:1010B000FC910284F385E02DC5010995780101E0DA
:1010C00010E09E01A401B601C5010E94E806D50109
:1010D000ED91FC910688F789E02DC501DF91CF9154
:1010E0001F910F91FF90EF90DF90CF90BF90AF9046
:1010F0009F908F900994DF91CF911F910F91FF9056
:10110000EF90DF90CF90BF90AF909F908F90089519
:101110008F929F92AF92BF92CF92DF92EF92FF9207
:101120000F931F93CF93DF934C016B015A01E90199
:10113000209709F46CC00115110509F468C037FF48
:1011400007C0C9010196C80ED91ED195C195D10914
:10115000F401A085B185CA16DB060CF058C017FF54
:1011600007C0C8010196A80EB91E11950195110975
:10117000F40182859385A816B9060CF048C0F601E3
:10118000EC0FFD1FAF014150510957FD40C0B501A3
:10119000600F711F9B012150310937FD38C0D7FE08
:1011A00003C0EF01D12CC12CB7FE03C08B01B12CC1
:1011B000A12C4A175B071CF0ED01CC19DD0928179B
:1011C00039071CF08C010A191B09D401ED91FC911F
:1011D0000284F385E02DC40109959E01A501B601A5
:1011E000C4010E94E806D401ED91FC910688F789BC
:1011F000E02DC401DF91CF911F910F91FF90EF90EF
:10120000DF90CF90BF90AF909F908F900994DF9127
:10121000CF911F910F91FF90EF90DF90CF90BF90F3
:10122000AF909F908F900895EF92FF920F931F932E
:10123000CF93DF9377FD32C0DC011896ED91FC91DE
:101240006E177F075CF52115310541F137FF07C0A7
:10125000F90131964E0F5F1F319521953109DC015F
:101260001A96ED91FC914E175F07C4F4EA01C20F84
:10127000D31FDE011197B7FD11C057FF03C09E01B8
:1012800050E040E0AE17BF071CF09F01241B350B58
:101290007801890121E030E00E94E806DF91CF91DA
:1012A0001F910F91FF90EF900895EF92FF920F938F
:1012B0001F93CF93DF9357FD31C0DC011A96ED9158
:1012C000FC914E175F0754F52115310539F137FFB1
:1012D00007C0F90131966E0F7F1F319521953109B5
:1012E000DC011896ED91FC916E177F07BCF4EB01C1
:1012F000C20FD31FDE011197B7FD10C077FF03C0E7
:101300009E0170E060E0AE17BF071CF09F01261B36
:10131000370B780101E010E00E94E806DF91CF91E1
:101320001F910F91FF90EF9008958F929F92AF922F
:10133000BF92CF92DF92EF92FF920F931F93CF93C2
:10134000DF9347012115310509F44BC00115110543
:1013500009F447C037FF07C0F90131966E0F7F1FB0
:10136000319521953109DC011896AD90BC906A1534
:101370007B05BCF517FF07C0F80131964E0F5F1FC4
:10138000119501951109DC011A96ED91FC914E170A
:101390005F073CF56B01C20ED31EE6012197D7FD16
:1013A00020C07A01E00EF11ED7011197B7FD19C0D8
:1013B00077FF03C0960170E060E057FF03C087012C
:1013C00050E040E0CA15DB051CF09501261B370BE9
:1013D000AE17BF071CF08F01041B150B74010E9490
:1013E000E806DF91CF911F910F91FF90EF90DF9072
:1013F000CF90BF90AF909F908F900895EF92FF9203
:101400000F931F93CF93DF93EC0177FD22C0888564
:10141000998568177907ECF457FD1BC08A859B8571
:1014200048175907B4F47901E881F98102A4F3A5BA
:10143000E02D01E010E021E030E0CE010995B70198
:10144000CE01DF91CF911F910F91FF90EF900C94FF
:10145000B005DF91CF911F910F91FF90EF9008950C
:10146000CF93DF93EC010E9472068FA987FD06C01F
:10147000EB8DFC8D80819AA989238083DF91CF91A8
:1014800008950895AF92BF92CF92DF92EF92FF92AC
:101490000F931F93CF93DF93EC01E62E8A01A22EC8
:1014A0000E9472068FA987FD06C0EB8DFC8D80819E
:1014B0009AA989238083ED8DFE8D80819CA9892343
:1014C00080836E2DCE010E94F505ED8DFE8D80810D
:1014D0009BA9892B8083D12CC12CB12CCA14DB048D
:1014E000E4F48DA97801823079F488A9882361F029
:1014F000F801619171917F01CE010E94B005FFEF6B
:10150000CF1ADF0A8701EACFFFEFEF1AFF0AF801CF
:101510006491CE010E94F505F2CF8FA987FD06C028
:10152000EB8DFC8D808199A9892B8083DF91CF91F0
:101530001F910F91FF90EF90DF90CF90BF90AF90F1
:101540000895611106C060E220E050E040E00C9494
:10155000420A61E2F9CF0F931F93CF93DF931F925B
:10156000CDB7DEB78C016370DC0156966C9356974D
:10157000623009F468C0633009F46AC0613009F46C
:1015800056C088E4898380EF90E019969C938E93EF
:10159000189780E491E01B969C938E931A97C8014C
:1015A0000E947206D801D7968C91D79787FD09C003
:1015B0005B96ED91FC915C978081D2969C918923FA
:1015C0008083D8015D96ED91FC915E978081D496E1
:1015D0009C918923808366E3C8010E94F505D801A8
:1015E0005D96ED91FC915E978081D3969C91D39707
:1015F000892B8083D5968C91823061F16981C801F5
:101600000E94F505D801D7968C91D79787FD09C020
:101610005B96ED91FC915C978081D1969C91892B92
:1016200080830F90DF91CF911F910F91089588E2F1
:10163000898380E491E0F8019187808780EF90E0D2
:1016400093878287ACCF88E8898380EF90E09DCF35
:1016500088EEEECFF80180A9882381F269817A8132
:10166000C8010E94B005CECFFC0187A987FD06C046
:10167000A38DB48D9C9181A9892B8C9308952F9271
:101680003F924F925F926F927F928F929F92AF9212
:10169000BF92CF92DF92EF92FF920F931F93CF935F
:1016A000DF93CDB7DEB728970FB6F894DEBF0FBE35
:1016B000CDBF3C017E836D8358874F83690188E1EC
:1016C00093E00E94300A2F813885220F331F2F5F4D
:1016D0003F4F4D815E818F819885481B590B860154
:1016E000B30188E193E00E94140981E090E02C01AD
:1016F0002F813885421A530AC90191958195910924
:101700009C01220F331F3C832B832F80388481E080
:1017100090E09A838983F12CE12C57FC0DC08F81D6
:101720009885019798878F832B813C812E5F3F4F4F
:101730003C832B83420E531E3FEFE31AF30A898149
:101740009A8102969A838983480E591E2F81388583
:101750002E153F050CF469C04901880C991C3FEF18
:10176000831A930A86019401AD80BE808F8198858B
:10177000A81AB90AA501B3016E0D7F1D88E193E097
:101780000E9414099401A501B3016E197F0988E133
:1017900093E00E9414092F8138852215330519F131
:1017A000AA24A394B12CAE18BF088D819E81A80EE7
:1017B000B91EB301620D731D860189809A8092E083
:1017C000891A91089401A50188E193E00E94140907
:1017D000B301621973099401A50188E193E00E94A5
:1017E00014092F8038842F813885E216F3060CF413
:1017F00094CF88E193E028960FB6F894DEBF0FBE31
:10180000CDBFDF91CF911F910F91FF90EF90DF90AF
:10181000CF90BF90AF909F908F907F906F905F9090
:101820004F903F902F900C94340B2F8138852215C8
:10183000330509F0B5CFDDCF2F923F924F925F92E3
:101840006F927F928F929F92AF92BF92CF92DF92D0
:10185000EF92FF920F931F93CF93DF9300D000D0AE
:10186000CDB7DEB78C017C836B8388E193E00E9467
:10187000300A4B815C81405B5F4F2FEF3FEFB80137
:1018800088E193E00E94FE094B815C81405551093B
:101890002FEF3FEFB80188E193E00E94FE09B80105
:1018A000605B7F4F2FEF3FEF4B815C8188E193E0DE
:1018B0000E94FE09B801605571092FEF3FEF4B817F
:1018C0005C8188E193E00E94FE0981E090E09A83C8
:1018D0008983D12CC12C80E5E82EF12C90E6292EAD
:1018E00033243A9421EBA22EBB24BA949FEFC91A59
:1018F000D90A89819A8102969A838983A80EB91E92
:101900003601600E711E2FEF3FEF8B809C808E0C96
:101910009F1CA401B30188E193E00E94FE09280105
:101920004C185D082FEF3FEFA401B20188E193E06E
:101930000E94FE092FEF3FEF8B809C808E189F083E
:10194000A401B30188E193E00E94FE092FEF3FEF6D
:10195000A401B20188E193E00E94FE098B809C8083
:101960008C0C9D1C2FEF3FEFA40138016E0C7F1CE7
:10197000B30188E193E00E94FE092FEF3FEFA4013D
:1019800028014E185F08B20188E193E00E94FE0929
:101990008B809C808C189D082FEF3FEFA401B30132
:1019A00088E193E00E94FE092FEF3FEFA401B2010E
:1019B00088E193E00E94FE09CE14DF04D4F088E1B0
:1019C00093E00F900F900F900F90DF91CF911F91A8
:1019D0000F91FF90EF90DF90CF90BF90AF909F90CE
:1019E0008F907F906F905F904F903F902F900C94CE
:1019F000340BB7FC7BCF91E0E91AF10882E0280EA6
:101A0000311CA20CB31C72CF0895FC016370668B6D
:101A10008481958126813781613039F0633029F0E6
:101A2000918780873387228708953187208793871E
:101A3000828708952F923F924F925F926F927F928A
:101A40008F929F92AF92BF92CF92DF92EF92FF92CE
:101A50000F931F93CF93DF93CDB7DEB76A970FB67F
:101A6000F894DEBF0FBECDBF9A8F898F7A836983CA
:101A70004A01D22E18870F833701BC2CDC015996FE
:101A80002D913C915A972115310509F015C11896F1
:101A90008D919C911997681779070CF0D7C11A9608
:101AA0008D919C91481759070CF0D0C14C2C512CAA
:101AB000B6E0CB9E600D711D11247C876B871616D6
:101AC00017060CF0C3C1EA2DF0E0FA87E98793E02E
:101AD000EE0FFF1F9A95E1F7F88BEF87CF01840F88
:101AE000951F181619060CF0B1C1A98DBA8D58961C
:101AF0008C91811104C0BFEABD1508F4D394A98D5F
:101B0000BA8DED91FC9111970284F385E02DCD0102
:101B10000995B5E0DB9EC0011124E981FA81FC83BF
:101B2000EB83312C212C9C012A573F4F388F2F8B70
:101B30004A2D50E05E8B4D8BEF89F88DE20DF31D41
:101B400044919E828D82D12CC12C69817A81620D53
:101B5000731D7A8B698B842F90E09C8B8B8BE98D26
:101B6000FA8DA081B18140FF82C0F1E0BF126FC049
:101B7000AF126DC01C96ED91FC912F813885A401A8
:101B80004C0D5D1D69897A89898D9A8D0995EB893E
:101B9000FC89F595E7954E2F5FEFC51AD50A6D8143
:101BA0007E818D899E89680F791F7E836D8398E081
:101BB000C916D10481F6AFEF2A1A3A0AEB81FC81EB
:101BC000E40DF51DFC83EB83F5E02F16310409F0DD
:101BD000B3CF2F81388526153705B9F0A98DBA8D79
:101BE000ED91FC91B1E0BB1257C0AB1255C06981B9
:101BF0007A816B5F7F4F0088F189E02D830128E0B7
:101C000030E0A401898D9A8D0995A98DBA8DED9149
:101C1000FC9111970688F789E02DCD016A960FB6E1
:101C2000F894DEBF0FBECDBFDF91CF911F910F9112
:101C3000FF90EF90DF90CF90BF90AF909F908F90EC
:101C40007F906F905F904F903F902F9009941E96D9
:101C5000ED91FC91EF80F88409851A8592014D8100
:101C60005E816B817C81898D9A8D099590CF2F81C2
:101C700038852615370509F48ACF31E0B31207C03D
:101C8000A31205C01C96ED91FC91930178CF1E968E
:101C9000ED91FC917301E0CF6B857C85641975092A
:101CA0000684F785E02D73010F8518899201A40140
:101CB000898D9A8D0995A9CFF9013496949132971F
:101CC00045915491D91AB7E0DB9E400D511D112466
:101CD000F901259134913C8B2B8BFA01259034909E
:101CE000FA013296749031963491398B3296649021
:101CF0003196449041E04C1518F04A1508F07FC029
:101D0000662D062C000C770B7C836B83842D042CB2
:101D1000000C990B9E838D83A98DBA8DED91FC915A
:101D200011970284F385E02DCD010995512CD12C1A
:101D3000C12CEA2DF0E0FA87E9872B2D30E03C87B3
:101D40002B87A401440D511D47FC5A95588F4F8B8A
:101D500069817A81660D711D67FC7A957E876D8732
:101D60007989C71608F051CF2C2D30E04D815E8166
:101D7000420F531FA985BA854A9FC0014B9F900D02
:101D80005A9F900D1124FC01E80DF91DF88BEF8787
:101D9000852D612C4F89588D420F531F5E8B4D8BC3
:101DA000671408F050C044244394480E877041F4EF
:101DB000C1010196EB89FC89E20DF31DD4901C0151
:101DC000D7FE19C0A98DBA8DED91FC91662D70E0FA
:101DD000B1E0BB1219C0AB1217C02D853E85620F52
:101DE000731F0484F585E02D2F8138854D895E8928
:101DF000898D9A8D0995DD0C6394842DD1CF1E8237
:101E00001D821C821B8288CF4B815C81640F751FF1
:101E1000AB85BC856A9FC0016B9F900D7A9F900D2A
:101E2000112469817A81680F791F0684F785E02D76
:101E3000EF80F88409851A859D014F855889898D21
:101E40009A8D0995D8CF570CC3948ACF6A960FB64E
:101E5000F894DEBF0FBECDBFDF91CF911F910F91E0
:101E6000FF90EF90DF90CF90BF90AF909F908F90BA
:101E70007F906F905F904F903F902F9008958F923A
:101E80009F92AF92CF92EF92FF920F931F93CF93B7
:101E9000DF93EC01262F898D9A8D009709F051C0B0
:101EA0006A30D1F41D861C868D8948E0849F90019C
:101EB00011248E859F85820F931F9F878E8781E0D7
:101EC00090E0DF91CF911F910F91FF90EF90CF9015
:101ED000AF909F908F9008956D3089F3CC88AD8836
:101EE0008F898823C1F08C859D8536E0C39E800D47
:101EF000911D1124488559854817590764F44E856A
:101F00005F851D861C8638E0A39EC0011124840FC6
:101F1000951F9F878E87EA88FB88088919894E85D7
:101F20005F856C857D85CE010E941A0D2C898C857C
:101F30009D8546E0249F800D911D11249D878C87EF
:101F4000BECF6A3069F41D861C86FC013896E49188
:101F50002D898E859F85E29F800D911D1124ADCF27
:101F60006D3009F4ACCFFC0134963491631708F45A
:101F7000A6CF3296E491E61708F4A1CFFC01329681
:101F800085909490462F431B342F47E0349F800C5C
:101F9000911C1124F401329634913196E49133234B
:101FA000A9F1EE2399F1CC88F4013596E491AD883E
:101FB0004F89442301F10E2E000CFF0BE30FF11D9E
:101FC000CE9EA001CF9E500D11246C857D85460FBD
:101FD000571F68857985641775076CF44E855F8592
:101FE0001D861C86FC013896E491AE9E400D511D65
:101FF00011245F874E87EA88FB88088919894E85F6
:102000005F856C857D85CE010E941A0DF4013496A2
:10201000E4912C898C859D85E29F800D911D112472
:102020008DCF6F927F928F929F92AF92BF92CF92FD
:10203000DF92EF92FF920F931F93CF93DF93EC0108
:102040006B015A0139014801E881F9810284F38565
:10205000E02D0995E881F9810288F389E02D870157
:102060009301A501B601CE010995A501480D591DA1
:1020700041505109E881F9810288F389E02D9301EB
:10208000B601CE010995E881F9810088F189E02D3A
:102090009401A501B601CE010995C60CD71CB60165
:1020A00061507109E881F9810088F189E02D94017E
:1020B000A501CE010995E881F9810688F789E02D0F
:1020C000CE01DF91CF911F910F91FF90EF90DF90A4
:1020D000CF90BF90AF909F908F907F906F9009941A
:1020E0006F927F928F929F92AF92BF92CF92DF9228
:1020F000EF92FF920F931F93CF93DF935C01EB015D
:102100006A01490138018701DC01ED91FC916217F8
:10211000730719F5641675062CF0962D872D3A0174
:10212000C92ED82E9601261937092F5F3F4F048CF0
:10213000F58DE02DA301BE01C5010995DF91CF9179
:102140001F910F91FF90EF90DF90CF90BF90AF90D5
:102150009F908F907F906F9008954615570591F44A
:102160002617370724F0892D4B01C22FD82F9E0147
:10217000281939092F5F3F4F068CF78DE02DA601F6
:10218000B401DACF0284F385E02D0995D501ED91F4
:10219000FC910488F589E02D83019401A601BE011C
:1021A000C5010995D501ED91FC910688F789E02DCF
:1021B000C501DF91CF911F910F91FF90EF90DF90BC
:1021C000CF90BF90AF909F908F907F906F90099429
:1021D000EF92FF920F931F93DC011A960D911C91C1
:1021E0001B9718962D913C911997ED91FC9100A0A9
:1021F000F1A1E02D7B0150E040E070E060E0099546
:102200001F910F91FF90EF9008954F925F926F9200
:102210007F928F929F92AF92BF92CF92DF92EF9276
:10222000FF920F931F93CF93DF936C012B015A0101
:1022300039014801DC01ED91FC910284F385E02D28
:102240000995E201640C751CD601ED91FC91C6154F
:10225000D7055CF40088F189E02D87019401A50180
:10226000BE01C60109952196EFCF0688F789E02DBA
:10227000C601DF91CF911F910F91FF90EF90DF90FA
:10228000CF90BF90AF909F908F907F906F905F9016
:102290004F9009948F929F92AF92BF92CF92DF920C
:1022A000EF92FF920F931F93CF93DF93EC015B01AB
:1022B0004A016901E881F9810284F385E02D0995DD
:1022C00095012C0D3D1D21503109E881F9810488CB
:1022D000F589E02D78018401A401B501CE010995AD
:1022E000E881F9810688F789E02DCE01DF91CF9151
:1022F0001F910F91FF90EF90DF90CF90BF90AF9024
:102300009F908F9009948F929F92AF92BF92CF929D
:10231000DF92EF92FF920F931F93CF93DF93EC0125
:102320005B014A0169017801E881F9810284F38542
:10233000E02D0995C80CD91C860101501109E881CE
:10234000F9810488F589E02D9501A401B501CE013C
:102350000995E881F9810688F789E02DCE01DF91A2
:10236000CF911F910F91FF90EF90DF90CF90BF9092
:10237000AF909F908F900994EF92FF920F931F93CD
:10238000DC01ED91FC9100A0F1A1E02D09951F91D8
:102390000F91FF90EF9008950F931F93DC01ED9143
:1023A000FC91068CF78DE02D09951F910F910895F2
:1023B0000F931F93DC01ED91FC91048CF58DE02DC2
:1023C00009951F910F910895DC01ED91FC91008416
:1023D000F185E02D09942F923F924F925F926F9278
:1023E0007F928F929F92AF92BF92CF92DF92EF92A5
:1023F000FF920F931F93CF93DF9300D000D000D0B4
:10240000CDB7DEB73C016A013E832D83FC82EB82AF
:102410005801A41AB50AB7FE03C0B194A194B1083B
:102420008D809E80861A970A97FE03C091948194AE
:1024300091088A149B045CF0902F812F0D811E81DE
:102440009D838E839C2D8D2D6B01692F782F0C150C
:102450001D055CF09D818E817E836D83692F782FB1
:10246000902F812F8601C92ED82E1601201A310AED
:102470002B012D813E81421A530A57FE03C051940D
:1024800041945108710137FE03C03FEFE31AF30A8C
:10249000F594E7948D819E81861797075CF5A1E0FE
:1024A000B0E0BA83A983C016D1064CF1D301ED91F7
:1024B000FC910484F585E02D2B813C81A8016D8180
:1024C0007E818A149B041CF04D815E81B801C3019A
:1024D0000995E418F508F7FE0AC02D813E8189812F
:1024E0009A81280F391F3E832D83E20CF31C0F5F66
:1024F0001F4FD9CF2FEF3FEF3A832983D4CF2696B2
:102500000FB6F894DEBF0FBECDBFDF91CF911F9104
:102510000F91FF90EF90DF90CF90BF90AF909F9082
:102520008F907F906F905F904F903F902F90089585
:10253000089590E080E008950E9420289B01AC015E
:102540002852310941095109A1E0BFEF0E9401273A
:1025500024E130E040E050E00E94D426CA01B901F5
:1025600061507F4F8F4F9F4F0E94582808950E94BF
:1025700020289B01AC01ACE3B0E00E94F32620E0F0
:1025800034E040E050E00E94D426CA01B9010E9424
:10259000582808950E9420289B01AC01A9E0BBE3C4
:1025A0000E94F32620E034E040E050E00E94D42670
:1025B000CA01B9010E9458280895CF93DF93EC0116
:1025C00060E08E810E94890461E08E810E9489040E
:1025D00060E08E810E9489048BE891E00197F1F719
:1025E000DF91CF910895CF92DF92EF92FF920F93F8
:1025F0001F93CF93DF936C017C0187E0E80EF11C01
:10260000D0E0C0E0062F10E0B8010C2E02C0759596
:1026100067950A94E2F76170F70181917F010E944A
:1026200089042196C430D10579F7C601DF91CF9195
:102630001F910F91FF90EF90DF90CF900C94DD12DF
:10264000CF92DF92EF92FF920F931F93CF93DF937E
:10265000EC01F62E642F8C810E9489048D818F3FBE
:1026600019F060E00E9489040F2D10E08F8584FF2F
:1026700025C06E0187E0C80ED11CF12CE12CB801F9
:102680000E2C02C0759567950A94E2F76170F60109
:1026900081916F010E948904FFEFEF1AFF0A88E021
:1026A000E816F10461F7CE01DF91CF911F910F91F0
:1026B000FF90EF90DF90CF900C94DD12B80184E092
:1026C000759567958A95E1F7CE010E94F3126F2DFB
:1026D000CE01DF91CF911F910F91FF90EF90DF908E
:1026E000CF900C94F31240E0682F80E093E00C94BC
:1026F000201381E00E9473138BE39FE10197F1F7B0
:102700000895CF93DF93813029F090910F03986063
:1027100090930F03809313031092140380E480932B
:10272000150380E18093160380E58093170361E031
:10273000809104030E94B704809105038F3F19F034
:1027400061E00E94B70461E0809106030E94B70433
:10275000C0E0D3E09E012050334080910F0384FD00
:102760000BC084E090E021962817390744F461E01B
:102770008E810E94B704EECF88E090E0F4CF8BE327
:102780009DE00197F1F760E0809104030E948904C5
:1027900060E0809106030E948904809105038F3FC9
:1027A00019F060E00E94890480910F0384FD34C019
:1027B00063E080E093E00E94F312CBE4D6E4CE0124
:1027C0000197F1F763E080E093E00E94F312219714
:1027D000F1F763E080E093E00E94F31283E592E07A
:1027E0000197F1F762E080E093E00E94F31280919C
:1027F0000F0380620E94731384E0809310038CE0C7
:102800000E9473130E94791382E08093110386E083
:10281000DF91CF910C94731380620E9473138BE449
:1028200096E40197F1F780910F0380620E94731381
:1028300083E592E00197F1F780910F0380620E9497
:102840007313D5CF90911303691710F06FEF690FD1
:10285000E62FF0E0E050FD4F9489890F80680C94DA
:10286000731341E00E94201381E090E008950E94DC
:10287000712AFB0101900020E9F73197AF01461B57
:10288000570BDC01ED91FC910280F381E02D09945E
:102890008F929F92AF92BF920F931F93CF93DF932C
:1028A000CDB7DEB7A1970FB6F894DEBF0FBECDBF90
:1028B00019A2423008F44AE08E010F5D1F4F842EAA
:1028C000912CB12CA12CA50194010E940627E62F82
:1028D000B901CA01EA3004F5E05DD801EE938D013B
:1028E000232B242B252B79F790E080E0109729F0FB
:1028F000BD0180E093E00E943914A1960FB6F894D0
:10290000DEBF0FBECDBFDF91CF911F910F91BF9062
:10291000AF909F908F900895E95CDFCFBC0180E07D
:1029200093E00C943914CF93DF93BC0188E193E0DA
:102930000E943914EC0166E571E088E193E00E94A1
:1029400039148C0F9D1FDF91CF9108954F925F92A4
:102950006F927F928F929F92AF92BF92CF92DF92AF
:10296000EF92FF92CF93DF936B017C01AC019B014F
:102970000E94072A69E571E0811126C046015701CE
:10298000E894B7F82FEF3FEF4FE75FE7C501B401D9
:102990000E94072A81110CC02FEF3FEF4FE75FE73E
:1029A000C501B4010E94A4276DE571E0181664F01A
:1029B0002FEF3FEF4FE75FE4C701B6010E944729C1
:1029C0001816A4F461E671E080E093E0DF91CF9106
:1029D000FF90EF90DF90CF90BF90AF909F908F903F
:1029E0007F906F905F904F900C9439142FEF3FEFD2
:1029F0004FE75FECC701B6010E94A42787FDE2CF35
:102A000020E030E0A901C701B6010E94A427D0E070
:102A1000C0E087FF0CC041E06DE280E093E00E94DF
:102A20002013F7FAF094F7F8F094C1E0D0E02AE030
:102A300037ED43EA5BE3C701B6010E9438274B013B
:102A40005C010E9427286B017C010E9456289B0193
:102A5000AC01C501B4010E9437274B015C014AE07B
:102A6000C701B6010E9448147C01EC0EFD1E41E036
:102A70006EE280E093E00E9420138FEFE81AF80ADC
:102A800020E030E040E251E4C501B4010E944C294D
:102A90002B013C010E9427284B01B12CA12C4AE0BC
:102AA000C501B4010E944814E80EF91EC501B40125
:102AB0000E9456289B01AC01C301B2010E94372736
:102AC00020E030E040E251E40E944C290E94272897
:102AD00090E080E04AE00E9448148E0D9F1DDF9137
:102AE000CF91FF90EF90DF90CF90BF90AF909F90ED
:102AF0008F907F906F905F904F9008951F93CF932A
:102B0000DF9385ED8093BC008091C0019091C1015D
:102B1000A091C201B091C3010796A11DB11D23E090
:102B2000B695A795979587952A95D1F72091BC00E2
:102B300024FD03C01092080252C04091C001509180
:102B4000C1016091C2017091C301452B462B472BF7
:102B500069F30097A105B10541F025E32A95F1F746
:102B600000000197A109B109E1CF8091BF01C1E047
:102B7000C093BE01882399F1D091B8001091BA009A
:102B80008091BC008A7B8093BC0060E082E10E945F
:102B9000890460E083E10E94890410920802C093D6
:102BA0000A021092090261E082E10E94890461E058
:102BB00083E10E9489048091B9008E7F8093B900DF
:102BC0008091B9008D7F8093B90088E48093B8002C
:102BD00085E48093BC001093BA00D093B800DF91D5
:102BE000CF911F910895CF92DF92EF92FF920F93B2
:102BF0001F93CF93DF93EC016A017B01C114D104D1
:102C0000E104F10431F4C12C42E1D42E4AE7E42E70
:102C1000F12C8FA987FD07C061E00E94B70461E035
:102C20008FA90E94890461E088AD0E94B70461E029
:102C300088AD0E9489048DA98111A3C040E052E1B2
:102C40006AE770E0C416D506E606F70640F4769506
:102C50006795579547958F5F8630A1F787E0982F46
:102C6000906A969599A3809581708AA31BA21CA255
:102C70001DA21EA21FB7F8948091BC01811127C02C
:102C8000E5E4F6E08491E7E2F6E09491E82FF0E0E5
:102C9000EE0FFF1FEB50FA4FA591B491EC91E92391
:102CA00021F461E08AE00E94890461E08AE00E94E8
:102CB000B7048CB580618CBD8CB580648CBD61E03F
:102CC0008DE00E94B70461E08BE00E94B704809120
:102CD000BC018F5F8093BC011FBF8EA987FD21C0FF
:102CE00061E00E94B70461E08EA90E94890464E655
:102CF00070E080E090E00E941F0560E08EA90E94D5
:102D0000890464E670E080E090E00E941F0561E0C5
:102D10008EA90E94890468EC70E080E090E00E9437
:102D20001F058EA987FF0DC020E050E040E061E064
:102D3000CE010E94420A66E970E080E090E00E94C5
:102D40001F0506E815E0C8010196F80164916623A5
:102D500009F463C00E5F1F4FFC01F490EF2CE89460
:102D6000E7F82E2DA801CE010E94420A0E0D111D7A
:102D7000F7FEE9CF66E970E080E090E00E941F0571
:102D8000E2CF0BE316E0F12C8130B9F461E08AA5C3
:102D90000E94B70460E08AA50E94890461E08CA5C6
:102DA0000E94B70460E08CA50E9489048BA587FD72
:102DB00094CF60E00E94B70490CFF8018491E82F8F
:102DC000F0E0EE0FFF1FEF5CF94F859194912F8D8E
:102DD00038A12817390741F461E08F2D0E94B7040C
:102DE00060E08F2D0E948904F3940F5F1F4FF4E180
:102DF000FF12E3CF61E08EA50E94B70461E08EA5CB
:102E00000E9489048FA587FD68CF61E00E94B70406
:102E100061E08FA50E94890460CF80EF90E09987E0
:102E2000888780E491E09B878A87DF91CF911F910B
:102E30000F91FF90EF90DF90CF90089528E939EF40
:102E40004EE85CE30E944C290C94A92728E939EF4D
:102E50004EE85CE30E944C290C94B9291F920F9212
:102E60000FB60F9211242F933F934F935F936F935D
:102E70007F938F939F93AF93BF93EF93FF9383E6DB
:102E800092E00E94D103FF91EF91BF91AF919F918A
:102E90008F917F916F915F914F913F912F910F9003
:102EA0000FBE0F901F9018951F920F920FB60F92A2
:102EB00011242F938F939F93EF93FF93E0917302CD
:102EC000F09174028081E0917902F0917A0282FDA2
:102ED0001BC0908180917C028F5F8F7320917D0257
:102EE000821741F0E0917C02F0E0ED59FD4F958FA3
:102EF00080937C02FF91EF919F918F912F910F9082
:102F00000FBE0F901F9018958081F4CF1F920F92E3
:102F10000FB60F9211242F933F938F939F93AF93EC
:102F2000BF9380912F0290913002A0913102B09115
:102F3000320230912E0223E0230F2D3758F50196EF
:102F4000A11DB11D20932E0280932F029093300279
:102F5000A0933102B09332028091330290913402F7
:102F6000A0913502B09136020196A11DB11D80934A
:102F7000330290933402A0933502B0933602BF918E
:102F8000AF919F918F913F912F910F900FBE0F9016
:102F90001F90189526E8230F0296A11DB11DD2CFD0
:102FA0001F920F920FB60F9211242F933F934F93BE
:102FB0005F936F937F938F939F93AF93BF93EF93A1
:102FC000FF938091B900887F803609F44AC0F0F5FC
:102FD000883209F4A5C018F5803109F499C0B8F415
:102FE000882309F4F5C0883009F492C0FF91EF916D
:102FF000BF91AF919F918F917F916F915F914F9111
:103000003F912F910F900FBE0F901F901895883110
:1030100009F486C0803251F78093070214C08034CF
:1030200009F49BC040F48033B9F38833F9F68093F8
:10303000070285ECAEC0803509F483C0883509F4F9
:1030400094C0883499F60E947E15D0CF883909F44F
:103050008AC038F5883729F050F4883611F0803767
:1030600029F683E0809308021092060255C0883842
:1030700009F479C0803919F0803809F0B7CF809110
:103080000602803208F06FC0E091060281E08E0FE8
:10309000809306028091BB00F0E0EA51FE4F8083EE
:1030A0003BC0803B39F0D0F4803A09F477C0883ACD
:1030B00009F09CCF84E0809308021092E501109201
:1030C000E401F0E0E0E009958091E40181110FC096
:1030D00081E08093E4011092C40109C0803C09F4AE
:1030E000A8CF883C09F4A5CF883B09F07FCFE091B9
:1030F000E50181E08E0F8093E501F0E0EC53FE4F97
:1031000080818093BB009091E5018091E40129C00A
:1031100080912D028093BB0085EC8093BC0066CF2C
:1031200090912C0280912B02981758F5E0912C0277
:1031300081E08E0F80932C02F0E0E55FFD4F8081EF
:10314000E9CFE0912C0281E08E0F80932C028091D8
:10315000BB00F0E0E55FFD4F808390912C028091F1
:103160002B029817C8F285E8D8CFE0912C0281E0B5
:103170008E0F80932C028091BB00F0E0E55FFD4F45
:10318000808380910A0281115ECF81E080930902E1
:1031900084EA8093BC001092080228CF85EC8093CB
:1031A000BC001092080280910602803230F4E09157
:1031B0000602F0E0EA51FE4F10826091060270E0D4
:1031C00086EE91E0F0E0E0E00995109206020ECF65
:1031D0001092070238CFCF92DF92EF92FF920F93B7
:1031E0001F93E82FF92F05C001501109210931095A
:1031F00061F1908196239417B9F305C0015011092C
:103200002109310911F1908196239413F7CFC12C34
:10321000D12CE12CF12C0AC08FEFC81AD80AE80A89
:10322000F80A0C151D052E053F0579F080818623CF
:10323000841791F36C2D7D2D8E2D9F2D1F910F9155
:10324000FF90EF90DF90CF90089560E070E080E015
:1032500090E01F910F91FF90EF90DF90CF90089535
:10326000E3E6F2E01382128288EE93E0A0E0B0E0A1
:1032700084839583A683B7838CE091E091838083D8
:1032800085EC90E09587848784EC90E0978786872B
:1032900080EC90E0918B808B81EC90E0938B828B23
:1032A00082EC90E0958B848B86EC90E0978B868BFC
:1032B000118E128E138E148EA8E1B3E013961C9219
:1032C0001E92129720EF30E015963C932E931497A0
:1032D00080E491E017969C938E93169719963C93F1
:1032E0002E9318971B969C938E931A9756961C9222
:1032F00056971D961C921E921C971F961C921E920A
:103300001E9781E055968C93559754968C935497BD
:103310002FEF3FEF53963C932E93529751963C9349
:103320002E93509757968C93579758961C92589770
:103330005A961C921E925997D5968C93D59787E0F2
:10334000D6968C93D69786E0D7968C93D79784E0C1
:10335000D8968C93D897DA961C921E92D997DC96C1
:103360001C921E92DB97DD961C92DD97DE961C92D6
:10337000DE9710925703109258031092590310923F
:103380005A0385E09C968C939C9782E09A968C9346
:103390009A9785E19B968C939B97EFE3F6E0E491F7
:1033A000F0E0EE0FFF1FEF5CF94F859194915E9670
:1033B0009C938E935D97E1E2F6E09491D3969C9373
:1033C000D397E0E4F6E0E491F0E0EE0FFF1FEF5C4E
:1033D000F94F2591349194963C932E939397E2E282
:1033E000F6E0849197968C939797EDE3F6E0E4915D
:1033F000F0E0EE0FFF1FEF5CF94F259134919296AC
:103400003C932E939197EFE1F6E0249195962C93BF
:103410009597E1E4F6E0E491F0E0EE0FFF1FEF5C3A
:10342000F94F459154915C965C934E935B97E3E220
:10343000F6E03491D1963C93D197E0E5F6E0E49143
:10344000F0E0EE0FFF1FED5EF94F4591549190961D
:103450005C934E935F97E2E3F6E0E4919996EC93E8
:103460009997E32FE095D296EC93D2979095D496C6
:103470009C93D497809598968C9398972095969640
:103480002C9396978AE291E08D939C93E0E0F3E091
:10349000138212828EE191E0918380838DE0848398
:1034A0008FEF85838CE086838BE087838AE080873B
:1034B00089E0818788E082871386148615861686C0
:1034C000178681E00C948113CF93DF93CDB7DEB7DD
:1034D0006A970FB6F894DEBF0FBECDBF789484B55F
:1034E000826084BD84B5816084BD85B5826085BD00
:1034F00085B5816085BD80916E00816080936E008E
:10350000109281008091810082608093810080917F
:103510008100816080938100809180008160809330
:1035200080008091B10084608093B1008091B000F0
:1035300081608093B00080917A00846080937A00EB
:1035400080917A00826080937A0080917A00816015
:1035500080937A0080917A00806880937A0010923C
:10356000C10040E050E0BA0188E193E00E94F31509
:1035700061E088E193E00E94AB0A70E060E088E1DE
:1035800093E00E94E8108FEF9FEF90932B038093BE
:103590002A03909329038093280382E080932C03CD
:1035A00080932D0385E691E00E94931463E670E01A
:1035B00080E590E00E941C0C30E020E040E550E007
:1035C0006DE870E080E590E00E943F0B63E670E0FC
:1035D00080EF90E00E941C0C30E020E040E550E0DD
:1035E0006DE870E080EF90E00E943F0B68EC70E0C7
:1035F00080EA90E00E941C0C30E020E040E550E0C2
:1036000061EF70E080EA90E00E943F0B2DE230E035
:103610003A8F298F80E090E0A0E7B1EC89839A830C
:10362000AB83BC8369817A818B819C810E941E1748
:103630006B017C0120E030E044E852E40E944C2918
:1036400069877A878B879C8720E030E046E952E4DF
:10365000C701B6010E944C294B015C0169817A8146
:103660008B819C810E9426172B013C0120E030E0D9
:1036700044E852E40E944C296D877E878F87988B9F
:103680009B01AC0160E070E086EC92E40E94372779
:103690000E9420286D837E838F83988720E030E00E
:1036A00046E952E4C301B2010E944C29698B7A8B2E
:1036B0008B8B9C8B9B01AC0160E070E086EC92E40C
:1036C0000E9437270E9420286D8B7E8B8F8B988FCE
:1036D000A501940160E070E080EA92E40E9437273F
:1036E0000E9420282B0129853A854B855C8560E066
:1036F00070E080EA92E40E9437270E94202840EE82
:10370000E42E47E0F42E0D891E8992014D815E81E1
:1037100088E193E00E947010A501940160E070E0E0
:1037200080E793E40E9437270E9420282B012985F7
:103730003A854B855C8560E070E080E793E40E9409
:1037400037270E9420280D891E8992014D815E81B4
:1037500088E193E00E94701029893A894B895C893D
:1037600060E070E088E493E40E9437270E942028FC
:103770006D837E838F839887A501940160E070E05C
:1037800080E293E40E9437270E9420282B012D8598
:103790003E854F85588960E070E088E493E40E949C
:1037A00037270E9420284B0129853A854B855C8567
:1037B00060E070E080E293E40E9437270E942028B6
:1037C0000D811E819201A40188E193E00E94701096
:1037D00020E030E040E450E469817A818B819C8173
:1037E0000E94382769837A838B839C83A98DBA8D45
:1037F0001197BA8FA98FAB2B09F014CFE5E1F0E058
:10380000FA8FE98F20E030E040EF52E429833A83D9
:103810004B835C8369817A818B819C810E941E1716
:103820006B017C0120E030E044E852E40E944C2926
:1038300069877A878B879C8720E030E046E952E4ED
:10384000C701B6010E944C294B015C0169817A8154
:103850008B819C810E9426172B013C0120E030E0E7
:1038600044E852E40E944C296D877E878F87988BAD
:103870009B01AC0160E070E086EC92E40E94372787
:103880000E9420286D837E838F83988720E030E01C
:1038900046E952E4C301B2010E944C29698B7A8B3C
:1038A0008B8B9C8B9B01AC0160E070E086EC92E41A
:1038B0000E9437270E9420286D8B7E8B8F8B988FDC
:1038C000A501940160E070E080EA92E40E9437274D
:1038D0000E9420282B0129853A854B855C8560E074
:1038E00070E080EA92E40E9437270E94202830EEA0
:1038F000E32EFF24FA940D891E8992014D815E8189
:1039000088E193E00E947010A501940160E070E0EE
:1039100080E793E40E9437270E9420282B01298505
:103920003A854B855C8560E070E080E793E40E9417
:1039300037270E9420280D891E8992014D815E81C2
:1039400088E193E00E94701029893A894B895C894B
:1039500060E070E088E493E40E9437270E9420280A
:103960006D837E838F839887A501940160E070E06A
:1039700080E293E40E9437270E9420282B012D85A6
:103980003E854F85588960E070E088E493E40E94AA
:1039900037270E9420284B0129853A854B855C8575
:1039A00060E070E080E293E40E9437270E942028C4
:1039B0000D811E819201A40188E193E00E947010A4
:1039C00020E030E040E450E469817A818B819C8181
:1039D0000E94382769837A838B839C83498D5A8D13
:1039E000415051095A8F498F452B09F013CF85E07B
:1039F00090E09A8F898F20E030EC44E353E42983F0
:103A00003A834B835C8369817A818B819C810E949C
:103A10001E176B017C0120E030E044E852E40E9474
:103A20004C2969877A878B879C8720E030E046E9BC
:103A300052E4C701B6010E944C294B015C01698127
:103A40007A818B819C810E9426172B013C0120E00A
:103A500030E044E852E40E944C296D877E878F87CE
:103A6000988B9B01AC0160E070E086EC92E40E94D0
:103A700037270E9420286D837E838F83988720E0DC
:103A800030E046E952E4C301B2010E944C29698B3F
:103A90007A8B8B8B9C8B9B01AC0160E070E086EC99
:103AA00092E40E9437270E9420286D8B7E8B8F8B9B
:103AB000988FA501940160E070E080EA92E40E9492
:103AC00037270E9420282B0129853A854B855C8564
:103AD00060E070E080EA92E40E9437270E9420288C
:103AE000E12C28EFF22E0D891E8992014D815E8115
:103AF00088E193E00E947010A501940160E070E0FD
:103B000080E793E40E9437270E9420282B01298513
:103B10003A854B855C8560E070E080E793E40E9425
:103B200037270E9420280D891E8992014D815E81D0
:103B300088E193E00E94701029893A894B895C8959
:103B400060E070E088E493E40E9437270E94202818
:103B50006D837E838F839887A501940160E070E078
:103B600080E293E40E9437270E9420282B012D85B4
:103B70003E854F85588960E070E088E493E40E94B8
:103B800037270E9420284B0129853A854B855C8583
:103B900060E070E080E293E40E9437270E942028D2
:103BA0000D811E819201A40188E193E00E947010B2
:103BB00020E030E040E450E469817A818B819C818F
:103BC0000E94382769837A838B839C83498D5A8D21
:103BD000415051095A8F498F452B09F014CF89E084
:103BE00090E09A8F898F20E030E040E751EC298304
:103BF0003A834B835C8369817A818B819C810E94AB
:103C00001E176B017C0120E030E040E752E40E9487
:103C10004C2969877A878B879C8720E030E046E9CA
:103C200052E4C701B6010E944C294B015C01698135
:103C30007A818B819C810E9426172B013C0120E018
:103C400030E040E752E40E944C296D877E878F87E1
:103C5000988B9B01AC0160E070E086EC92E40E94DE
:103C600037270E9420286D837E838F83988720E0EA
:103C700030E046E952E4C301B2010E944C29698B4D
:103C80007A8B8B8B9C8B9B01AC0160E070E086ECA7
:103C900092E40E9437270E9420286D8B7E8B8F8BA9
:103CA000988FA501940160E070E080EA92E40E94A0
:103CB00037270E9420282B0129853A854B855C8572
:103CC00060E070E080EA92E40E9437270E9420289A
:103CD00090EEE92E97E0F92E0D891E8992014D8113
:103CE0005E8188E193E00E947010A501940160E07C
:103CF00070E080E793E40E9437270E9420282B0180
:103D000029853A854B855C8560E070E080E793E427
:103D10000E9437270E9420280D891E8992014D811B
:103D20005E8188E193E00E94701029893A894B896D
:103D30005C8960E070E088E493E40E9437270E9489
:103D400020286D837E838F839887A501940160E08E
:103D500070E080E293E40E9437270E9420282B0124
:103D60002D853E854F85588960E070E088E493E4B6
:103D70000E9437270E9420284B0129853A854B85D0
:103D80005C8560E070E080E293E40E9437270E9447
:103D900020280D811E819201A40188E193E00E94F8
:103DA000701020E030E040E751E469817A818B8136
:103DB0009C810E94382769837A838B839C83498DF9
:103DC0005A8D415051095A8F498F452B09F013CF15
:103DD00085E090E09A8F898F20E030E040EF52E458
:103DE00029833A834B835C8369817A818B819C81AF
:103DF0000E941E176B017C0120E030E040E752E496
:103E00000E944C2969877A878B879C8720E030E065
:103E100046E952E4C701B6010E944C294B015C01FE
:103E200069817A818B819C810E9426172B013C013C
:103E300020E030E040E752E40E944C296D877E8705
:103E40008F87988B9B01AC0160E070E086EC92E478
:103E50000E9437270E9420286D837E838F83988756
:103E600020E030E046E952E4C301B2010E944C294F
:103E7000698B7A8B8B8B9C8B9B01AC0160E070E033
:103E800086EC92E40E9437270E9420286D8B7E8B5F
:103E90008F8B988FA501940160E070E080EA92E436
:103EA0000E9437270E9420282B0129853A854B85BF
:103EB0005C8560E070E080EA92E40E9437270E940F
:103EC000202880EEE82EFF24FA940D891E899201A5
:103ED0004D815E8188E193E00E947010A5019401FC
:103EE00060E070E080E793E40E9437270E9420287A
:103EF0002B0129853A854B855C8560E070E080E781
:103F000093E40E9437270E9420280D891E89920180
:103F10004D815E8188E193E00E94701029893A8981
:103F20004B895C8960E070E088E493E40E94372765
:103F30000E9420286D837E838F839887A50194013A
:103F400060E070E080E293E40E9437270E9420281E
:103F50002B012D853E854F85588960E070E088E40F
:103F600093E40E9437270E9420284B0129853A8537
:103F70004B855C8560E070E080E293E40E94372727
:103F80000E9420280D811E819201A40188E193E006
:103F90000E94701020E030E040E751E469817A81AE
:103FA0008B819C810E94382769837A838B839C83D1
:103FB000498D5A8D415051095A8F498F452B09F02F
:103FC00013CF82E090E09A8F898F20E030EC44E3B9
:103FD00053E429833A834B835C8369817A818B81A3
:103FE0009C810E941E176B017C0120E030E040E7BD
:103FF00052E40E944C2969877A878B879C8720E04E
:1040000030E046E952E4C701B6010E944C294B0159
:104010005C0169817A818B819C810E9426172B012A
:104020003C0120E030E040E752E40E944C296D87DB
:104030007E878F87988B9B01AC0160E070E086ECF7
:1040400092E40E9437270E9420286D837E838F830D
:10405000988720E030E046E952E4C301B2010E94B3
:104060004C29698B7A8B8B8B9C8B9B01AC0160E01C
:1040700070E086EC92E40E9437270E9420286D8B26
:104080007E8B8F8B988FA501940160E070E080EAB1
:1040900092E40E9437270E9420282B0129853A8527
:1040A0004B855C8560E070E080EA92E40E943727EF
:1040B0000E942028E12C08EFF02E0D891E89920124
:1040C0004D815E8188E193E00E947010A50194010A
:1040D00060E070E080E793E40E9437270E94202888
:1040E0002B0129853A854B855C8560E070E080E78F
:1040F00093E40E9437270E9420280D891E8992018F
:104100004D815E8188E193E00E94701029893A898F
:104110004B895C8960E070E088E493E40E94372773
:104120000E9420286D837E838F839887A501940148
:1041300060E070E080E293E40E9437270E9420282C
:104140002B012D853E854F85588960E070E088E41D
:1041500093E40E9437270E9420284B0129853A8545
:104160004B855C8560E070E080E293E40E94372735
:104170000E9420280D811E819201A40188E193E014
:104180000E94701020E030E040E751E469817A81BC
:104190008B819C810E94382769837A838B839C83DF
:1041A000898D9A8D019709F078C280E098EF9093FD
:1041B0002B0380932A03909329038093280386E49A
:1041C00090E090932503809324030DE610E0109374
:1041D00027030093260391E090932C0390932D03E3
:1041E00080E891E00E94931480EE9FEF90932B0360
:1041F00080932A03909329038093280381EE90E013
:1042000090932503809324031093270300932603A0
:10421000A1E0A0932C03A0932D0385E891E00E94D8
:1042200093148FEF90E090932503809324038AE604
:1042300090E0909327038093260380EA91E00E9408
:10424000931480EE97E090932B0380932A0390932E
:1042500029038093280381E990E0909325038093BC
:10426000240382ED90E09093270380932603B1E02E
:10427000B0932C03B0932D0385E891E00E94931432
:1042800020E038EF43E050E063E670E080E590E046
:104290000E943F0B20EE3FEF43E050E063E670E00A
:1042A00080EF90E00E943F0B20EE37E043E050E0CB
:1042B00068EC70E080EA90E00E943F0B84E00E948E
:1042C000811388E40E947313E0E0F1E0FA83E9834C
:1042D00008E011E0A981BA816D91BA83A98380E0D9
:1042E00093E00E943114E981FA810E171F0791F7BC
:1042F0000E94791361E082E00E9422148BE891E031
:104300000E948E1462E082E00E94221486E991E00D
:104310000E948E1468EE73E080E090E00E941F051A
:10432000E0917302F091740282E08083E0916F0269
:10433000F09170021082E0917102F091720283E3B9
:10434000808310927B02E0917702F091780286E000
:104350008083E0917502F091760280818061808394
:10436000E0917502F0917602808188608083E0910F
:104370007502F0917602808180688083E0917502F9
:10438000F091760280818F7D808360E08EE00E94D4
:10439000B70460E08FE00E94B70460E080E10E9413
:1043A000B70460E081E10E94B70461E083E00E940D
:1043B000B7041BE4212E16E0312EEBE2F6E0649107
:1043C000E9E4F6E08491E82FF0E0EE0FFF1FED5EE8
:1043D000F94F8591949100E814E82EE130E0462FE2
:1043E0000E94EB18611571058105910509F45AC108
:1043F0006F5F7F4F8F4F9F4F9F70611571058105D4
:10440000910509F44FC10E94562824EA33E946E594
:104410005FE40E94AE279B01AC0164E07AEE8DE47C
:104420009BE30E94AE274B015C0180925F02909259
:104430006002A0926102B0926202C0905B02D090D2
:104440005C02E0905D02F0905E02A7019601C5015A
:10445000B4010E9437272B013C010E94FA042091ED
:104460005702309158024091590250915A022983C3
:104470003A834B835C83621B730B840B950B0E9406
:10448000562824EA33E946E55FE40E94AE279B0103
:10449000AC01C301B2010E94AE279B01AC010E9496
:1044A0004C290E94C7292B013C0140925302509293
:1044B00054026092550270925602A5019401C70100
:1044C000B6010E9438276B017C010E94FA04298101
:1044D0003A814B815C81621B730B840B950B0E94AC
:1044E000562824EA33E946E55FE40E94AE27A70197
:1044F00096010E944C2920E030E040E05FE30E94FA
:104500004C299B01AC0160914F0270915002809147
:104510005102909152020E94382760934F0270938B
:104520005002809351029093520280925B029092CB
:104530005C02A0925D02B0925E020E94FA04609357
:104540005702709358028093590290935A02EFE0F9
:10455000F6E08491EDE2F6E0E490F101F490FF20C2
:1045600009F408C481110E946004EF2DF0E0EE0F01
:10457000FF1FED5EF94FA591B4918C91E82209F4EB
:10458000F9C38FE00E94E804BC01990F880B990BD6
:104590000E9458280E94CA129B01AC01C301B201BB
:1045A0000E94472918160CF4E5C38FE00E94E80426
:1045B000BC01990F880B990B0E9458280E94CA12BF
:1045C00020E030E0A9010E94A42718160CF0D2C305
:1045D00020E030E842E853E4C501B4010E944729D5
:1045E00018160CF4C7C381E10E94E804BC01990FBE
:1045F000880B990B0E9458280E94B71220E030E0E7
:1046000040E752E40E94472918160CF4B3C381E135
:104610000E94E804BC01990F880B990B0E9458284E
:104620000E94B7120E949C1220E030E0A9010E9473
:10463000A42710E000E087FD27C081E10E94E80484
:10464000BC01990F880B990B0E9458280E94B71241
:104650000E949C1220E030E04FE753E40E9447297B
:104660000FEF10E0181684F081E10E94E804BC010D
:10467000990F880B990B0E9458280E94B7120E942C
:104680009C120E9420288B0161E083E00E94B70405
:104690000115110559F460E00DC041E050E05A8F5A
:1046A000498F9BCC812C912C5401BFCE0F3F11051B
:1046B00029F461E083E00E94890426C0E2E0F6E08C
:1046C0008491833009F43CC348F48130C9F08230CE
:1046D00009F431C30038110564F7DDCF873009F4E0
:1046E00039C3883009F43EC38430A1F7809180003B
:1046F00080628093800010938B0000938A0004C036
:1047000084B5806884BD07BD81E10E94E804BC01D6
:10471000990F880B990B0E9458280E94B7120E948B
:1047200020289B01AC01A3EDB0E00E94F3262CE30E
:1047300030E040E050E00E94D426CA01B9016F5039
:104740007109810991090E9458286B017C0120E0C0
:1047500030E040E751EC0E94A42787FD10C320E021
:1047600030E044E453E4C701B6010E94472918161B
:1047700034F4C12CD12CE4E4EE2EE3E4FE2EC092FE
:104780004B02D0924C02E0924D02F0924E028FE02A
:104790000E94E804BC01990F880B990B0E945828CD
:1047A0000E94CA120E9420289B01AC01A3EDB0E038
:1047B0000E94F32629E03BE340E050E00E94D4262B
:1047C000CA01B9016F507109810991090E945828E5
:1047D0006B017C0120E030E040E751EC0E94A4270F
:1047E00087FDD4C220E030E044E453E4C701B601C1
:1047F0000E944729181634F4C12CD12C64E4E62E0B
:1048000063E4F62EC0924702D0924802E092490239
:10481000F0924A0260915F027091600280916102A1
:10482000909162020E9420289B01AC01A3ECB0E0B1
:104830000E94F32625E031E040E050E00E94D426BB
:10484000CA01B9016F507109810991090E94582864
:104850006B017C0120E030E040E751EC0E94A4278E
:1048600087FD9BC220E030E044E453E4C701B60179
:104870000E944729181634F4C12CD12C44E4E42EAC
:1048800043E4F42EC0924302D0924402E0924502E7
:10489000F0924602C0903F02D0904002E090410268
:1048A000F0904202C701B6010E941E174B015C0145
:1048B000C701B6010E94261720E030E044E352E42D
:1048C0000E944C299B01AC0160E070E086EC92E410
:1048D0000E9437270E9420282B0120E030E044E38B
:1048E00052E4C501B4010E944C299B01AC0160E077
:1048F00070E080EA92E40E9437270E942028F12C81
:10490000E12C82019B0143E650E060E570E088E124
:1049100093E00E947010C0903B02D0903C02E09067
:104920003D02F0903E02C701B6010E941E174B01E6
:104930005C01C701B6010E94261720E030E044E385
:1049400052E40E944C299B01AC0160E070E086ECCF
:1049500092E40E9437270E9420282B0120E030E0BB
:1049600044E352E4C501B4010E944C299B01AC010F
:1049700060E070E080E793E40E9437270E942028DF
:10498000F12CE12C82019B0143E650E060EF70E0E6
:1049900088E193E00E947010C0903702D0903802F6
:1049A000E0903902F0903A02C701B6010E941E174A
:1049B0004B015C01C701B6010E94261720E030E0E0
:1049C00044E352E40E944C299B01AC0160E070E09A
:1049D00088E493E40E9437270E9420282B0120E0DE
:1049E00030E044E352E4C501B4010E944C299B012C
:1049F000AC0160E070E080E293E40E9437270E94FF
:104A00002028F12CE12C82019B0148EC50E060EA67
:104A100070E088E193E00E94701020E038EF43E0FE
:104A200050E063E670E080E590E00E943F0B20EEEE
:104A30003FEF43E050E063E670E080EF90E00E94DB
:104A40003F0B20EE37E043E050E068EC70E080EA96
:104A500090E00E943F0BC0904B02D0904C02E0903F
:104A60004D02F0904E02C701B6010E941E174B0185
:104A70005C01C701B6010E94261720E030E044E344
:104A800052E40E944C299B01AC0160E070E086EC8E
:104A900092E40E9437270E9420282B0120E030E07A
:104AA00044E352E4C501B4010E944C299B01AC01CE
:104AB00060E070E080EA92E40E9437270E9420289C
:104AC000E12C88EFF82E82019B0143E650E060E57F
:104AD00070E088E193E00E947010C0904702D0908F
:104AE0004802E0904902F0904A02C701B6010E94D4
:104AF0001E174B015C01C701B6010E94261720E07A
:104B000030E044E352E40E944C299B01AC0160E098
:104B100070E086EC92E40E9437270E9420282B0147
:104B200020E030E044E352E4C501B4010E944C2986
:104B30009B01AC0160E070E080E793E40E943727BE
:104B40000E94202890EEE92EFF24FA9482019B0116
:104B500043E650E060EF70E088E193E00E9470105F
:104B6000C0904302D0904402E0904502F09046028B
:104B7000C701B6010E941E174B015C01C701B601B7
:104B80000E94261720E030E044E352E40E944C29C2
:104B90009B01AC0160E070E088E493E40E94372759
:104BA0000E9420282B0120E030E044E352E4C501BC
:104BB000B4010E944C299B01AC0160E070E080E2EE
:104BC00093E40E9437270E94202820EEE22E27E05F
:104BD000F22E82019B0148EC50E060EA70E088E12F
:104BE00093E00E94701080914B0290914C02A09132
:104BF0004D02B0914E0280933F0290934002A093E9
:104C00004102B09342028091470290914802A091E4
:104C10004902B0914A0280933B0290933C02A093D8
:104C20003D02B0933E028091430290914402A091D4
:104C30004502B09146028093370290933802A093C8
:104C40003902B0933A020E94791360E080E00E943A
:104C5000221482EA91E00E948E1460915F027091AA
:104C6000600280916102909162020E94A61485E820
:104C700091E00E948E1461E080E00E94221487EA95
:104C800091E00E948E148FE00E94E804BC01990F0D
:104C9000880B990B0E9458280E94CA120E94A614E1
:104CA00085E891E00E948E1461E080E093E00E942C
:104CB000311462E080E00E9422148CEA91E00E94AC
:104CC0008E1460914F027091500280915102909128
:104CD00052020E94A61481EB91E00E948E1463E0C0
:104CE00080E00E94221484EB91E00E948E1481E106
:104CF0000E94E804BC01990F880B990B0E94582868
:104D00000E94B7120E94A61489EB91E00E948E14B3
:104D100064E670E080E090E00E941F0520E030E053
:104D2000232B09F44ACB0E94BD03882309F441CB0D
:104D30000E9400003ECB84B5806284BD08BDE4CCF7
:104D40008091800080688093800010938900009398
:104D50008800DACC8091B00080688093B000009326
:104D6000B300D2CC8091B00080628093B0000093F9
:104D7000B400CACC61E083E00E94B7048CCCC12CA3
:104D8000D12C70E7E72E71ECF72EF9CCC12CD12C89
:104D900050E7E52E51ECF52E35CDC12CD12C30E766
:104DA000E32E31ECF32E6ECD052E97FB1EF400940E
:104DB0000E94EB2657FD07D00E94062707FC03D070
:104DC0004EF40C94EB2650954095309521953F4F2D
:104DD0004F4F5F4F089590958095709561957F4FE7
:104DE0008F4F9F4F08950E942827A59F900DB49F35
:104DF000900DA49F800D911D11240895B7FF0C9470
:104E0000F3260E94F326821B930B0895A1E21A2E2B
:104E1000AA1BBB1BFD010DC0AA1FBB1FEE1FFF1F5E
:104E2000A217B307E407F50720F0A21BB30BE40BAE
:104E3000F50B661F771F881F991F1A9469F76095F5
:104E40007095809590959B01AC01BD01CF010895AF
:104E5000A29FB001B39FC001A39F700D811D1124BB
:104E6000911DB29F700D811D1124911D0895505800
:104E7000BB27AA270E944F270C94F9280E94C0281C
:104E800038F00E94C72820F039F49F3F19F426F427
:104E90000C94BD280EF4E095E7FB0C94B728E92F9D
:104EA0000E941E2958F3BA176207730784079507F3
:104EB00020F079F4A6F50C9440290EF4E0950B2E21
:104EC000BA2FA02D0B01B90190010C01CA01A0015C
:104ED0001124FF27591B99F0593F50F4503E68F1B7
:104EE0001A16F040A22F232F342F4427585FF3CFF8
:104EF000469537952795A795F0405395C9F77EF4C9
:104F00001F16BA0B620B730B840BBAF09150A1F011
:104F1000FF0FBB1F661F771F881FC2F70EC0BA0F97
:104F2000621F731F841F48F4879577956795B7951F
:104F3000F7959E3F08F0B0CF9395880F08F099271A
:104F4000EE0F9795879508950E94932808F481E0C5
:104F500008950E94D028E3950C940A290E94C22744
:104F60000C94F9280E94C72858F00E94C02840F0ED
:104F700029F45F3F29F00C94B72851110C94412972
:104F80000C94BD280E941E2968F39923B1F3552380
:104F900091F3951B550BBB27AA276217730784074C
:104FA00038F09F5F5F4F220F331F441FAA1FA9F3E2
:104FB00035D00E2E3AF0E0E832D091505040E695D0
:104FC000001CCAF72BD0FE2F29D0660F771F881F31
:104FD000BB1F261737074807AB07B0E809F0BB0B24
:104FE000802DBF01FF2793585F4F3AF09E3F510538
:104FF00078F00C94B7280C9441295F3FE4F3983E75
:10500000D4F3869577956795B795F7959F5FC9F720
:10501000880F911D9695879597F90895E1E0660FA1
:10502000771F881FBB1F621773078407BA0720F01A
:10503000621B730B840BBA0BEE1F88F7E095089583
:105040000E9427286894B1110C94412908950E9468
:10505000262988F09F5798F0B92F9927B751B0F0BB
:10506000E1F0660F771F881F991F1AF0BA95C9F7EC
:1050700014C0B13091F00E944029B1E008950C9421
:105080004029672F782F8827B85F39F0B93FCCF3D4
:10509000869577956795B395D9F73EF49095809569
:1050A000709561957F4F8F4F9F4F0895E89409C089
:1050B00097FB3EF490958095709561957F4F8F4F4B
:1050C0009F4F9923A9F0F92F96E9BB279395F69561
:1050D000879577956795B795F111F8CFFAF4BB0FDF
:1050E00011F460FF1BC06F5F7F4F8F4F9F4F16C043
:1050F000882311F096E911C0772321F09EE8872FCD
:10510000762F05C0662371F096E8862F70E060E088
:105110002AF09A95660F771F881FDAF7880F969501
:10512000879597F90895990F0008550FAA0BE0E8A5
:10513000FEEF16161706E807F907C0F01216130659
:10514000E407F50798F0621B730B840B950B39F499
:105150000A2661F0232B242B252B21F408950A26FF
:1051600009F4A140A6958FEF811D811D089597F93F
:105170009F6780E870E060E008959FEF80EC0895FD
:1051800000240A9416161706180609060895002426
:105190000A94121613061406050608950C94BD28E9
:1051A0000E942629D8F3E894E0E0BB279F57F0F04F
:1051B0002AED3FE049EC06C0EE0FBB0F661F771FDC
:1051C000881F28F0B23A62077307840728F0B25AA2
:1051D000620B730B840BE3959A9572F7803830F469
:1051E0009A95BB0F661F771F881FD2F790480C94C3
:1051F0000E2A092E0394000C11F4882352F0BB0FE1
:1052000040F4BF2B11F460FF04C06F5F7F4F8F4FDE
:105210009F4F0895EF93E0FF07C0A2EA2AED3FE019
:1052200049EC5FEB0E944F270E94F9280F900394EE
:1052300001FC9058E8E6F0E00C94212A57FD9058C4
:10524000440F551F59F05F3F71F04795880F97FB4A
:10525000991F61F09F3F79F0879508951216130604
:105260001406551FF2CF4695F1DF08C01616170633
:105270001806991FF1CF8695710561050894089568
:10528000E894BB2766277727CB0197F908950E94FA
:10529000932808F48FEF08950E945F290C94F92851
:1052A0000E94C02838F00E94C72820F0952311F0F2
:1052B0000C94B7280C94BD2811240C9441290E9409
:1052C0001E2970F3959FC1F3950F50E0551F629F03
:1052D000F001729FBB27F00DB11D639FAA27F00D4F
:1052E000B11DAA1F649F6627B00DA11D661F829F76
:1052F0002227B00DA11D621F739FB00DA11D621F5B
:10530000839FA00D611D221F749F3327A00D611D77
:10531000231F849F600D211D822F762F6A2F112459
:105320009F5750409AF0F1F088234AF0EE0FFF1F8C
:10533000BB1F661F771F881F91505040A9F79E3FE3
:10534000510580F00C94B7280C9441295F3FE4F399
:10535000983ED4F3869577956795B795F795E79539
:105360009F5FC1F7FE2B880F911D9695879597F942
:1053700008959F930E94D0280F9007FCEE5F0C9435
:105380000A2919F416F40C94BD280C940C2A0E94D6
:105390002629B8F39923C9F3B6F39F57550B87FF16
:1053A0000E941A2A0024A0E640EA900180585695EF
:1053B000979528F4805C660F771F881F20F02617CA
:1053C0003707480730F4621B730B840B20293129FF
:1053D0004A2BA69517940794202531254A2758F77C
:1053E000660F771F881F20F026173707480730F40D
:1053F000620B730B840B200D311D411DA09581F7AD
:10540000B901842F9158880F9695879508950E9429
:105410009328880B990B08959F3F31F0915020F409
:10542000879577956795B795880F911D9695879580
:1054300097F9089591505040660F771F881FD2F753
:1054400008959F938F937F936F93FF93EF939B01A7
:10545000AC010E944C29EF91FF910E94352A2F91B7
:105460003F914F915F910C944C29DF93CF931F9301
:105470000F93FF92EF92DF927B018C01689406C03C
:10548000DA2EEF010E945F29FE01E894A591259193
:10549000359145915591A6F3EF010E944F27FE01EA
:1054A0009701A801DA9469F7DF90EF90FF900F91D0
:1054B0001F91CF91DF9108950E942827332312F482
:1054C0008A1B9B0B0C94662A0E942827B7FF08951D
:1054D000821B930B0895EE0FFF1F0590F491E02DB2
:1054E000099481E090E0F8940C94762AF894FFCF28
:1054F0000E1106181F00000000000000F303530304
:1055000080034004B1038F03A303000000003114A3
:10551000530399129812000000003F0F5303991291
:1055200098129806300AFE09950914095509EB11DD
:10553000340BAB0AA10AA60717088808E8107010F8
:105540001110F31537060D0A006E616E00696E6664
:10555000006F76660020445F45415A594C494645E4
:10556000202B32333438303531353438303832004E
:10557000416D7073004B6D2F487200445F45415A76
:10558000594C49464500303730353135343830389C
:1055900032005370643D004163633D004469733DD4
:0C55A000004B6D0043203D200020410026
:107E0000112484B714BE81FFF0D085E080938100F7
:107E100082E08093C00088E18093C10086E0809377
:107E2000C20080E18093C4008EE0C9D0259A86E02C
:107E300020E33CEF91E0309385002093840096BBD3
:107E4000B09BFECF1D9AA8958150A9F7CC24DD24C4
:107E500088248394B5E0AB2EA1E19A2EF3E0BF2EE7
:107E6000A2D0813461F49FD0082FAFD0023811F036
:107E7000013811F484E001C083E08DD089C08234E0
:107E800011F484E103C0853419F485E0A6D080C0E4
:107E9000853579F488D0E82EFF2485D0082F10E0AE
:107EA000102F00270E291F29000F111F8ED06801E7
:107EB0006FC0863521F484E090D080E0DECF843638
:107EC00009F040C070D06FD0082F6DD080E0C81688
:107ED00080E7D80618F4F601B7BEE895C0E0D1E017
:107EE00062D089930C17E1F7F0E0CF16F0E7DF06D8
:107EF00018F0F601B7BEE89568D007B600FCFDCFD4
:107F0000A601A0E0B1E02C9130E011968C91119780
:107F100090E0982F8827822B932B1296FA010C0160
:107F200087BEE89511244E5F5F4FF1E0A038BF0790
:107F300051F7F601A7BEE89507B600FCFDCF97BE46
:107F4000E89526C08437B1F42ED02DD0F82E2BD052
:107F50003CD0F601EF2C8F010F5F1F4F84911BD097
:107F6000EA94F801C1F70894C11CD11CFA94CF0C13
:107F7000D11C0EC0853739F428D08EE10CD085E9AC
:107F80000AD08FE07ACF813511F488E018D01DD067
:107F900080E101D065CF982F8091C00085FFFCCF94
:107FA0009093C60008958091C00087FFFCCF809118
:107FB000C00084FD01C0A8958091C6000895E0E648
:107FC000F0E098E1908380830895EDDF803219F02E
:107FD00088E0F5DFFFCF84E1DECF1F93182FE3DFCA
:107FE0001150E9F7F2DF1F91089580E0E8DFEE27F6
:047FF000FF270994CA
:027FFE00040479
:00000001FF
