:100000000C945D000C9485000C9485000C94850084
:100010000C9485000C9485000C9485000C9485004C
:100020000C9485000C9485000C9485000C9485003C
:100030000C9485000C9485000C9485000C9485002C
:100040000C944E010C9485000C9485000C94850052
:100050000C9485000C9485000C9485000C9485000C
:100060000C9485000C94850000000008000201003B
:100070000003040700000000000000000000000072
:10008000250028002B0000000000240027002A0083
:10009000040404040404040402020202020203032E
:1000A0000303030301020408102040800102040836
:1000B00010200102040810204C0211241FBECFEFB3
:1000C000D8E0DEBFCDBF11E0A0E0B1E0E2EEF4E0A9
:1000D00002C005900D92A831B107D9F721E0A8E13F
:1000E000B1E001C01D92A932B207E1F710E0CDE501
:1000F000D0E004C02197FE010E946902CC35D107EF
:10010000C9F70E9498010C946F020C94000090E0D3
:10011000FC01EC55FF4F249180579F4FFC018491C7
:10012000882399F090E0880F991FFC01EA57FF4F50
:10013000A591B491FC01E458FF4F859194918FB73C
:10014000F894EC91E22BEC938FBF089590E0FC01C2
:10015000E859FF4F2491FC01EC55FF4F3491FC010D
:10016000E057FF4FE491EE23C9F0222339F023300A
:1001700001F1A8F4213019F1223029F1F0E0EE0F5D
:10018000FF1FE458FF4FA591B4918FB7F894EC91FD
:10019000611126C030953E233C938FBF08952730D0
:1001A000A9F02830C9F0243049F7809180008F7D74
:1001B00003C0809180008F7780938000DFCF84B56B
:1001C0008F7784BDDBCF84B58F7DFBCF8091B0006E
:1001D0008F778093B000D2CF8091B0008F7DF9CF20
:1001E0003E2BDACF1F93CF93DF93182FEB010E94A2
:1001F0008700209739F460E0812FDF91CF911F9124
:100200000C94A600CF3FD10511F461E0F5CFE12FAA
:10021000F0E0E859FF4FE491E33031F140F4E13090
:10022000B1F0E230E1F0C038D1057CF7E4CFE7303F
:1002300029F1E83059F1E430B1F780918000806213
:1002400080938000D0938B00C0938A0004C084B553
:10025000806884BDC7BDDF91CF911F91089584B59B
:10026000806284BDC8BDF7CF809180008068809394
:100270008000D0938900C0938800EDCF8091B000BA
:1002800080688093B000C093B300E5CF8091B00048
:1002900080628093B000C093B400DDCF1F920F92B4
:1002A0000FB60F9211242F933F938F939F93AF9389
:1002B000BF9380911D0190911E01A0911F01B091EB
:1002C000200130911C0123E0230F2D3758F50196B2
:1002D000A11DB11D20931C0180931D0190931E014F
:1002E000A0931F01B09320018091180190911901F2
:1002F000A0911A01B0911B010196A11DB11D80931F
:10030000180190931901A0931A01B0931B01BF919A
:10031000AF919F918F913F912F910F900FBE0F90B2
:100320001F90189526E8230F0296A11DB11DD2CF6C
:10033000789484B5826084BD84B5816084BD85B5C0
:10034000826085BD85B5816085BD80916E008160CC
:1003500080936E0010928100809181008260809372
:100360008100809181008160809381008091800074
:100370008160809380008091B10084608093B1009F
:100380008091B00081608093B00080917A00846099
:1003900080937A0080917A00826080937A008091C5
:1003A0007A00816080937A0080917A0080688093DF
:1003B0007A001092C100C0E1D1E018812296812F0D
:1003C0000E94870060E0812F0E94A60081E0C83172
:1003D000D80799F7C0E0D1E030E1E32E31E0F32E09
:1003E00018812296812F0E94870061E0812F0E9450
:1003F000A600EC16FD06A1F760E081E00E94A600D1
:1004000061E08CE00E94A600EE24EA94F12C20E04A
:10041000822E20E0922E66246A94712C6701C61801
:10042000D708CFEFD0E05701AC1ABD0A10E000E0CA
:10043000809121012091270130912801213031053F
:1004400009F5B3010E94F200BE01809123010E94D0
:10045000F200B701601B710B809125010E94F20030
:100460000F5F1F4F011581E0180711F72197D8F68C
:1004700081E0681A710890F68114910461F20E947B
:100480000000C9CFB6010E94F200B501809123019E
:100490000E94F200B801E0CFCF93DF93C1E2D1E038
:1004A0008BE090E0998388838AE090E09B838A8345
:1004B00089E090E09D838C831F821E828BE00E94E6
:1004C00087008A810E9487008C81DF91CF910C94F4
:1004D0008700EE0FFF1F0590F491E02D0994F8942A
:0204E000FFCF4C
:1004E20001000200030004000500060007000800E6
:0804F2000C000D000E000F00CC
:00000001FF
