:100000000C945D000C9485000C9485000C94850084
:100010000C9485000C9485000C9485000C9485004C
:100020000C9485000C9485000C9485000C9485003C
:100030000C9485000C9485000C9485000C9485002C
:100040000C94FE010C9485000C9485000C948500A2
:100050000C9485000C9485000C9485000C9485000C
:100060000C9485000C94850000000008000201003B
:100070000003040700000000000000000000000072
:10008000250028002B0000000000240027002A0083
:10009000040404040404040402020202020203032E
:1000A0000303030301020408102040800102040836
:1000B0001020010204081020BA0211241FBECFEF45
:1000C000D8E0DEBFCDBF11E0A0E0B1E0EEEBF5E09F
:1000D00002C005900D92A630B107D9F721E0A6E045
:1000E000B1E001C01D92A731B207E1F710E0CDE504
:1000F000D0E004C02197FE010E94D702CC35D10781
:10010000C9F70E9448020C94DD020C94000090E0B4
:10011000FC01EC55FF4F249180579F4FFC018491C7
:10012000882399F090E0880F991FFC01EA57FF4F50
:10013000A591B491FC01E458FF4F859194918FB73C
:10014000F894EC91E22BEC938FBF089590E0FC01C2
:10015000E859FF4F2491FC01EC55FF4F3491FC010D
:10016000E057FF4FE491EE23C9F0222339F023300A
:1001700001F1A8F4213019F1223029F1F0E0EE0F5D
:10018000FF1FE458FF4FA591B4918FB7F894EC91FD
:10019000611126C030953E233C938FBF08952730D0
:1001A000A9F02830C9F0243049F7809180008F7D74
:1001B00003C0809180008F7780938000DFCF84B56B
:1001C0008F7784BDDBCF84B58F7DFBCF8091B0006E
:1001D0008F778093B000D2CF8091B0008F7DF9CF20
:1001E0003E2BDACF1F93CF93DF93182FEB010E94A2
:1001F0008700209739F460E0812FDF91CF911F9124
:100200000C94A600CF3FD10511F461E0F5CFE12FAA
:10021000F0E0E859FF4FE491E33031F140F4E13090
:10022000B1F0E230E1F0C038D1057CF7E4CFE7303F
:1002300029F1E83059F1E430B1F780918000806213
:1002400080938000D0938B00C0938A0004C084B553
:10025000806884BDC7BDDF91CF911F91089584B59B
:10026000806284BDC8BDF7CF809180008068809394
:100270008000D0938900C0938800EDCF8091B000BA
:1002800080688093B000C093B300E5CF8091B00048
:1002900080628093B000C093B400DDCFEF92FF92F4
:1002A0000F931F93CF93DF938F3F910519F014F0B5
:1002B0008FEF90E09C0197FF02C030E020E08B01BF
:1002C0006F3F710519F014F00FEF10E017FF02C037
:1002D00010E000E0EA014F3F510519F014F0CFEFB4
:1002E000D0E0D7FF02C0D0E0C0E080910F01409184
:1002F00015015091160141305105E1F4EE24EA94C4
:10030000F12CB701621B730B0E94F200B701601B56
:10031000710B809111010E94F200B7016C1B7D0BE3
:1003200080911301DF91CF911F910F91FF90EF907A
:100330000C94F200B9010E94F200B8018091110101
:100340000E94F200BE01ECCF3FB7F89480910B0100
:1003500090910C01A0910D01B0910E0126B5A89BC2
:1003600005C02F3F19F00196A11DB11D3FBFBA2F47
:10037000A92F982F8827BC01CD01620F711D811D07
:10038000911D42E0660F771F881F991F4A95D1F78C
:1003900008958F929F92AF92BF92CF92DF92EF9289
:1003A000FF920E94A4014B015C0184E6C82ED12C6F
:1003B000E12CF12C0E94A401681979098A099B0992
:1003C000683E734081059105A8F321E0C21AD10867
:1003D000E108F10888EE880E83E0981EA11CB11C8C
:1003E000C114D104E104F10429F7FF90EF90DF90EC
:1003F000CF90BF90AF909F908F9008951F920F92D3
:100400000FB60F9211242F933F938F939F93AF9327
:10041000BF938091070190910801A0910901B091CB
:100420000A013091060123E0230F2D3758F501967C
:10043000A11DB11D2093060180930701909308012F
:10044000A0930901B0930A0180910B0190910C01D6
:10045000A0910D01B0910E010196A11DB11D8093D7
:100460000B0190930C01A0930D01B0930E01BF916D
:10047000AF919F918F913F912F910F900FBE0F9051
:100480001F90189526E8230F0296A11DB11DD2CF0B
:10049000789484B5826084BD84B5816084BD85B55F
:1004A000826085BD85B5816085BD80916E0081606B
:1004B00080936E0010928100809181008260809311
:1004C0008100809181008160809381008091800013
:1004D0008160809380008091B10084608093B1003E
:1004E0008091B00081608093B00080917A00846038
:1004F00080937A0080917A00826080937A00809164
:100500007A00816080937A0080917A00806880937D
:100510007A001092C10081E00E94870060E081E0D3
:100520000E94A6008CE00E94870061E08CE00E949F
:10053000A600C0E0D0E04091040150910501609117
:1005400002017091030180910001909101010E94CC
:100550004E010E94C90150E040E06FEF70E090E072
:1005600080E00E944E010E94C901209721F30E9461
:100570000000E1CFCF93DF93CFE0D1E08BE090E0BC
:10058000998388838AE090E09B838A8389E090E066
:100590009D838C831F821E828BE00E9487008A814C
:1005A0000E9487008C81DF91CF910C948700EE0F21
:0E05B000FF1F0590F491E02D0994F894FFCF01
:0605BE00FF000000000038
:00000001FF
